{
  "_format": "hh-sol-artifact-1",
  "contractName": "JobBoard",
  "sourceName": "contracts/JobBoard.sol",
  "abi": [
    {
      "inputs": [
        {
          "internalType": "uint256",
          "name": "_serviceFee",
          "type": "uint256"
        }
      ],
      "stateMutability": "nonpayable",
      "type": "constructor"
    },
    {
      "anonymous": false,
      "inputs": [
        {
          "indexed": true,
          "internalType": "uint256",
          "name": "jobId",
          "type": "uint256"
        },
        {
          "indexed": true,
          "internalType": "address",
          "name": "applicant",
          "type": "address"
        },
        {
          "indexed": false,
          "internalType": "enum JobBoard.ApplicationState",
          "name": "newState",
          "type": "uint8"
        }
      ],
      "name": "ApplicationStateChanged",
      "type": "event"
    },
    {
      "anonymous": false,
      "inputs": [
        {
          "indexed": true,
          "internalType": "uint256",
          "name": "jobId",
          "type": "uint256"
        },
        {
          "indexed": true,
          "internalType": "address",
          "name": "application",
          "type": "address"
        },
        {
          "indexed": false,
          "internalType": "string",
          "name": "name",
          "type": "string"
        },
        {
          "indexed": false,
          "internalType": "enum JobBoard.WorkMode",
          "name": "workMode",
          "type": "uint8"
        },
        {
          "indexed": false,
          "internalType": "string",
          "name": "email",
          "type": "string"
        }
      ],
      "name": "ApplicationSubmitted",
      "type": "event"
    },
    {
      "anonymous": false,
      "inputs": [
        {
          "indexed": true,
          "internalType": "uint256",
          "name": "jobId",
          "type": "uint256"
        },
        {
          "indexed": true,
          "internalType": "address",
          "name": "employer",
          "type": "address"
        }
      ],
      "name": "JobExpired",
      "type": "event"
    },
    {
      "anonymous": false,
      "inputs": [
        {
          "indexed": true,
          "internalType": "uint256",
          "name": "jobId",
          "type": "uint256"
        },
        {
          "indexed": true,
          "internalType": "address",
          "name": "employer",
          "type": "address"
        },
        {
          "indexed": false,
          "internalType": "string",
          "name": "title",
          "type": "string"
        },
        {
          "indexed": false,
          "internalType": "string",
          "name": "orgName",
          "type": "string"
        }
      ],
      "name": "JobPosted",
      "type": "event"
    },
    {
      "anonymous": false,
      "inputs": [
        {
          "indexed": true,
          "internalType": "address",
          "name": "previousOwner",
          "type": "address"
        },
        {
          "indexed": true,
          "internalType": "address",
          "name": "newOwner",
          "type": "address"
        }
      ],
      "name": "OwnershipTransferred",
      "type": "event"
    },
    {
      "anonymous": false,
      "inputs": [
        {
          "indexed": true,
          "internalType": "bytes32",
          "name": "role",
          "type": "bytes32"
        },
        {
          "indexed": true,
          "internalType": "bytes32",
          "name": "previousAdminRole",
          "type": "bytes32"
        },
        {
          "indexed": true,
          "internalType": "bytes32",
          "name": "newAdminRole",
          "type": "bytes32"
        }
      ],
      "name": "RoleAdminChanged",
      "type": "event"
    },
    {
      "anonymous": false,
      "inputs": [
        {
          "indexed": true,
          "internalType": "bytes32",
          "name": "role",
          "type": "bytes32"
        },
        {
          "indexed": true,
          "internalType": "address",
          "name": "account",
          "type": "address"
        },
        {
          "indexed": true,
          "internalType": "address",
          "name": "sender",
          "type": "address"
        }
      ],
      "name": "RoleGranted",
      "type": "event"
    },
    {
      "anonymous": false,
      "inputs": [
        {
          "indexed": true,
          "internalType": "bytes32",
          "name": "role",
          "type": "bytes32"
        },
        {
          "indexed": true,
          "internalType": "address",
          "name": "account",
          "type": "address"
        },
        {
          "indexed": true,
          "internalType": "address",
          "name": "sender",
          "type": "address"
        }
      ],
      "name": "RoleRevoked",
      "type": "event"
    },
    {
      "anonymous": false,
      "inputs": [
        {
          "indexed": false,
          "internalType": "uint256",
          "name": "oldFee",
          "type": "uint256"
        },
        {
          "indexed": false,
          "internalType": "uint256",
          "name": "newFee",
          "type": "uint256"
        }
      ],
      "name": "ServiceFeeUpdated",
      "type": "event"
    },
    {
      "inputs": [],
      "name": "ADMIN_ROLE",
      "outputs": [
        {
          "internalType": "bytes32",
          "name": "",
          "type": "bytes32"
        }
      ],
      "stateMutability": "view",
      "type": "function"
    },
    {
      "inputs": [],
      "name": "DEFAULT_ADMIN_ROLE",
      "outputs": [
        {
          "internalType": "bytes32",
          "name": "",
          "type": "bytes32"
        }
      ],
      "stateMutability": "view",
      "type": "function"
    },
    {
      "inputs": [],
      "name": "EMPLOYER_ROLE",
      "outputs": [
        {
          "internalType": "bytes32",
          "name": "",
          "type": "bytes32"
        }
      ],
      "stateMutability": "view",
      "type": "function"
    },
    {
      "inputs": [
        {
          "internalType": "uint256",
          "name": "",
          "type": "uint256"
        },
        {
          "internalType": "address",
          "name": "",
          "type": "address"
        }
      ],
      "name": "applicationStates",
      "outputs": [
        {
          "internalType": "enum JobBoard.ApplicationState",
          "name": "",
          "type": "uint8"
        }
      ],
      "stateMutability": "view",
      "type": "function"
    },
    {
      "inputs": [
        {
          "internalType": "uint256",
          "name": "jobId",
          "type": "uint256"
        }
      ],
      "name": "checkJobExpiration",
      "outputs": [],
      "stateMutability": "nonpayable",
      "type": "function"
    },
    {
      "inputs": [
        {
          "internalType": "uint256",
          "name": "jobId",
          "type": "uint256"
        }
      ],
      "name": "closeJob",
      "outputs": [],
      "stateMutability": "nonpayable",
      "type": "function"
    },
    {
      "inputs": [
        {
          "internalType": "uint256",
          "name": "id",
          "type": "uint256"
        }
      ],
      "name": "deleteJob",
      "outputs": [],
      "stateMutability": "nonpayable",
      "type": "function"
    },
    {
      "inputs": [
        {
          "internalType": "uint256",
          "name": "id",
          "type": "uint256"
        },
        {
          "internalType": "string",
          "name": "orgName",
          "type": "string"
        },
        {
          "internalType": "string",
          "name": "title",
          "type": "string"
        },
        {
          "internalType": "string",
          "name": "description",
          "type": "string"
        },
        {
          "internalType": "string",
          "name": "orgEmail",
          "type": "string"
        },
        {
          "internalType": "string",
          "name": "logoCID",
          "type": "string"
        },
        {
          "internalType": "string[]",
          "name": "fieldName",
          "type": "string[]"
        },
        {
          "internalType": "bool[]",
          "name": "isRequired",
          "type": "bool[]"
        },
        {
          "internalType": "bool",
          "name": "isOpen",
          "type": "bool"
        },
        {
          "internalType": "enum JobBoard.JobType",
          "name": "jobType",
          "type": "uint8"
        },
        {
          "internalType": "enum JobBoard.WorkMode",
          "name": "workMode",
          "type": "uint8"
        },
        {
          "internalType": "string",
          "name": "minimumSalary",
          "type": "string"
        },
        {
          "internalType": "string",
          "name": "maximumSalary",
          "type": "string"
        }
      ],
      "name": "editJob",
      "outputs": [],
      "stateMutability": "nonpayable",
      "type": "function"
    },
    {
      "inputs": [
        {
          "internalType": "address",
          "name": "",
          "type": "address"
        },
        {
          "internalType": "uint256",
          "name": "",
          "type": "uint256"
        }
      ],
      "name": "employerJobs",
      "outputs": [
        {
          "internalType": "uint256",
          "name": "",
          "type": "uint256"
        }
      ],
      "stateMutability": "view",
      "type": "function"
    },
    {
      "inputs": [
        {
          "internalType": "uint256",
          "name": "jobId",
          "type": "uint256"
        }
      ],
      "name": "expireJob",
      "outputs": [],
      "stateMutability": "nonpayable",
      "type": "function"
    },
    {
      "inputs": [],
      "name": "getAllJobs",
      "outputs": [
        {
          "components": [
            {
              "internalType": "uint256",
              "name": "id",
              "type": "uint256"
            },
            {
              "internalType": "address",
              "name": "employer",
              "type": "address"
            },
            {
              "internalType": "string",
              "name": "orgName",
              "type": "string"
            },
            {
              "internalType": "string",
              "name": "title",
              "type": "string"
            },
            {
              "internalType": "string",
              "name": "description",
              "type": "string"
            },
            {
              "internalType": "string",
              "name": "orgEmail",
              "type": "string"
            },
            {
              "components": [
                {
                  "internalType": "string",
                  "name": "fieldName",
                  "type": "string"
                },
                {
                  "internalType": "bool",
                  "name": "isRequired",
                  "type": "bool"
                }
              ],
              "internalType": "struct JobBoard.CustomField[]",
              "name": "customField",
              "type": "tuple[]"
            },
            {
              "internalType": "string",
              "name": "logoCID",
              "type": "string"
            },
            {
              "internalType": "bool",
              "name": "isOpen",
              "type": "bool"
            },
            {
              "internalType": "bool",
              "name": "deleted",
              "type": "bool"
            },
            {
              "internalType": "uint256",
              "name": "startTime",
              "type": "uint256"
            },
            {
              "internalType": "uint256",
              "name": "endTime",
              "type": "uint256"
            },
            {
              "internalType": "uint256",
              "name": "expirationTime",
              "type": "uint256"
            },
            {
              "internalType": "bool",
              "name": "expired",
              "type": "bool"
            },
            {
              "internalType": "enum JobBoard.JobType",
              "name": "jobType",
              "type": "uint8"
            },
            {
              "internalType": "enum JobBoard.WorkMode",
              "name": "workMode",
              "type": "uint8"
            },
            {
              "internalType": "string",
              "name": "minimumSalary",
              "type": "string"
            },
            {
              "internalType": "string",
              "name": "maximumSalary",
              "type": "string"
            }
          ],
          "internalType": "struct JobBoard.JobStruct[]",
          "name": "",
          "type": "tuple[]"
        }
      ],
      "stateMutability": "view",
      "type": "function"
    },
    {
      "inputs": [
        {
          "internalType": "uint256",
          "name": "jobId",
          "type": "uint256"
        }
      ],
      "name": "getJob",
      "outputs": [
        {
          "components": [
            {
              "internalType": "uint256",
              "name": "id",
              "type": "uint256"
            },
            {
              "internalType": "address",
              "name": "employer",
              "type": "address"
            },
            {
              "internalType": "string",
              "name": "orgName",
              "type": "string"
            },
            {
              "internalType": "string",
              "name": "title",
              "type": "string"
            },
            {
              "internalType": "string",
              "name": "description",
              "type": "string"
            },
            {
              "internalType": "string",
              "name": "orgEmail",
              "type": "string"
            },
            {
              "components": [
                {
                  "internalType": "string",
                  "name": "fieldName",
                  "type": "string"
                },
                {
                  "internalType": "bool",
                  "name": "isRequired",
                  "type": "bool"
                }
              ],
              "internalType": "struct JobBoard.CustomField[]",
              "name": "customField",
              "type": "tuple[]"
            },
            {
              "internalType": "string",
              "name": "logoCID",
              "type": "string"
            },
            {
              "internalType": "bool",
              "name": "isOpen",
              "type": "bool"
            },
            {
              "internalType": "bool",
              "name": "deleted",
              "type": "bool"
            },
            {
              "internalType": "uint256",
              "name": "startTime",
              "type": "uint256"
            },
            {
              "internalType": "uint256",
              "name": "endTime",
              "type": "uint256"
            },
            {
              "internalType": "uint256",
              "name": "expirationTime",
              "type": "uint256"
            },
            {
              "internalType": "bool",
              "name": "expired",
              "type": "bool"
            },
            {
              "internalType": "enum JobBoard.JobType",
              "name": "jobType",
              "type": "uint8"
            },
            {
              "internalType": "enum JobBoard.WorkMode",
              "name": "workMode",
              "type": "uint8"
            },
            {
              "internalType": "string",
              "name": "minimumSalary",
              "type": "string"
            },
            {
              "internalType": "string",
              "name": "maximumSalary",
              "type": "string"
            }
          ],
          "internalType": "struct JobBoard.JobStruct",
          "name": "",
          "type": "tuple"
        }
      ],
      "stateMutability": "view",
      "type": "function"
    },
    {
      "inputs": [
        {
          "internalType": "uint256",
          "name": "jobId",
          "type": "uint256"
        },
        {
          "internalType": "uint256",
          "name": "applicantIndex",
          "type": "uint256"
        }
      ],
      "name": "getJobApplicantDetails",
      "outputs": [
        {
          "components": [
            {
              "internalType": "uint256",
              "name": "jobId",
              "type": "uint256"
            },
            {
              "internalType": "address",
              "name": "applicant",
              "type": "address"
            },
            {
              "internalType": "string",
              "name": "name",
              "type": "string"
            },
            {
              "internalType": "string",
              "name": "email",
              "type": "string"
            },
            {
              "internalType": "string",
              "name": "phoneNumber",
              "type": "string"
            },
            {
              "internalType": "string",
              "name": "location",
              "type": "string"
            },
            {
              "internalType": "string[]",
              "name": "fieldResponse",
              "type": "string[]"
            },
            {
              "internalType": "string",
              "name": "cvCID",
              "type": "string"
            },
            {
              "internalType": "string",
              "name": "portfolioLink",
              "type": "string"
            },
            {
              "internalType": "string",
              "name": "experience",
              "type": "string"
            },
            {
              "internalType": "string",
              "name": "expectedSalary",
              "type": "string"
            },
            {
              "internalType": "string",
              "name": "github",
              "type": "string"
            },
            {
              "internalType": "enum JobBoard.WorkMode",
              "name": "workMode",
              "type": "uint8"
            },
            {
              "internalType": "enum JobBoard.JobType",
              "name": "jobType",
              "type": "uint8"
            },
            {
              "internalType": "string",
              "name": "minimumSalary",
              "type": "string"
            },
            {
              "internalType": "string",
              "name": "maximumSalary",
              "type": "string"
            },
            {
              "internalType": "uint256",
              "name": "applicationTimestamp",
              "type": "uint256"
            },
            {
              "internalType": "enum JobBoard.ApplicationState",
              "name": "currentState",
              "type": "uint8"
            }
          ],
          "internalType": "struct JobBoard.ApplicationStruct",
          "name": "",
          "type": "tuple"
        }
      ],
      "stateMutability": "view",
      "type": "function"
    },
    {
      "inputs": [
        {
          "internalType": "uint256",
          "name": "jobId",
          "type": "uint256"
        }
      ],
      "name": "getJobApplicants",
      "outputs": [
        {
          "internalType": "address[]",
          "name": "",
          "type": "address[]"
        }
      ],
      "stateMutability": "view",
      "type": "function"
    },
    {
      "inputs": [
        {
          "internalType": "uint256",
          "name": "jobId",
          "type": "uint256"
        }
      ],
      "name": "getJobApplicationCount",
      "outputs": [
        {
          "internalType": "uint256",
          "name": "",
          "type": "uint256"
        }
      ],
      "stateMutability": "view",
      "type": "function"
    },
    {
      "inputs": [
        {
          "internalType": "uint256",
          "name": "jobId",
          "type": "uint256"
        }
      ],
      "name": "getJobApplications",
      "outputs": [
        {
          "components": [
            {
              "internalType": "uint256",
              "name": "jobId",
              "type": "uint256"
            },
            {
              "internalType": "address",
              "name": "applicant",
              "type": "address"
            },
            {
              "internalType": "string",
              "name": "name",
              "type": "string"
            },
            {
              "internalType": "string",
              "name": "email",
              "type": "string"
            },
            {
              "internalType": "string",
              "name": "phoneNumber",
              "type": "string"
            },
            {
              "internalType": "string",
              "name": "location",
              "type": "string"
            },
            {
              "internalType": "string[]",
              "name": "fieldResponse",
              "type": "string[]"
            },
            {
              "internalType": "string",
              "name": "cvCID",
              "type": "string"
            },
            {
              "internalType": "string",
              "name": "portfolioLink",
              "type": "string"
            },
            {
              "internalType": "string",
              "name": "experience",
              "type": "string"
            },
            {
              "internalType": "string",
              "name": "expectedSalary",
              "type": "string"
            },
            {
              "internalType": "string",
              "name": "github",
              "type": "string"
            },
            {
              "internalType": "enum JobBoard.WorkMode",
              "name": "workMode",
              "type": "uint8"
            },
            {
              "internalType": "enum JobBoard.JobType",
              "name": "jobType",
              "type": "uint8"
            },
            {
              "internalType": "string",
              "name": "minimumSalary",
              "type": "string"
            },
            {
              "internalType": "string",
              "name": "maximumSalary",
              "type": "string"
            },
            {
              "internalType": "uint256",
              "name": "applicationTimestamp",
              "type": "uint256"
            },
            {
              "internalType": "enum JobBoard.ApplicationState",
              "name": "currentState",
              "type": "uint8"
            }
          ],
          "internalType": "struct JobBoard.ApplicationStruct[]",
          "name": "",
          "type": "tuple[]"
        }
      ],
      "stateMutability": "view",
      "type": "function"
    },
    {
      "inputs": [],
      "name": "getMyJobs",
      "outputs": [
        {
          "components": [
            {
              "internalType": "uint256",
              "name": "id",
              "type": "uint256"
            },
            {
              "internalType": "address",
              "name": "employer",
              "type": "address"
            },
            {
              "internalType": "string",
              "name": "orgName",
              "type": "string"
            },
            {
              "internalType": "string",
              "name": "title",
              "type": "string"
            },
            {
              "internalType": "string",
              "name": "description",
              "type": "string"
            },
            {
              "internalType": "string",
              "name": "orgEmail",
              "type": "string"
            },
            {
              "components": [
                {
                  "internalType": "string",
                  "name": "fieldName",
                  "type": "string"
                },
                {
                  "internalType": "bool",
                  "name": "isRequired",
                  "type": "bool"
                }
              ],
              "internalType": "struct JobBoard.CustomField[]",
              "name": "customField",
              "type": "tuple[]"
            },
            {
              "internalType": "string",
              "name": "logoCID",
              "type": "string"
            },
            {
              "internalType": "bool",
              "name": "isOpen",
              "type": "bool"
            },
            {
              "internalType": "bool",
              "name": "deleted",
              "type": "bool"
            },
            {
              "internalType": "uint256",
              "name": "startTime",
              "type": "uint256"
            },
            {
              "internalType": "uint256",
              "name": "endTime",
              "type": "uint256"
            },
            {
              "internalType": "uint256",
              "name": "expirationTime",
              "type": "uint256"
            },
            {
              "internalType": "bool",
              "name": "expired",
              "type": "bool"
            },
            {
              "internalType": "enum JobBoard.JobType",
              "name": "jobType",
              "type": "uint8"
            },
            {
              "internalType": "enum JobBoard.WorkMode",
              "name": "workMode",
              "type": "uint8"
            },
            {
              "internalType": "string",
              "name": "minimumSalary",
              "type": "string"
            },
            {
              "internalType": "string",
              "name": "maximumSalary",
              "type": "string"
            }
          ],
          "internalType": "struct JobBoard.JobStruct[]",
          "name": "",
          "type": "tuple[]"
        }
      ],
      "stateMutability": "view",
      "type": "function"
    },
    {
      "inputs": [
        {
          "internalType": "bytes32",
          "name": "role",
          "type": "bytes32"
        }
      ],
      "name": "getRoleAdmin",
      "outputs": [
        {
          "internalType": "bytes32",
          "name": "",
          "type": "bytes32"
        }
      ],
      "stateMutability": "view",
      "type": "function"
    },
    {
      "inputs": [
        {
          "internalType": "bytes32",
          "name": "role",
          "type": "bytes32"
        },
        {
          "internalType": "address",
          "name": "account",
          "type": "address"
        }
      ],
      "name": "grantRole",
      "outputs": [],
      "stateMutability": "nonpayable",
      "type": "function"
    },
    {
      "inputs": [
        {
          "internalType": "bytes32",
          "name": "role",
          "type": "bytes32"
        },
        {
          "internalType": "address",
          "name": "account",
          "type": "address"
        }
      ],
      "name": "hasRole",
      "outputs": [
        {
          "internalType": "bool",
          "name": "",
          "type": "bool"
        }
      ],
      "stateMutability": "view",
      "type": "function"
    },
    {
      "inputs": [
        {
          "internalType": "uint256",
          "name": "jobId",
          "type": "uint256"
        }
      ],
      "name": "isJobExpired",
      "outputs": [
        {
          "internalType": "bool",
          "name": "",
          "type": "bool"
        }
      ],
      "stateMutability": "view",
      "type": "function"
    },
    {
      "inputs": [
        {
          "internalType": "uint256",
          "name": "",
          "type": "uint256"
        }
      ],
      "name": "jobs",
      "outputs": [
        {
          "internalType": "uint256",
          "name": "id",
          "type": "uint256"
        },
        {
          "internalType": "address",
          "name": "employer",
          "type": "address"
        },
        {
          "internalType": "string",
          "name": "orgName",
          "type": "string"
        },
        {
          "internalType": "string",
          "name": "title",
          "type": "string"
        },
        {
          "internalType": "string",
          "name": "description",
          "type": "string"
        },
        {
          "internalType": "string",
          "name": "orgEmail",
          "type": "string"
        },
        {
          "internalType": "string",
          "name": "logoCID",
          "type": "string"
        },
        {
          "internalType": "bool",
          "name": "isOpen",
          "type": "bool"
        },
        {
          "internalType": "bool",
          "name": "deleted",
          "type": "bool"
        },
        {
          "internalType": "uint256",
          "name": "startTime",
          "type": "uint256"
        },
        {
          "internalType": "uint256",
          "name": "endTime",
          "type": "uint256"
        },
        {
          "internalType": "uint256",
          "name": "expirationTime",
          "type": "uint256"
        },
        {
          "internalType": "bool",
          "name": "expired",
          "type": "bool"
        },
        {
          "internalType": "enum JobBoard.JobType",
          "name": "jobType",
          "type": "uint8"
        },
        {
          "internalType": "enum JobBoard.WorkMode",
          "name": "workMode",
          "type": "uint8"
        },
        {
          "internalType": "string",
          "name": "minimumSalary",
          "type": "string"
        },
        {
          "internalType": "string",
          "name": "maximumSalary",
          "type": "string"
        }
      ],
      "stateMutability": "view",
      "type": "function"
    },
    {
      "inputs": [],
      "name": "owner",
      "outputs": [
        {
          "internalType": "address",
          "name": "",
          "type": "address"
        }
      ],
      "stateMutability": "view",
      "type": "function"
    },
    {
      "inputs": [
        {
          "internalType": "string",
          "name": "orgName",
          "type": "string"
        },
        {
          "internalType": "string",
          "name": "title",
          "type": "string"
        },
        {
          "internalType": "string",
          "name": "description",
          "type": "string"
        },
        {
          "internalType": "string",
          "name": "orgEmail",
          "type": "string"
        },
        {
          "internalType": "string",
          "name": "logoCID",
          "type": "string"
        },
        {
          "internalType": "string[]",
          "name": "fieldName",
          "type": "string[]"
        },
        {
          "internalType": "bool[]",
          "name": "isRequired",
          "type": "bool[]"
        },
        {
          "internalType": "enum JobBoard.JobType",
          "name": "jobType",
          "type": "uint8"
        },
        {
          "internalType": "enum JobBoard.WorkMode",
          "name": "workMode",
          "type": "uint8"
        },
        {
          "internalType": "string",
          "name": "minimumSalary",
          "type": "string"
        },
        {
          "internalType": "string",
          "name": "maximumSalary",
          "type": "string"
        },
        {
          "internalType": "uint256",
          "name": "expirationDays",
          "type": "uint256"
        }
      ],
      "name": "postJob",
      "outputs": [
        {
          "internalType": "uint256",
          "name": "",
          "type": "uint256"
        }
      ],
      "stateMutability": "payable",
      "type": "function"
    },
    {
      "inputs": [],
      "name": "renounceOwnership",
      "outputs": [],
      "stateMutability": "nonpayable",
      "type": "function"
    },
    {
      "inputs": [
        {
          "internalType": "bytes32",
          "name": "role",
          "type": "bytes32"
        },
        {
          "internalType": "address",
          "name": "account",
          "type": "address"
        }
      ],
      "name": "renounceRole",
      "outputs": [],
      "stateMutability": "nonpayable",
      "type": "function"
    },
    {
      "inputs": [
        {
          "internalType": "bytes32",
          "name": "role",
          "type": "bytes32"
        },
        {
          "internalType": "address",
          "name": "account",
          "type": "address"
        }
      ],
      "name": "revokeRole",
      "outputs": [],
      "stateMutability": "nonpayable",
      "type": "function"
    },
    {
      "inputs": [],
      "name": "serviceFee",
      "outputs": [
        {
          "internalType": "uint256",
          "name": "",
          "type": "uint256"
        }
      ],
      "stateMutability": "view",
      "type": "function"
    },
    {
      "inputs": [
        {
          "internalType": "uint256",
          "name": "jobId",
          "type": "uint256"
        },
        {
          "internalType": "string",
          "name": "name",
          "type": "string"
        },
        {
          "internalType": "string",
          "name": "email",
          "type": "string"
        },
        {
          "internalType": "string",
          "name": "phoneNumber",
          "type": "string"
        },
        {
          "internalType": "string",
          "name": "location",
          "type": "string"
        },
        {
          "internalType": "string[]",
          "name": "fieldResponses",
          "type": "string[]"
        },
        {
          "internalType": "string",
          "name": "cvCID",
          "type": "string"
        },
        {
          "internalType": "string",
          "name": "portfolioLink",
          "type": "string"
        },
        {
          "internalType": "string",
          "name": "experience",
          "type": "string"
        },
        {
          "internalType": "string",
          "name": "expectedSalary",
          "type": "string"
        },
        {
          "internalType": "string",
          "name": "github",
          "type": "string"
        }
      ],
      "name": "submitApplication",
      "outputs": [],
      "stateMutability": "payable",
      "type": "function"
    },
    {
      "inputs": [
        {
          "internalType": "bytes4",
          "name": "interfaceId",
          "type": "bytes4"
        }
      ],
      "name": "supportsInterface",
      "outputs": [
        {
          "internalType": "bool",
          "name": "",
          "type": "bool"
        }
      ],
      "stateMutability": "view",
      "type": "function"
    },
    {
      "inputs": [
        {
          "internalType": "address",
          "name": "newOwner",
          "type": "address"
        }
      ],
      "name": "transferOwnership",
      "outputs": [],
      "stateMutability": "nonpayable",
      "type": "function"
    },
    {
      "inputs": [
        {
          "internalType": "uint256",
          "name": "jobId",
          "type": "uint256"
        },
        {
          "internalType": "address",
          "name": "applicant",
          "type": "address"
        },
        {
          "internalType": "enum JobBoard.ApplicationState",
          "name": "newState",
          "type": "uint8"
        }
      ],
      "name": "updateApplicationStatus",
      "outputs": [],
      "stateMutability": "nonpayable",
      "type": "function"
    },
    {
      "inputs": [
        {
          "internalType": "uint256",
          "name": "_newFee",
          "type": "uint256"
        }
      ],
      "name": "updateServiceFee",
      "outputs": [],
      "stateMutability": "nonpayable",
      "type": "function"
    },
    {
      "inputs": [],
      "name": "withdrawFunds",
      "outputs": [],
      "stateMutability": "nonpayable",
      "type": "function"
    }
  ],
  "bytecode": "0x60803461020157601f615f8738819003918201601f19168301916001600160401b0383118484101761020657808492602094604052833981010312610201575160008054336001600160a01b03198216811783556040519290916001600160a01b0316907f8be0079c531659141344cd1fd0a4f28419497f9722a3daafe3b4186f6b6457e09080a36001805581156101b45750600555336000908152600080516020615f67833981519152602052604090205460ff1615610152575b336000908152600080516020615f47833981519152602052604090205460ff16156100f0575b604051615d0a908161021d8239f35b336000818152600080516020615f4783398151915260205260408120805460ff1916600117905581907ffc7c36207174f786648d2e624616a4b40e15fd7f0268b4e36af5057f0c43c83590600080516020615f278339815191529080a46100e1565b336000818152600080516020615f6783398151915260205260408120805460ff1916600117905581907fa49807205ce4d355092ef5a8a18f56e8913cf4a201fbe287825b095693c2177590600080516020615f278339815191529080a46100bb565b62461bcd60e51b815260206004820152602260248201527f5365727669636520666565206d7573742062652067726561746572207468616e604482015261020360f41b6064820152608490fd5b600080fd5b634e487b7160e01b600052604160045260246000fdfe60e080604052600436101561001357600080fd5b60003560e01c90816301ffc9a714614ad35750806304f801a0146149e1578063094cd5d0146135075780630fb6bd37146132a357806315248bb714613036578063180aedf314612e9a5780631e01abca14612dd45780632426bb3814612dab57806324600fc314612d2c578063248a9ca314612cf75780632f2ff15d14612c3757806336568abe14612ba557806351de72d014612abf5780636358bb8c14612997578063715018a61461293e578063747143b91461280c57806375b238fc146127d15780638abdf5aa146127b35780638da5cb5b1461278a5780638e359a3a1461270857806391d14854146126bb578063965a79fb146124ef5780639b00214c1461232d578063a217fddf14612311578063aa98d301146122bf578063ae4b7c261461226c578063bc76136c14612120578063bf22c45714611f40578063cb877851146112eb578063d547741f146112a4578063dad788d91461127c578063e8978c44146102ba578063f2fde38b146101f35763fc736cde1461019557600080fd5b346101ee5760403660031901126101ee576101ae614eb7565b6001600160a01b03166000908152600860205260409020805460243591908210156101ee576020916101df9161521a565b90549060031b1c604051908152f35b600080fd5b346101ee5760203660031901126101ee5761020c614eb7565b6102146158e2565b6001600160a01b0316801561026657600080546001600160a01b03198116831782556001600160a01b0316907f8be0079c531659141344cd1fd0a4f28419497f9722a3daafe3b4186f6b6457e09080a3005b60405162461bcd60e51b815260206004820152602660248201527f4f776e61626c653a206e6577206f776e657220697320746865207a65726f206160448201526564647265737360d01b6064820152608490fd5b6101803660031901126101ee576004356001600160401b0381116101ee576102e6903690600401614b99565b6024356001600160401b0381116101ee57610305903690600401614b99565b906044356001600160401b0381116101ee57610325903690600401614b99565b906064356001600160401b0381116101ee57610345903690600401614b99565b916084356001600160401b0381116101ee57610365903690600401614b99565b9360a4356001600160401b0381116101ee57610385903690600401614bf7565b9160c4356001600160401b0381116101ee576103a59036906004016151b3565b93600560e43510156101ee5760036101043510156101ee57610124356001600160401b0381116101ee576103dd903690600401614b99565b610144356001600160401b0381116101ee576103fd903690600401614b99565b92610164359361040b61588c565b3233148015611256575b156112115760055434106111d8578415611184576104358451151561568b565b610441865115156156e1565b61044d82511515615725565b6104598a511515615771565b336000908152600080516020615cb5833981519152602052604090205460ff161561117d5732925b61048b88516157b4565b9960005b89518110156104e557806104de818e8e6104b78f966104b081600199615264565b5192615264565b511515604051916104c783614b42565b825260208201526104d88383615264565b52615264565b500161048f565b508b8b6001600354019889600355623b538042014211610ede576201518081029081046201518003610ede57420192834211610ede576040519661052888614b26565b8a885260018060a01b03891660208901528960408901528b6060890152608088015260a087015260c086015260e08501526001610100850152600061012085015242610140850152623b5380420161016085015261018084015260006101a084015261059a60e4356101c085016152c4565b6105ab610104356101e085016152d0565b61020083015261022082015260008481526006602090815260409182902083518155908301516001820180546001600160a01b0319166001600160a01b0392909216919091179055908201518051906001600160401b038211610b1b576106156002840154614ecd565b601f8111611148575b50602090601f83116001146110d757610650929160009183611026575b50508160011b916000199060031b1c19161790565b60028201555b60608201518051906001600160401b038211610b1b576106796003840154614ecd565b601f81116110a2575b50602090601f8311600114611031576106b39291600091836110265750508160011b916000199060031b1c19161790565b60038201555b6004810160808301518051906001600160401b038211610b1b576106dd8354614ecd565b601f8111610ff4575b50602090601f8311600114610f8d57610717929160009183610ca15750508160011b916000199060031b1c19161790565b90555b6005810160a08301518051906001600160401b038211610b1b5761073e8354614ecd565b601f8111610f5b575b50602090601f8311600114610ef457610778929160009183610ca15750508160011b916000199060031b1c19161790565b90555b6006810160c0830151805190600160401b8211610b1b578254828455808310610e82575b506020019160005260206000206000925b828410610d4557505050506007810160e08301518051906001600160401b038211610b1b576107df8354614ecd565b601f8111610d13575b50602090601f8311600114610cac57610819929160009183610ca15750508160011b916000199060031b1c19161790565b90555b6008810161083d6101008401511515829060ff801983541691151516179055565b610120830151151561ff0082549160081b169061ff0019161790556101408201516009820155610160820151600a820155610180820151600b820155600c810161089a6101a08401511515829060ff801983541691151516179055565b6101c08301516005811015610c8b576108b39082615342565b6101e08301516003811015610c8b576108cb91615812565b600d81016102008301518051906001600160401b038211610b1b576108f08354614ecd565b601f8111610c59575b50602090601f8311600114610beb57826102209593600e959361093293600092610be05750508160011b916000199060031b1c19161790565b90555b019101518051906001600160401b038211610b1b576109548354614ecd565b601f8111610ba3575b50602090601f8311600114610b3c5761098e929160009183610b315750508160011b916000199060031b1c19161790565b90555b6001600160a01b038116600090815260086020526040902080549190600160401b831015610b1b57602095610a6f7f752f79388b35d90d4202940ffb0c752f318a347800decc9e4c322e2cec1b404a936109f586610a579560018b9901815561521a565b815460001960039290921b91821b19169088901b179055600080516020615c95833981519152600090815260028a5260408082206001600160a01b03841683528b5290205460ff1615610a7e575b604051938493604085526040850190614c98565b8381038a8501526001600160a01b0390911696614c98565b0390a360018055604051908152f35b600080516020615c95833981519152600090815260028a5260408082206001600160a01b03841683528b5290205460ff16610a4357600080516020615c95833981519152600081815260028b5260408082206001600160a01b038516808452908d52908220805460ff19166001179055339290917f2f8788117e7eff1d82e926ec794901d17c78024a50270940304540a733656f0d9080a4610a43565b634e487b7160e01b600052604160045260246000fd5b01519050888061063b565b90601f1983169184600052816000209260005b818110610b8b5750908460019594939210610b72575b505050811b019055610991565b015160001960f88460031b161c19169055878080610b65565b92936020600181928786015181550195019301610b4f565b610bd090846000526020600020601f850160051c81019160208610610bd6575b601f0160051c01906152dc565b8761095d565b9091508190610bc3565b015190508c8061063b565b90601f1983169184600052816000209260005b818110610c4157509260019285926102209896600e989610610c28575b505050811b019055610935565b015160001960f88460031b161c191690558b8080610c1b565b92936020600181928786015181550195019301610bfe565b610c8590846000526020600020601f850160051c81019160208610610bd657601f0160051c01906152dc565b896108f9565b634e487b7160e01b600052602160045260246000fd5b015190508a8061063b565b90601f1983169184600052816000209260005b818110610cfb5750908460019594939210610ce2575b505050811b01905561081c565b015160001960f88460031b161c19169055898080610cd5565b92936020600181928786015181550195019301610cbf565b610d3f90846000526020600020601f850160051c81019160208610610bd657601f0160051c01906152dc565b896107e8565b805180518051906001600160401b038211610b1b57610d648554614ecd565b601f8111610e50575b50602090601f8311600114610ddd576020600294610dab85839660019996610dc696600092610dd25750508160011b916000199060031b1c19161790565b88555b015115158587019060ff801983541691151516179055565b019201930192906107b0565b01519050388061063b565b90601f1983169186600052816000209260005b818110610e38575094600185819895610dc69560209895899660029b10610e1f575b505050811b018855610dae565b015160001960f88460031b161c19169055388080610e12565b92936020600181928786015181550195019301610df0565b610e7c90866000526020600020601f850160051c81019160208610610bd657601f0160051c01906152dc565b8d610d6d565b6001600160ff1b0381168103610ede576001600160ff1b0383168303610ede578360005260206000209060011b8101908360011b015b818110610ec5575061079f565b80610ed16002926152f3565b6000600182015501610eb8565b634e487b7160e01b600052601160045260246000fd5b90601f1983169184600052816000209260005b818110610f435750908460019594939210610f2a575b505050811b01905561077b565b015160001960f88460031b161c19169055898080610f1d565b92936020600181928786015181550195019301610f07565b610f8790846000526020600020601f850160051c81019160208610610bd657601f0160051c01906152dc565b89610747565b90601f1983169184600052816000209260005b818110610fdc5750908460019594939210610fc3575b505050811b01905561071a565b015160001960f88460031b161c19169055898080610fb6565b92936020600181928786015181550195019301610fa0565b61102090846000526020600020601f850160051c81019160208610610bd657601f0160051c01906152dc565b896106e6565b01519050898061063b565b91906003840160005280600020906000935b601f1984168510611087576001945083601f1981161061106e575b505050811b0160038201556106b9565b015160001960f88460031b161c1916905588808061105e565b81810151835560209485019460019093019290910190611043565b6110d190600385016000526020600020601f850160051c81019160208610610bd657601f0160051c01906152dc565b88610682565b91906002840160005280600020906000935b601f198416851061112d576001945083601f19811610611114575b505050811b016002820155610656565b015160001960f88460031b161c19169055888080611104565b818101518355602094850194600190930192909101906110e9565b61117790600285016000526020600020601f850160051c81019160208610610bd657601f0160051c01906152dc565b8861061e565b3392610481565b60405162461bcd60e51b815260206004820152602660248201527f45787069726174696f6e2064617973206d75737420626520677265617465722060448201526507468616e20360d41b6064820152608490fd5b60405162461bcd60e51b8152602060048201526011602482015270125b9cdd59999a58da595b9d08199d5b99607a1b6044820152606490fd5b60405162461bcd60e51b815260206004820152601860248201527f556e617574686f72697a656420746f20706f7374206a6f6200000000000000006044820152606490fd5b50336000908152600080516020615cb5833981519152602052604090205460ff16610415565b346101ee5760203660031901126101ee57602061129a600435615833565b6040519015158152f35b346101ee5760403660031901126101ee576112e96004356112c3614ea1565b906112e46112df82600052600260205260016040600020015490565b61593a565b615bdd565b005b346101ee576101a03660031901126101ee576004356024356001600160401b0381116101ee5761131f903690600401614b99565b6044356001600160401b0381116101ee5761133e903690600401614b99565b916064356001600160401b0381116101ee5761135e903690600401614b99565b906084356001600160401b0381116101ee5761137e903690600401614b99565b60a4356001600160401b0381116101ee5761139d903690600401614b99565b9060c4356001600160401b0381116101ee576113bd903690600401614bf7565b9260e4356001600160401b0381116101ee576113dd9036906004016151b3565b946101043580151581036101ee57610124359060058210156101ee57610144359260038410156101ee57610164356001600160401b0381116101ee57611427903690600401614b99565b96610184356001600160401b0381116101ee57611448903690600401614b99565b9661145161588c565b86600052600660205260018060a01b036001604060002001541633148015611f1a575b15611ed55786600052600660205260ff60086040600020015460081c16611e99576114a18c51151561568b565b6114ad8d5115156156e1565b6114b983511515615725565b6114c582511515615771565b623b5380420192834211610ede5742841115611e5d576114e58b516157b4565b9d60005b8c51811015611513578f9061150c8f8f9383916104b7836104b081600199615264565b50016114e9565b50908e9392918e8a60005260066020526002604060002001908051906001600160401b038211610b1b576115478354614ecd565b601f8111611e2b575b50602090601f8311600114611dc457611581929160009183610dd25750508160011b916000199060031b1c19161790565b90555b8960005260066020526003604060002001908051906001600160401b038211610b1b576115b18354614ecd565b601f8111611d92575b50602090601f8311600114611d2b576115eb929160009183611d205750508160011b916000199060031b1c19161790565b90555b8860005260066020526004604060002001908051906001600160401b038211610b1b5761161b8354614ecd565b601f8111611cee575b50602090601f8311600114611c8757611655929160009183611c7c5750508160011b916000199060031b1c19161790565b90555b8760005260066020526005604060002001908051906001600160401b038211610b1b576116858354614ecd565b601f8111611c4a575b50602090601f8311600114611be3576116bf929160009183611bd85750508160011b916000199060031b1c19161790565b90555b8660005260066020526007604060002001908051906001600160401b038211610b1b576116ef8354614ecd565b601f8111611ba6575b50602090601f8311600114611b3f57611729929160009183610be05750508160011b916000199060031b1c19161790565b90555b856000526006602052600660406000200190805190600160401b8211610b1b578254828455808310611ae3575b506020019160005260206000206000925b8284106119e6575050506000868152600660205260409020600a8101929092555060088101805492151560ff1660ff19909316929092179091556117cb92916117b591600c01615342565b826000526006602052600c604060002001615812565b806000526006602052600d60406000200183516001600160401b038111610b1b576117f68254614ecd565b601f81116119b4575b50602094601f821160011461194f576118339293949582916000926119445750508160011b916000199060031b1c19161790565b90555b6000526006602052600e60406000200181516001600160401b038111610b1b576118608254614ecd565b601f8111611912575b50602092601f82116001146118af5761189b929382916000926118a45750508160011b916000199060031b1c19161790565b90555b60018055005b01519050848061063b565b601f1982169383600052806000209160005b8681106118fa57508360019596106118e1575b505050811b01905561189e565b015160001960f88460031b161c191690558380806118d4565b919260206001819286850151815501940192016118c1565b61193e90836000526020600020601f840160051c81019160208510610bd657601f0160051c01906152dc565b83611869565b01519050868061063b565b601f1982169583600052806000209160005b88811061199c57508360019596979810611983575b505050811b019055611836565b015160001960f88460031b161c19169055858080611976565b91926020600181928685015181550194019201611961565b6119e090836000526020600020601f840160051c81019160208510610bd657601f0160051c01906152dc565b856117ff565b805180518051906001600160401b038211610b1b57611a058554614ecd565b601f8111611ab1575b50602090601f8311600114611a58576020600294610dab85839660019996611a4c96600092610dd25750508160011b916000199060031b1c19161790565b0192019301929061176a565b90601f1983169186600052816000209260005b818110611a99575094600185819895611a4c9560209895899660029b10610e1f57505050811b018855610dae565b92936020600181928786015181550195019301611a6b565b611add90866000526020600020601f850160051c81019160208610610bd657601f0160051c01906152dc565b8e611a0e565b6001600160ff1b0381168103610ede576001600160ff1b0383168303610ede578360005260206000209060011b8101908360011b015b818110611b265750611759565b80611b326002926152f3565b6000600182015501611b19565b90601f1983169184600052816000209260005b818110611b8e5750908460019594939210611b75575b505050811b01905561172c565b015160001960f88460031b161c191690558b8080611b68565b92936020600181928786015181550195019301611b52565b611bd290846000526020600020601f850160051c81019160208610610bd657601f0160051c01906152dc565b8b6116f8565b015190508d8061063b565b90601f1983169184600052816000209260005b818110611c325750908460019594939210611c19575b505050811b0190556116c2565b015160001960f88460031b161c191690558c8080611c0c565b92936020600181928786015181550195019301611bf6565b611c7690846000526020600020601f850160051c81019160208610610bd657601f0160051c01906152dc565b8c61168e565b015190508e8061063b565b90601f1983169184600052816000209260005b818110611cd65750908460019594939210611cbd575b505050811b019055611658565b015160001960f88460031b161c191690558d8080611cb0565b92936020600181928786015181550195019301611c9a565b611d1a90846000526020600020601f850160051c81019160208610610bd657601f0160051c01906152dc565b8d611624565b015190508f8061063b565b90601f1983169184600052816000209260005b818110611d7a5750908460019594939210611d61575b505050811b0190556115ee565b015160001960f88460031b161c191690558e8080611d54565b92936020600181928786015181550195019301611d3e565b611dbe90846000526020600020601f850160051c81019160208610610bd657601f0160051c01906152dc565b8e6115ba565b90601f1983169184600052816000209260005b818110611e135750908460019594939210611dfa575b505050811b019055611584565b015160001960f88460031b161c191690558f8080611ded565b92936020600181928786015181550195019301611dd7565b611e5790846000526020600020601f850160051c81019160208610610bd657601f0160051c01906152dc565b8f611550565b60405162461bcd60e51b815260206004820152601460248201527324b73b30b634b2103537b110323ab930ba34b7b760611b6044820152606490fd5b60405162461bcd60e51b8152602060048201526014602482015273129bd8881a185cc81899595b8819195b195d195960621b6044820152606490fd5b60405162461bcd60e51b815260206004820152601860248201527f556e617574686f72697a656420746f2065646974206a6f6200000000000000006044820152606490fd5b50336000908152600080516020615cb5833981519152602052604090205460ff16611474565b346101ee5760203660031901126101ee57600435611f5c6155af565b50611f6f611f6982615833565b15615278565b60005260066020526040600020604051611f8881614b26565b8154815260018201546001600160a01b03166020820152611fab60028301614f07565b6040820152611fbc60038301614f07565b6060820152611fcd60048301614f07565b6080820152611fde60058301614f07565b60a0820152600682018054611ff281614be0565b916120006040519384614b5d565b818352602083019060005260206000206000915b8383106120e7576120e3866120c9600e8a8960c085015261203760078201614f07565b60e085015260ff6008820154818116151561010087015260081c1615156101208501526009810154610140850152600a810154610160850152600b8101546101808501526120b160ff600c83015481811615156101a08801526120a3828260081c166101c089016152c4565b60101c166101e086016152d0565b6120bd600d8201614f07565b61020085015201614f07565b610220820152604051918291602083526020830190614fab565b0390f35b600260206001926040516120fa81614b42565b61210386614f07565b815260ff8587015416151583820152815201920192019190612014565b346101ee5760203660031901126101ee57336000908152600080516020615cb583398151915260205260409020546004359060ff168015612246575b156122015780600052600660205260ff60086040600020015460081c166121c657600081815260066020526040812042600b820155600101546001600160a01b031691907f2ff4b096ccebd1944c1681b8f847b6588aa34a90308ec467bb927e10c01921519080a3005b60405162461bcd60e51b8152602060048201526013602482015272129bd888185b1c9958591e4819195b195d1959606a1b6044820152606490fd5b60405162461bcd60e51b815260206004820152601c60248201527f4e6f7420617574686f72697a656420746f20657870697265206a6f62000000006044820152606490fd5b50336000908152600080516020615c75833981519152602052604090205460ff1661215c565b346101ee5760203660031901126101ee577e3b413cf14a67407425bd0b5c065b2de08876554d8489ad7dd4aa95604d280c60406004356122aa6158e2565b600554908060055582519182526020820152a1005b346101ee5760403660031901126101ee576122d8614ea1565b600435600052600960205260406000209060018060a01b0316600052602052602060ff6040600020541661230f6040518092614cd7565bf35b346101ee5760003660031901126101ee57602060405160008152f35b346101ee5760003660031901126101ee5733600052600860205260406000206040518082602082945493848152019060005260206000209260005b8181106124d657505061237d92500382614b5d565b612387815161563b565b9060005b81518110156124c85761239e8183615264565b5160005260066020526040600020604051906123b982614b26565b8054825260018101546001600160a01b031660208301526123dc60028201614f07565b60408301526123ed60038201614f07565b60608301526123fe60048201614f07565b608083015261240f60058201614f07565b60a083015260068101805461242381614be0565b916124316040519384614b5d565b81835260208301906000526020600020906000905b83821061248f5750505050600e839261246d9260c060019796015261203760078201614f07565b61022082015261247d8286615264565b526124888185615264565b500161238b565b600260206001926040516124a281614b42565b6124ab87614f07565b815260ff8588015416151583820152815201930191019091612446565b604051806120e38582615153565b8454835260019485019486945060209093019201612368565b346101ee5760003660031901126101ee57600354600060015b82811115612689575061251a9061563b565b60009160015b8181111561253657604051806120e38582615153565b61253f81615833565b15612553575b61254e906155a0565b612520565b9283600052600660205260406000206040519061256f82614b26565b8054825260018101546001600160a01b0316602083015261259260028201614f07565b60408301526125a360038201614f07565b60608301526125b460048201614f07565b60808301526125c560058201614f07565b60a08301526006810180546125d981614be0565b916125e76040519384614b5d565b81835260208301906000526020600020906000905b838210612650575050505091612627600e61254e95936126489560c085015261203760078201614f07565b6102208201526126378287615264565b526126428186615264565b506155a0565b939050612545565b6002602060019260405161266381614b42565b61266c87614f07565b815260ff85880154161515838201528152019301910190916125fc565b61269281615833565b156126a6575b6126a1906155a0565b612508565b906126b36126a1916155a0565b919050612698565b346101ee5760403660031901126101ee576126d4614ea1565b600435600052600260205260406000209060018060a01b0316600052602052602060ff604060002054166040519015158152f35b346101ee5760203660031901126101ee57336000908152600080516020615cb5833981519152602052604090205460ff168015612764575b61274990615548565b60043560005260076020526020604060002054604051908152f35b50336000908152600080516020615c75833981519152602052604090205460ff16612740565b346101ee5760003660031901126101ee576000546040516001600160a01b039091168152602090f35b346101ee5760003660031901126101ee576020600554604051908152f35b346101ee5760003660031901126101ee5760206040517fa49807205ce4d355092ef5a8a18f56e8913cf4a201fbe287825b095693c217758152f35b346101ee5760203660031901126101ee57336000908152600080516020615cb5833981519152602052604090205460ff168015612918575b61284d90615548565b6004356000526007602052604060002080549061286982614be0565b916128776040519384614b5d565b80835260208301809260005260206000206000915b8383106128fa57848660405191829160208301906020845251809152604083019060408160051b85010192916000905b8282106128cb57505050500390f35b919360019193955060206128ea8192603f198a82030186528851614ce4565b96019201920185949391926128bc565b6011602060019261290a85615379565b81520192019201919061288c565b50336000908152600080516020615c75833981519152602052604090205460ff16612844565b346101ee5760003660031901126101ee576129576158e2565b600080546001600160a01b0319811682556001600160a01b03167f8be0079c531659141344cd1fd0a4f28419497f9722a3daafe3b4186f6b6457e08280a3005b346101ee5760203660031901126101ee5760043580600052600660205260018060a01b036001604060002001541633148015612a99575b15612a545780600052600660205260ff60086040600020015460081c16612a0f576000908152600660205260409020600801805461ff001916610100179055005b60405162461bcd60e51b815260206004820152601c60248201527f4a6f622068617320616c7265616479206265656e2064656c65746564000000006044820152606490fd5b60405162461bcd60e51b815260206004820152601a60248201527f556e617574686f72697a656420746f2064656c657465206a6f620000000000006044820152606490fd5b50336000908152600080516020615cb5833981519152602052604090205460ff166129ce565b346101ee5760203660031901126101ee5760043580151580612b99575b612ae59061550b565b806000526006602052600b60406000200154421180612b7a575b80612b5e575b612b0b57005b6000818152600660205260408120600c8101805460ff1916600190811790915501546001600160a01b031691907f2ff4b096ccebd1944c1681b8f847b6588aa34a90308ec467bb927e10c01921519080a3005b5080600052600660205260ff600c604060002001541615612b05565b5080600052600660205260ff60086040600020015460081c1615612aff565b50600354811115612adc565b346101ee5760403660031901126101ee57612bbe614ea1565b336001600160a01b03821603612bda576112e990600435615bdd565b60405162461bcd60e51b815260206004820152602f60248201527f416363657373436f6e74726f6c3a2063616e206f6e6c792072656e6f756e636560448201526e103937b632b9903337b91039b2b63360891b6064820152608490fd5b346101ee5760403660031901126101ee57600435612c53614ea1565b90612c6f6112df82600052600260205260016040600020015490565b806000526002602052604060002060018060a01b03831660005260205260ff6040600020541615612c9c57005b60008181526002602090815260408083206001600160a01b0395909516808452949091528120805460ff19166001179055339291907f2f8788117e7eff1d82e926ec794901d17c78024a50270940304540a733656f0d9080a4005b346101ee5760203660031901126101ee576020612d24600435600052600260205260016040600020015490565b604051908152f35b346101ee5760003660031901126101ee57612d456158e2565b478015612d715760008080809360018060a01b0382541682f115612d6557005b6040513d6000823e3d90fd5b60405162461bcd60e51b8152602060048201526012602482015271496e73756666696369656e742066756e647360701b6044820152606490fd5b346101ee5760003660031901126101ee576020604051600080516020615c958339815191528152f35b346101ee5760203660031901126101ee57336000908152600080516020615cb5833981519152602052604090205460ff168015612e74575b15612e2f576004356000908152600660205260409020600801805460ff19169055005b60405162461bcd60e51b815260206004820152601b60248201527f4e6f7420617574686f72697a656420746f20636c6f7365206a6f6200000000006044820152606490fd5b50336000908152600080516020615c75833981519152602052604090205460ff16612e0c565b346101ee5760203660031901126101ee576004356000908152600660205260409020805460018201546001600160a01b031691612ed960028201614f07565b90612ee660038201614f07565b612ef260048301614f07565b90612eff60058401614f07565b91612f0c60078501614f07565b92600885015493600986015490600a87015492600b88015494600c89015496600d8a01612f3890614f07565b99600e01612f4590614f07565b9a6040519d8e809e81526020015260408d0161022090526102208d01612f6a91614c98565b8c810360608e0152612f7b91614c98565b8b810360808d0152612f8c91614c98565b8a810360a08c0152612f9d91614c98565b89810360c08b0152612fae91614c98565b9460ff8116151560e08a015260081c60ff16151561010089015261012088015261014087015261016086015260ff811615156101808601526101a085018160081c60ff1690612ffc91614cca565b6101c085019060101c60ff169061301291614cbd565b8381036101e085015261302491614c98565b8281036102008401526120e391614c98565b346101ee5760603660031901126101ee57600435613052614ea1565b6044359160048310156101ee57806000526006602052604060002054151580613284575b1561325157336000908152600080516020615cb5833981519152602052604090205460ff16801561322b575b156131d2576001600160a01b039091169060009083825b8260005260076020526040600020548110156131c857826000526007602052846130e7826040600020615248565b50600101546001600160a01b031614613102576001016130b9565b8293509061316c8160106131656020957f89e7b1b4fee8533190061d8f8762af542452e09f527602fc2272cb6abe5d908e97600052600987526131538460408c8160002060009182528b5220615361565b88600052600787526040600020615248565b5001615361565b6131796040518092614cd7565ba360015b1561318457005b606460405162461bcd60e51b815260206004820152602060248201527f4170706c6963616e74206e6f7420666f756e6420666f722074686973206a6f626044820152fd5b505050905061317d565b60405162461bcd60e51b815260206004820152602b60248201527f4e6f7420617574686f72697a656420746f20757064617465206170706c69636160448201526a74696f6e2073746174757360a81b6064820152608490fd5b50336000908152600080516020615c75833981519152602052604090205460ff166130a2565b60405162461bcd60e51b815260206004820152600b60248201526a24b73b30b634b2103537b160a91b6044820152606490fd5b5080600052600660205260ff60086040600020015460081c1615613076565b346101ee5760403660031901126101ee5760043560243560006102206040516132cb81614b26565b8281528260208201526060604082015260608082015260606080820152606060a0820152606060c0820152606060e0820152606061010082015260606101208201526060610140820152606061016082015282610180820152826101a082015260606101c082015260606101e08201528261020082015201527fa49807205ce4d355092ef5a8a18f56e8913cf4a201fbe287825b095693c217756000526002602052604060002060018060a01b03331660005260205260ff6040600020541680156134e1575b1561349d5781600052600660205260406000205415158061347e575b15613444578160005260076020526040600020548110156133ff576133e56133eb916120e39360005260076020526040600020615248565b50615379565b604051918291602083526020830190614ce4565b60405162461bcd60e51b815260206004820152601760248201527f496e76616c6964206170706c6963616e7420696e6465780000000000000000006044820152606490fd5b60405162461bcd60e51b8152602060048201526012602482015271129bd888191bd95cc81b9bdd08195e1a5cdd60721b6044820152606490fd5b5081600052600660205260ff60086040600020015460081c16156133ad565b606460405162461bcd60e51b815260206004820152602060248201527f4e6f7420617574686f72697a656420746f2076696577206170706c6963616e746044820152fd5b50336000908152600080516020615c75833981519152602052604090205460ff16613391565b6101603660031901126101ee576024356001600160401b0381116101ee57613533903690600401614b99565b6080526044356001600160401b0381116101ee57613555903690600401614b99565b60c0526064356001600160401b0381116101ee57613577903690600401614b99565b6084356001600160401b0381116101ee57613596903690600401614b99565b60a4356001600160401b0381116101ee576135b5903690600401614bf7565b9060c4356001600160401b0381116101ee576135d5903690600401614b99565b9060e4356001600160401b0381116101ee576135f5903690600401614b99565b93610104356001600160401b0381116101ee57613616903690600401614b99565b610124356001600160401b0381116101ee57613636903690600401614b99565b92610144356001600160401b0381116101ee57613657903690600401614b99565b9361366061588c565b61366e611f69600435615833565b600435600052600660205260ff600860406000200154161561498c5760805151156149505760c0515115614913578551156148dd576004356000526006602052604060002090604051956136c187614b26565b8254875260018301546001600160a01b031660208801526136e460028401614f07565b60408801526136f560038401614f07565b606088015261370660048401614f07565b608088015261371760058401614f07565b60a088015260068301805461372b81614be0565b916137396040519384614b5d565b818352602083019060005260206000206000915b8383106148a4575050505060c088015261376960078401614f07565b60e088015260ff600884015481811615156101008a015260081c1615156101208801526009830154610140880152600a830154610160880152600b830154610180880152600c8301549160ff831615156101a08901526137e760ff6101c08a01946137d9828260081c16876152c4565b60101c166101e08a016152d0565b613807600e6137f8600d8701614f07565b956102008b0196875201614f07565b9561022089019687528a5160c08a015151036148555760005b60c08a0151805182101561389f5761383a82602092615264565b51015161384a575b600101613820565b613854818d615264565b51516138425760405162461bcd60e51b815260206004820152601e60248201527f5265717569726564206669656c642063616e6e6f7420626520656d70747900006044820152606490fd5b50508b8b969798999a6004356000526009602052604060002060018060a01b03331660005260205260ff604060002054166004811015610c8b57614804576001600454016004556101e08c0151956003871015610c8b5751976005891015610c8b576139949961398898519b519c60405160a05261391e60a051614b26565b60043560a0515233602060a0510152608051604060a051015260c051606060a0510152608060a051015260a08051015260c060a051015260e060a051015261010060a051015261012060a051015261014060a051015261016060a051015261018060a051016152d0565b6101a060a051016152c4565b6101c060a05101526101e060a05101524261020060a0510152600061022060a0510152600435600052600760205260406000208054600160401b811015610b1b576139e491600182018155615248565b6147ee5760a0518051825560208101516001830180546001600160a01b0319166001600160a01b03929092169190911790556040015180519092906001600160401b038111610b1b57613a3a6002840154614ecd565b601f81116147b9575b506020601f821160011461474c578190613a7593949560009261469f5750508160011b916000199060031b1c19161790565b60028301555b606060a05101519182516001600160401b038111610b1b57613aa06003830154614ecd565b601f8111614717575b506020601f82116001146146aa578190613adb93949560009261469f5750508160011b916000199060031b1c19161790565b60038201555b6004810191608060a05101519283516001600160401b038111610b1b57613b088254614ecd565b601f811161466d575b50602094601f821160011461460857613b459293949582916000926119445750508160011b916000199060031b1c19161790565b90555b600582019160a0805101519283516001600160401b038111610b1b57613b6e8254614ecd565b601f81116145d6575b50602094601f821160011461457157613bab9293949582916000926119445750508160011b916000199060031b1c19161790565b90555b6006810160c060a0510151805190600160401b8211610b1b578254828455808310614542575b50602001916000526020600020916000905b828210614435578585600781019160e060a05101519283516001600160401b038111610b1b57613c168254614ecd565b601f8111614403575b50602094601f821160011461439e57613c539293949582916000926119445750508160011b916000199060031b1c19161790565b90555b600882019161010060a05101519283516001600160401b038111610b1b57613c7e8254614ecd565b601f811161436c575b50602094601f821160011461430757613cbb9293949582916000926119445750508160011b916000199060031b1c19161790565b90555b600981019161012060a05101519283516001600160401b038111610b1b57613ce68254614ecd565b601f81116142d5575b50602094601f821160011461427057613d239293949582916000926119445750508160011b916000199060031b1c19161790565b90555b600a82019161014060a05101519283516001600160401b038111610b1b57613d4e8254614ecd565b601f811161423e575b50602094601f82116001146141d957613d8b9293949582916000926119445750508160011b916000199060031b1c19161790565b90555b600b81019161016060a05101519283516001600160401b038111610b1b57613db68254614ecd565b601f81116141a7575b50602094601f821160011461414257613df39293949582916000926119445750508160011b916000199060031b1c19161790565b90555b60a051610180015191600c81016003841015610c8b5760009360ff801983541691161781556101a060a051015190600582101561412e5790613e3791615342565b600d81016101c060a05101518051906001600160401b03821161408757613e5e8354614ecd565b601f81116140fe575b50602090601f831160011461409b57613e979291879183613fe95750508160011b916000199060031b1c19161790565b90555b600e81016101e060a05101518051906001600160401b03821161408757613ec18354614ecd565b601f8111614057575b50602090601f8311600114613ff457613efa9291879183613fe95750508160011b916000199060031b1c19161790565b90555b60a051610200810151600f8301556102200151906004821015613fd5576101e092916010613f2b9201615361565b60043583526009602090815260408085203386529091528320805460ff1916905501516003811015613fc1576040519060608252613f7c613f7160608401608051614c98565b916020840190614cbd565b81810360408301527fd86c4c5a378fb74722b2dca99901010c59ab06d49da30c9927514b870adfa7bd339280613fb76004359460c051614c98565b0390a36001805580f35b634e487b7160e01b82526021600452602482fd5b634e487b7160e01b84526021600452602484fd5b01519050878061063b565b8387528187209190601f198416885b81811061403f5750908460019594939210614026575b505050811b019055613efd565b015160001960f88460031b161c19169055868080614019565b92936020600181928786015181550195019301614003565b6140819084885260208820601f850160051c81019160208610610bd657601f0160051c01906152dc565b86613eca565b634e487b7160e01b86526041600452602486fd5b8387528187209190601f198416885b8181106140e657509084600195949392106140cd575b505050811b019055613e9a565b015160001960f88460031b161c191690558680806140c0565b929360206001819287860151815501950193016140aa565b6141289084885260208820601f850160051c81019160208610610bd657601f0160051c01906152dc565b86613e67565b634e487b7160e01b85526021600452602485fd5b601f1982169583600052806000209160005b88811061418f57508360019596979810614176575b505050811b019055613df6565b015160001960f88460031b161c19169055858080614169565b91926020600181928685015181550194019201614154565b6141d390836000526020600020601f840160051c81019160208510610bd657601f0160051c01906152dc565b85613dbf565b601f1982169583600052806000209160005b8881106142265750836001959697981061420d575b505050811b019055613d8e565b015160001960f88460031b161c19169055858080614200565b919260206001819286850151815501940192016141eb565b61426a90836000526020600020601f840160051c81019160208510610bd657601f0160051c01906152dc565b85613d57565b601f1982169583600052806000209160005b8881106142bd575083600195969798106142a4575b505050811b019055613d26565b015160001960f88460031b161c19169055858080614297565b91926020600181928685015181550194019201614282565b61430190836000526020600020601f840160051c81019160208510610bd657601f0160051c01906152dc565b85613cef565b601f1982169583600052806000209160005b8881106143545750836001959697981061433b575b505050811b019055613cbe565b015160001960f88460031b161c1916905585808061432e565b91926020600181928685015181550194019201614319565b61439890836000526020600020601f840160051c81019160208510610bd657601f0160051c01906152dc565b85613c87565b601f1982169583600052806000209160005b8881106143eb575083600195969798106143d2575b505050811b019055613c56565b015160001960f88460031b161c191690558580806143c5565b919260206001819286850151815501940192016143b0565b61442f90836000526020600020601f840160051c81019160208510610bd657601f0160051c01906152dc565b85613c1f565b80518051906001600160401b038211610b1b576144528654614ecd565b601f8111614510575b50602090601f83116001146144a3579261449483600195946020948796600092610be05750508160011b916000199060031b1c19161790565b87555b01940191019092613be6565b90601f1983169187600052816000209260005b8181106144f857509360209360019693879693838895106144df575b505050811b018755614497565b015160001960f88460031b161c191690558b80806144d2565b929360206001819287860151815501950193016144b6565b61453c90876000526020600020601f850160051c81019160208610610bd657601f0160051c01906152dc565b8861445b565b8360005282602060002091820191015b81811061455f5750613bd4565b8061456b6001926152f3565b01614552565b601f1982169583600052806000209160005b8881106145be575083600195969798106145a5575b505050811b019055613bae565b015160001960f88460031b161c19169055858080614598565b91926020600181928685015181550194019201614583565b61460290836000526020600020601f840160051c81019160208510610bd657601f0160051c01906152dc565b85613b77565b601f1982169583600052806000209160005b8881106146555750836001959697981061463c575b505050811b019055613b48565b015160001960f88460031b161c1916905585808061462f565b9192602060018192868501518155019401920161461a565b61469990836000526020600020601f840160051c81019160208510610bd657601f0160051c01906152dc565b85613b11565b01519050858061063b565b60038301600052806000209060005b601f19841681106146ff5750600193949583601f198116106146e6575b505050811b016003820155613ae1565b015160001960f88460031b161c191690558480806146d6565b9091602060018192858a0151815501930191016146b9565b61474690600384016000526020600020601f840160051c81019160208510610bd657601f0160051c01906152dc565b84613aa9565b60028401600052806000209060005b601f19841681106147a15750600193949583601f19811610614788575b505050811b016002830155613a7b565b015160001960f88460031b161c19169055848080614778565b9091602060018192858a01518155019301910161475b565b6147e890600285016000526020600020601f840160051c81019160208510610bd657601f0160051c01906152dc565b84613a43565b634e487b7160e01b600052600060045260246000fd5b60405162461bcd60e51b8152602060048201526024808201527f596f75206861766520616c7265616479206170706c69656420746f2074686973604482015263103537b160e11b6064820152608490fd5b60405162461bcd60e51b815260206004820152602160248201527f496e636f6d706c65746520637573746f6d206669656c6420726573706f6e73656044820152607360f81b6064820152608490fd5b600260206001926040516148b781614b42565b6148c086614f07565b815260ff858701541615158382015281520192019201919061374d565b60405162461bcd60e51b815260206004820152600e60248201526d10d5881a5cc81c995c5d5a5c995960921b6044820152606490fd5b60405162461bcd60e51b8152602060048201526015602482015274456d61696c2063616e6e6f7420626520656d70747960581b6044820152606490fd5b60405162461bcd60e51b81526020600482015260146024820152734e616d652063616e6e6f7420626520656d70747960601b6044820152606490fd5b60405162461bcd60e51b815260206004820152602760248201527f4a6f62206973206e6f206c6f6e67657220616363657074696e67206170706c69604482015266636174696f6e7360c81b6064820152608490fd5b346101ee5760203660031901126101ee5760043580600052600760205260406000205490614a27614a1183614be0565b92614a1f6040519485614b5d565b808452614be0565b602083019190601f190136833760005b816000526007602052604060002054811015614a8457600190826000526007602052614a67816040600020615248565b5082808060a01b0391015416614a7d8287615264565b5201614a37565b5050906040519182916020830190602084525180915260408301919060005b818110614ab1575050500390f35b82516001600160a01b0316845285945060209384019390920191600101614aa3565b346101ee5760203660031901126101ee576004359063ffffffff60e01b82168092036101ee57602091637965db0b60e01b8114908115614b15575b5015158152f35b6301ffc9a760e01b14905083614b0e565b61024081019081106001600160401b03821117610b1b57604052565b604081019081106001600160401b03821117610b1b57604052565b90601f801991011681019081106001600160401b03821117610b1b57604052565b6001600160401b038111610b1b57601f01601f191660200190565b81601f820112156101ee57803590614bb082614b7e565b92614bbe6040519485614b5d565b828452602083830101116101ee57816000926020809301838601378301015290565b6001600160401b038111610b1b5760051b60200190565b9080601f830112156101ee578135614c0e81614be0565b92614c1c6040519485614b5d565b81845260208085019260051b820101918383116101ee5760208201905b838210614c4857505050505090565b81356001600160401b0381116101ee57602091614c6a87848094880101614b99565b815201910190614c39565b60005b838110614c885750506000910152565b8181015183820152602001614c78565b90602091614cb181518092818552858086019101614c75565b601f01601f1916010190565b906003821015610c8b5752565b906005821015610c8b5752565b906004821015610c8b5752565b908151815260018060a01b036020830151166020820152614d55614d43614d31614d1f60408601516102406040870152610240860190614c98565b60608601518582036060870152614c98565b60808501518482036080860152614c98565b60a084015183820360a0850152614c98565b60c08301519082810360c0840152815180825260208201916020808360051b8301019401926000915b838310614e745750505050509061022080614e5a614e46614e0a614df6614de2614dce614dba614e719a60e08d01518b820360e08d0152614c98565b6101008c01518a82036101008c0152614c98565b6101208b01518982036101208b0152614c98565b6101408a01518882036101408a0152614c98565b610160890151878203610160890152614c98565b614e1e610180890151610180880190614cbd565b614e326101a08901516101a0880190614cca565b6101c08801518682036101c0880152614c98565b6101e08701518582036101e0870152614c98565b946102008101516102008501520151910190614cd7565b90565b9091929394602080614e92600193601f198682030187528951614c98565b97019301930191939290614d7e565b602435906001600160a01b03821682036101ee57565b600435906001600160a01b03821682036101ee57565b90600182811c92168015614efd575b6020831014614ee757565b634e487b7160e01b600052602260045260246000fd5b91607f1691614edc565b9060405191826000825492614f1b84614ecd565b8084529360018116908115614f895750600114614f42575b50614f4092500383614b5d565b565b90506000929192526020600020906000915b818310614f6d575050906020614f409282010138614f33565b6020919350806001915483858901015201910190918492614f54565b905060209250614f4094915060ff191682840152151560051b82010138614f33565b9190918051835260018060a01b03602082015116602084015261501e61500c614ffa614fe860408501516102406040890152610240880190614c98565b60608501518782036060890152614c98565b60808401518682036080880152614c98565b60a083015185820360a0870152614c98565b9260c08201519381810360c0830152845180825260208201916020808360051b8301019701926000915b8383106151105750505050506102206150fe615074614e71959660e086015185820360e0870152614c98565b610100850151151561010085015261012085015115156101208501526101408501516101408501526101608501516101608501526101808501516101808501526101a085015115156101a08501526150d66101c08601516101c0860190614cca565b6150ea6101e08601516101e0860190614cbd565b610200850151848203610200860152614c98565b92015190610220818403910152614c98565b9091929397602080600192601f198582030186528b5190828061513c8451604085526040850190614c98565b93015115159101529a019301930191939290615048565b602081016020825282518091526040820191602060408360051b8301019401926000915b83831061518657505050505090565b90919293946020806151a4600193603f198682030187528951614fab565b97019301930191939290615177565b9080601f830112156101ee578135906151cb82614be0565b926151d96040519485614b5d565b82845260208085019360051b8201019182116101ee57602001915b8183106152015750505090565b823580151581036101ee578152602092830192016151f4565b80548210156152325760005260206000200190600090565b634e487b7160e01b600052603260045260246000fd5b8054821015615232576000526011602060002091020190600090565b80518210156152325760209160051b010190565b1561527f57565b60405162461bcd60e51b815260206004820152601f60248201527f4a6f62206861732065787069726564206f72206265656e2064656c65746564006044820152606490fd5b6005821015610c8b5752565b6003821015610c8b5752565b8181106152e7575050565b600081556001016152dc565b6152fd8154614ecd565b9081615307575050565b81601f60009311600114615319575055565b8183526020832061533591601f0160051c8101906001016152dc565b8082528160208120915555565b906005811015610c8b5761ff0082549160081b169061ff001916179055565b906004811015610c8b5760ff80198354169116179055565b9060405161538681614b26565b8254815260018301546001600160a01b031660208201529182906153ac60028201614f07565b60408301526153bd60038201614f07565b60608301526153ce60048201614f07565b60808301526153df60058201614f07565b60a08301526006810180546153f381614be0565b916154016040519384614b5d565b818352602083019060005260206000206000915b8383106154ee575050505060ff9160109160c085015261543760078201614f07565b60e085015261544860088201614f07565b61010085015261545a60098201614f07565b61012085015261546c600a8201614f07565b61014085015261547e600b8201614f07565b6101608501526154ab83600c83015461549d82821661018089016152d0565b60081c166101a086016152c4565b6154b7600d8201614f07565b6101c08501526154c9600e8201614f07565b6101e0850152600f810154610200850152015416906004821015610c8b576102200152565b6001602081926154fd85614f07565b815201920192019190615415565b1561551257565b60405162461bcd60e51b815260206004820152600e60248201526d125b9d985b1a59081a9bd888125160921b6044820152606490fd5b1561554f57565b60405162461bcd60e51b815260206004820152602360248201527f4e6f7420617574686f72697a656420746f2076696577206170706c69636174696044820152626f6e7360e81b6064820152608490fd5b6000198114610ede5760010190565b604051906155bc82614b26565b606061022083600081526000602082015282604082015282808201528260808201528260a08201528260c08201528260e08201526000610100820152600061012082015260006101408201526000610160820152600061018082015260006101a082015260006101c082015260006101e0820152826102008201520152565b9061564582614be0565b6156526040519182614b5d565b8281528092615663601f1991614be0565b019060005b82811061567457505050565b60209061567f6155af565b82828501015201615668565b1561569257565b60405162461bcd60e51b815260206004820152602160248201527f4f7267616e69736174696f6e206e616d652063616e6e6f7420626520656d70746044820152607960f81b6064820152608490fd5b156156e857565b60405162461bcd60e51b81526020600482015260156024820152745469746c652063616e6e6f7420626520656d70747960581b6044820152606490fd5b1561572c57565b60405162461bcd60e51b815260206004820152601b60248201527f4465736372697074696f6e2063616e6e6f7420626520656d70747900000000006044820152606490fd5b1561577857565b60405162461bcd60e51b81526020600482015260146024820152734c6f676f2063616e6e6f7420626520656d70747960601b6044820152606490fd5b906157be82614be0565b6157cb6040519182614b5d565b82815280926157dc601f1991614be0565b019060005b8281106157ed57505050565b6020906040516157fc81614b42565b60608152600083820152828285010152016157e1565b906003811015610c8b5762ff000082549160101b169062ff00001916179055565b80151580615880575b6158459061550b565b80600052600660205260ff60086040600020015460081c16908115615868575090565b90506000526006602052600b60406000200154421190565b5060035481111561583c565b60026001541461589d576002600155565b60405162461bcd60e51b815260206004820152601f60248201527f5265656e7472616e637947756172643a207265656e7472616e742063616c6c006044820152606490fd5b6000546001600160a01b031633036158f657565b606460405162461bcd60e51b815260206004820152602060248201527f4f776e61626c653a2063616c6c6572206973206e6f7420746865206f776e65726044820152fd5b600081815260026020908152604080832033845290915290205460ff161561595f5750565b339060009061596e602a614b7e565b9261597c6040519485614b5d565b602a845261598a602a614b7e565b602085019390601f1901368537845115615b855760308453845160011015615b8557607860218601536029905b60018211615b99575050615ad5576000906159d26042614b7e565b906159e06040519283614b5d565b604282526159ee6042614b7e565b602083019390601f1901368537825115615b855760308453825160011015615b8557607860218401536041905b60018211615b19575050615ad557615ad1936037615ab19383615aa0615a7797601196506040519889967f416363657373436f6e74726f6c3a206163636f756e7420000000000000000000602089015251809287890190614c75565b8501917001034b99036b4b9b9b4b733903937b6329607d1b858401525180936048840190614c75565b01010301601f198101835282614b5d565b60405162461bcd60e51b8152602060048201529182916024830190614c98565b0390fd5b606460405162461bcd60e51b815260206004820152602060248201527f537472696e67733a20686578206c656e67746820696e73756666696369656e746044820152fd5b9091600f81166010811015615b71576f181899199a1a9b1b9c1cb0b131b232b360811b901a615b488486615c63565b5360041c918015615b5d576000190190615a1b565b634e487b7160e01b82526011600452602482fd5b634e487b7160e01b83526032600452602483fd5b634e487b7160e01b81526032600452602490fd5b9091600f81166010811015615b71576f181899199a1a9b1b9c1cb0b131b232b360811b901a615bc88488615c63565b5360041c918015615b5d5760001901906159b7565b806000526002602052604060002060018060a01b03831660005260205260ff60406000205416615c0b575050565b60008181526002602090815260408083206001600160a01b0395909516808452949091528120805460ff19169055339291907ff6391f5c32d9c69d2a47ea670b442974b53935d1edc7fd64eb21e047a839171b9080a4565b90815181101561523257016020019056fe75680d50d7857bb14d6a9031f16ed433b862b51a721c2962823a9891c75391f6fc7c36207174f786648d2e624616a4b40e15fd7f0268b4e36af5057f0c43c835e5ebfa64fca8d502a8e50c1edffd2c31ef4dad5b396e65d9f397fb028f74abc5a2646970667358221220252b3f78a046a6e53241030296177cbcfaf8e37eeee270d336a2b829d4c6411164736f6c634300081c00332f8788117e7eff1d82e926ec794901d17c78024a50270940304540a733656f0d75680d50d7857bb14d6a9031f16ed433b862b51a721c2962823a9891c75391f6e5ebfa64fca8d502a8e50c1edffd2c31ef4dad5b396e65d9f397fb028f74abc5",
  "linkReferences": {},
  "deployedLinkReferences": {}
}