{
  "_format": "hh-sol-artifact-1",
  "contractName": "JobBoardUpgradeable",
  "sourceName": "contracts/JobBoardUpgradeable.sol",
  "abi": [
    {
      "inputs": [],
      "stateMutability": "nonpayable",
      "type": "constructor"
    },
    {
      "anonymous": false,
      "inputs": [
        {
          "indexed": true,
          "internalType": "uint256",
          "name": "jobId",
          "type": "uint256"
        },
        {
          "indexed": true,
          "internalType": "address",
          "name": "applicant",
          "type": "address"
        },
        {
          "indexed": false,
          "internalType": "enum JobBoardUpgradeable.ApplicationState",
          "name": "newState",
          "type": "uint8"
        }
      ],
      "name": "ApplicationStateChanged",
      "type": "event"
    },
    {
      "anonymous": false,
      "inputs": [
        {
          "indexed": true,
          "internalType": "uint256",
          "name": "jobId",
          "type": "uint256"
        },
        {
          "indexed": true,
          "internalType": "address",
          "name": "application",
          "type": "address"
        },
        {
          "indexed": false,
          "internalType": "string",
          "name": "name",
          "type": "string"
        },
        {
          "indexed": false,
          "internalType": "enum JobBoardUpgradeable.WorkMode",
          "name": "workMode",
          "type": "uint8"
        },
        {
          "indexed": false,
          "internalType": "string",
          "name": "email",
          "type": "string"
        }
      ],
      "name": "ApplicationSubmitted",
      "type": "event"
    },
    {
      "anonymous": false,
      "inputs": [
        {
          "indexed": false,
          "internalType": "uint8",
          "name": "version",
          "type": "uint8"
        }
      ],
      "name": "Initialized",
      "type": "event"
    },
    {
      "anonymous": false,
      "inputs": [
        {
          "indexed": true,
          "internalType": "uint256",
          "name": "jobId",
          "type": "uint256"
        },
        {
          "indexed": true,
          "internalType": "address",
          "name": "employer",
          "type": "address"
        }
      ],
      "name": "JobExpired",
      "type": "event"
    },
    {
      "anonymous": false,
      "inputs": [
        {
          "indexed": true,
          "internalType": "uint256",
          "name": "jobId",
          "type": "uint256"
        },
        {
          "indexed": true,
          "internalType": "address",
          "name": "employer",
          "type": "address"
        },
        {
          "indexed": false,
          "internalType": "string",
          "name": "title",
          "type": "string"
        },
        {
          "indexed": false,
          "internalType": "string",
          "name": "orgName",
          "type": "string"
        }
      ],
      "name": "JobPosted",
      "type": "event"
    },
    {
      "anonymous": false,
      "inputs": [
        {
          "indexed": true,
          "internalType": "address",
          "name": "previousOwner",
          "type": "address"
        },
        {
          "indexed": true,
          "internalType": "address",
          "name": "newOwner",
          "type": "address"
        }
      ],
      "name": "OwnershipTransferred",
      "type": "event"
    },
    {
      "anonymous": false,
      "inputs": [
        {
          "indexed": true,
          "internalType": "address",
          "name": "paymaster",
          "type": "address"
        },
        {
          "indexed": false,
          "internalType": "bool",
          "name": "enabled",
          "type": "bool"
        }
      ],
      "name": "PaymasterSet",
      "type": "event"
    },
    {
      "anonymous": false,
      "inputs": [
        {
          "indexed": true,
          "internalType": "bytes32",
          "name": "role",
          "type": "bytes32"
        },
        {
          "indexed": true,
          "internalType": "bytes32",
          "name": "previousAdminRole",
          "type": "bytes32"
        },
        {
          "indexed": true,
          "internalType": "bytes32",
          "name": "newAdminRole",
          "type": "bytes32"
        }
      ],
      "name": "RoleAdminChanged",
      "type": "event"
    },
    {
      "anonymous": false,
      "inputs": [
        {
          "indexed": true,
          "internalType": "bytes32",
          "name": "role",
          "type": "bytes32"
        },
        {
          "indexed": true,
          "internalType": "address",
          "name": "account",
          "type": "address"
        },
        {
          "indexed": true,
          "internalType": "address",
          "name": "sender",
          "type": "address"
        }
      ],
      "name": "RoleGranted",
      "type": "event"
    },
    {
      "anonymous": false,
      "inputs": [
        {
          "indexed": true,
          "internalType": "bytes32",
          "name": "role",
          "type": "bytes32"
        },
        {
          "indexed": true,
          "internalType": "address",
          "name": "account",
          "type": "address"
        },
        {
          "indexed": true,
          "internalType": "address",
          "name": "sender",
          "type": "address"
        }
      ],
      "name": "RoleRevoked",
      "type": "event"
    },
    {
      "anonymous": false,
      "inputs": [
        {
          "indexed": false,
          "internalType": "uint256",
          "name": "oldFee",
          "type": "uint256"
        },
        {
          "indexed": false,
          "internalType": "uint256",
          "name": "newFee",
          "type": "uint256"
        }
      ],
      "name": "ServiceFeeUpdated",
      "type": "event"
    },
    {
      "anonymous": false,
      "inputs": [
        {
          "indexed": true,
          "internalType": "address",
          "name": "user",
          "type": "address"
        },
        {
          "indexed": false,
          "internalType": "string",
          "name": "operation",
          "type": "string"
        },
        {
          "indexed": true,
          "internalType": "address",
          "name": "sponsor",
          "type": "address"
        }
      ],
      "name": "TransactionSponsored",
      "type": "event"
    },
    {
      "inputs": [],
      "name": "ADMIN_ROLE",
      "outputs": [
        {
          "internalType": "bytes32",
          "name": "",
          "type": "bytes32"
        }
      ],
      "stateMutability": "view",
      "type": "function"
    },
    {
      "inputs": [],
      "name": "DEFAULT_ADMIN_ROLE",
      "outputs": [
        {
          "internalType": "bytes32",
          "name": "",
          "type": "bytes32"
        }
      ],
      "stateMutability": "view",
      "type": "function"
    },
    {
      "inputs": [],
      "name": "EMPLOYER_ROLE",
      "outputs": [
        {
          "internalType": "bytes32",
          "name": "",
          "type": "bytes32"
        }
      ],
      "stateMutability": "view",
      "type": "function"
    },
    {
      "inputs": [
        {
          "internalType": "uint256",
          "name": "",
          "type": "uint256"
        },
        {
          "internalType": "address",
          "name": "",
          "type": "address"
        }
      ],
      "name": "applicationStates",
      "outputs": [
        {
          "internalType": "enum JobBoardUpgradeable.ApplicationState",
          "name": "",
          "type": "uint8"
        }
      ],
      "stateMutability": "view",
      "type": "function"
    },
    {
      "inputs": [
        {
          "internalType": "uint256",
          "name": "jobId",
          "type": "uint256"
        }
      ],
      "name": "checkJobExpiration",
      "outputs": [],
      "stateMutability": "nonpayable",
      "type": "function"
    },
    {
      "inputs": [
        {
          "internalType": "uint256",
          "name": "jobId",
          "type": "uint256"
        }
      ],
      "name": "closeJob",
      "outputs": [],
      "stateMutability": "nonpayable",
      "type": "function"
    },
    {
      "inputs": [
        {
          "internalType": "uint256",
          "name": "id",
          "type": "uint256"
        }
      ],
      "name": "deleteJob",
      "outputs": [],
      "stateMutability": "nonpayable",
      "type": "function"
    },
    {
      "inputs": [
        {
          "internalType": "uint256",
          "name": "id",
          "type": "uint256"
        },
        {
          "internalType": "string",
          "name": "orgName",
          "type": "string"
        },
        {
          "internalType": "string",
          "name": "title",
          "type": "string"
        },
        {
          "internalType": "string",
          "name": "description",
          "type": "string"
        },
        {
          "internalType": "string",
          "name": "orgEmail",
          "type": "string"
        },
        {
          "internalType": "string",
          "name": "logoCID",
          "type": "string"
        },
        {
          "internalType": "string[]",
          "name": "fieldName",
          "type": "string[]"
        },
        {
          "internalType": "bool[]",
          "name": "isRequired",
          "type": "bool[]"
        },
        {
          "internalType": "bool",
          "name": "isOpen",
          "type": "bool"
        },
        {
          "internalType": "enum JobBoardUpgradeable.JobType",
          "name": "jobType",
          "type": "uint8"
        },
        {
          "internalType": "enum JobBoardUpgradeable.WorkMode",
          "name": "workMode",
          "type": "uint8"
        },
        {
          "internalType": "string",
          "name": "minimumSalary",
          "type": "string"
        },
        {
          "internalType": "string",
          "name": "maximumSalary",
          "type": "string"
        }
      ],
      "name": "editJob",
      "outputs": [],
      "stateMutability": "nonpayable",
      "type": "function"
    },
    {
      "inputs": [
        {
          "internalType": "address",
          "name": "",
          "type": "address"
        },
        {
          "internalType": "uint256",
          "name": "",
          "type": "uint256"
        }
      ],
      "name": "employerJobs",
      "outputs": [
        {
          "internalType": "uint256",
          "name": "",
          "type": "uint256"
        }
      ],
      "stateMutability": "view",
      "type": "function"
    },
    {
      "inputs": [
        {
          "internalType": "uint256",
          "name": "jobId",
          "type": "uint256"
        }
      ],
      "name": "expireJob",
      "outputs": [],
      "stateMutability": "nonpayable",
      "type": "function"
    },
    {
      "inputs": [],
      "name": "getAllJobs",
      "outputs": [
        {
          "components": [
            {
              "internalType": "uint256",
              "name": "id",
              "type": "uint256"
            },
            {
              "internalType": "address",
              "name": "employer",
              "type": "address"
            },
            {
              "internalType": "string",
              "name": "orgName",
              "type": "string"
            },
            {
              "internalType": "string",
              "name": "title",
              "type": "string"
            },
            {
              "internalType": "string",
              "name": "description",
              "type": "string"
            },
            {
              "internalType": "string",
              "name": "orgEmail",
              "type": "string"
            },
            {
              "components": [
                {
                  "internalType": "string",
                  "name": "fieldName",
                  "type": "string"
                },
                {
                  "internalType": "bool",
                  "name": "isRequired",
                  "type": "bool"
                }
              ],
              "internalType": "struct JobBoardUpgradeable.CustomField[]",
              "name": "customField",
              "type": "tuple[]"
            },
            {
              "internalType": "string",
              "name": "logoCID",
              "type": "string"
            },
            {
              "internalType": "bool",
              "name": "isOpen",
              "type": "bool"
            },
            {
              "internalType": "bool",
              "name": "deleted",
              "type": "bool"
            },
            {
              "internalType": "uint256",
              "name": "startTime",
              "type": "uint256"
            },
            {
              "internalType": "uint256",
              "name": "endTime",
              "type": "uint256"
            },
            {
              "internalType": "uint256",
              "name": "expirationTime",
              "type": "uint256"
            },
            {
              "internalType": "bool",
              "name": "expired",
              "type": "bool"
            },
            {
              "internalType": "enum JobBoardUpgradeable.JobType",
              "name": "jobType",
              "type": "uint8"
            },
            {
              "internalType": "enum JobBoardUpgradeable.WorkMode",
              "name": "workMode",
              "type": "uint8"
            },
            {
              "internalType": "string",
              "name": "minimumSalary",
              "type": "string"
            },
            {
              "internalType": "string",
              "name": "maximumSalary",
              "type": "string"
            }
          ],
          "internalType": "struct JobBoardUpgradeable.JobStruct[]",
          "name": "",
          "type": "tuple[]"
        }
      ],
      "stateMutability": "view",
      "type": "function"
    },
    {
      "inputs": [
        {
          "internalType": "uint256",
          "name": "jobId",
          "type": "uint256"
        }
      ],
      "name": "getJob",
      "outputs": [
        {
          "components": [
            {
              "internalType": "uint256",
              "name": "id",
              "type": "uint256"
            },
            {
              "internalType": "address",
              "name": "employer",
              "type": "address"
            },
            {
              "internalType": "string",
              "name": "orgName",
              "type": "string"
            },
            {
              "internalType": "string",
              "name": "title",
              "type": "string"
            },
            {
              "internalType": "string",
              "name": "description",
              "type": "string"
            },
            {
              "internalType": "string",
              "name": "orgEmail",
              "type": "string"
            },
            {
              "components": [
                {
                  "internalType": "string",
                  "name": "fieldName",
                  "type": "string"
                },
                {
                  "internalType": "bool",
                  "name": "isRequired",
                  "type": "bool"
                }
              ],
              "internalType": "struct JobBoardUpgradeable.CustomField[]",
              "name": "customField",
              "type": "tuple[]"
            },
            {
              "internalType": "string",
              "name": "logoCID",
              "type": "string"
            },
            {
              "internalType": "bool",
              "name": "isOpen",
              "type": "bool"
            },
            {
              "internalType": "bool",
              "name": "deleted",
              "type": "bool"
            },
            {
              "internalType": "uint256",
              "name": "startTime",
              "type": "uint256"
            },
            {
              "internalType": "uint256",
              "name": "endTime",
              "type": "uint256"
            },
            {
              "internalType": "uint256",
              "name": "expirationTime",
              "type": "uint256"
            },
            {
              "internalType": "bool",
              "name": "expired",
              "type": "bool"
            },
            {
              "internalType": "enum JobBoardUpgradeable.JobType",
              "name": "jobType",
              "type": "uint8"
            },
            {
              "internalType": "enum JobBoardUpgradeable.WorkMode",
              "name": "workMode",
              "type": "uint8"
            },
            {
              "internalType": "string",
              "name": "minimumSalary",
              "type": "string"
            },
            {
              "internalType": "string",
              "name": "maximumSalary",
              "type": "string"
            }
          ],
          "internalType": "struct JobBoardUpgradeable.JobStruct",
          "name": "",
          "type": "tuple"
        }
      ],
      "stateMutability": "view",
      "type": "function"
    },
    {
      "inputs": [
        {
          "internalType": "uint256",
          "name": "jobId",
          "type": "uint256"
        },
        {
          "internalType": "uint256",
          "name": "applicantIndex",
          "type": "uint256"
        }
      ],
      "name": "getJobApplicantDetails",
      "outputs": [
        {
          "components": [
            {
              "internalType": "uint256",
              "name": "jobId",
              "type": "uint256"
            },
            {
              "internalType": "address",
              "name": "applicant",
              "type": "address"
            },
            {
              "internalType": "string",
              "name": "name",
              "type": "string"
            },
            {
              "internalType": "string",
              "name": "email",
              "type": "string"
            },
            {
              "internalType": "string",
              "name": "phoneNumber",
              "type": "string"
            },
            {
              "internalType": "string",
              "name": "location",
              "type": "string"
            },
            {
              "internalType": "string[]",
              "name": "fieldResponse",
              "type": "string[]"
            },
            {
              "internalType": "string",
              "name": "cvCID",
              "type": "string"
            },
            {
              "internalType": "string",
              "name": "portfolioLink",
              "type": "string"
            },
            {
              "internalType": "string",
              "name": "experience",
              "type": "string"
            },
            {
              "internalType": "string",
              "name": "expectedSalary",
              "type": "string"
            },
            {
              "internalType": "string",
              "name": "github",
              "type": "string"
            },
            {
              "internalType": "enum JobBoardUpgradeable.WorkMode",
              "name": "workMode",
              "type": "uint8"
            },
            {
              "internalType": "enum JobBoardUpgradeable.JobType",
              "name": "jobType",
              "type": "uint8"
            },
            {
              "internalType": "string",
              "name": "minimumSalary",
              "type": "string"
            },
            {
              "internalType": "string",
              "name": "maximumSalary",
              "type": "string"
            },
            {
              "internalType": "uint256",
              "name": "applicationTimestamp",
              "type": "uint256"
            },
            {
              "internalType": "enum JobBoardUpgradeable.ApplicationState",
              "name": "currentState",
              "type": "uint8"
            }
          ],
          "internalType": "struct JobBoardUpgradeable.ApplicationStruct",
          "name": "",
          "type": "tuple"
        }
      ],
      "stateMutability": "view",
      "type": "function"
    },
    {
      "inputs": [
        {
          "internalType": "uint256",
          "name": "jobId",
          "type": "uint256"
        }
      ],
      "name": "getJobApplicants",
      "outputs": [
        {
          "internalType": "address[]",
          "name": "",
          "type": "address[]"
        }
      ],
      "stateMutability": "view",
      "type": "function"
    },
    {
      "inputs": [
        {
          "internalType": "uint256",
          "name": "jobId",
          "type": "uint256"
        }
      ],
      "name": "getJobApplicationCount",
      "outputs": [
        {
          "internalType": "uint256",
          "name": "",
          "type": "uint256"
        }
      ],
      "stateMutability": "view",
      "type": "function"
    },
    {
      "inputs": [
        {
          "internalType": "uint256",
          "name": "jobId",
          "type": "uint256"
        }
      ],
      "name": "getJobApplications",
      "outputs": [
        {
          "components": [
            {
              "internalType": "uint256",
              "name": "jobId",
              "type": "uint256"
            },
            {
              "internalType": "address",
              "name": "applicant",
              "type": "address"
            },
            {
              "internalType": "string",
              "name": "name",
              "type": "string"
            },
            {
              "internalType": "string",
              "name": "email",
              "type": "string"
            },
            {
              "internalType": "string",
              "name": "phoneNumber",
              "type": "string"
            },
            {
              "internalType": "string",
              "name": "location",
              "type": "string"
            },
            {
              "internalType": "string[]",
              "name": "fieldResponse",
              "type": "string[]"
            },
            {
              "internalType": "string",
              "name": "cvCID",
              "type": "string"
            },
            {
              "internalType": "string",
              "name": "portfolioLink",
              "type": "string"
            },
            {
              "internalType": "string",
              "name": "experience",
              "type": "string"
            },
            {
              "internalType": "string",
              "name": "expectedSalary",
              "type": "string"
            },
            {
              "internalType": "string",
              "name": "github",
              "type": "string"
            },
            {
              "internalType": "enum JobBoardUpgradeable.WorkMode",
              "name": "workMode",
              "type": "uint8"
            },
            {
              "internalType": "enum JobBoardUpgradeable.JobType",
              "name": "jobType",
              "type": "uint8"
            },
            {
              "internalType": "string",
              "name": "minimumSalary",
              "type": "string"
            },
            {
              "internalType": "string",
              "name": "maximumSalary",
              "type": "string"
            },
            {
              "internalType": "uint256",
              "name": "applicationTimestamp",
              "type": "uint256"
            },
            {
              "internalType": "enum JobBoardUpgradeable.ApplicationState",
              "name": "currentState",
              "type": "uint8"
            }
          ],
          "internalType": "struct JobBoardUpgradeable.ApplicationStruct[]",
          "name": "",
          "type": "tuple[]"
        }
      ],
      "stateMutability": "view",
      "type": "function"
    },
    {
      "inputs": [],
      "name": "getMyJobs",
      "outputs": [
        {
          "components": [
            {
              "internalType": "uint256",
              "name": "id",
              "type": "uint256"
            },
            {
              "internalType": "address",
              "name": "employer",
              "type": "address"
            },
            {
              "internalType": "string",
              "name": "orgName",
              "type": "string"
            },
            {
              "internalType": "string",
              "name": "title",
              "type": "string"
            },
            {
              "internalType": "string",
              "name": "description",
              "type": "string"
            },
            {
              "internalType": "string",
              "name": "orgEmail",
              "type": "string"
            },
            {
              "components": [
                {
                  "internalType": "string",
                  "name": "fieldName",
                  "type": "string"
                },
                {
                  "internalType": "bool",
                  "name": "isRequired",
                  "type": "bool"
                }
              ],
              "internalType": "struct JobBoardUpgradeable.CustomField[]",
              "name": "customField",
              "type": "tuple[]"
            },
            {
              "internalType": "string",
              "name": "logoCID",
              "type": "string"
            },
            {
              "internalType": "bool",
              "name": "isOpen",
              "type": "bool"
            },
            {
              "internalType": "bool",
              "name": "deleted",
              "type": "bool"
            },
            {
              "internalType": "uint256",
              "name": "startTime",
              "type": "uint256"
            },
            {
              "internalType": "uint256",
              "name": "endTime",
              "type": "uint256"
            },
            {
              "internalType": "uint256",
              "name": "expirationTime",
              "type": "uint256"
            },
            {
              "internalType": "bool",
              "name": "expired",
              "type": "bool"
            },
            {
              "internalType": "enum JobBoardUpgradeable.JobType",
              "name": "jobType",
              "type": "uint8"
            },
            {
              "internalType": "enum JobBoardUpgradeable.WorkMode",
              "name": "workMode",
              "type": "uint8"
            },
            {
              "internalType": "string",
              "name": "minimumSalary",
              "type": "string"
            },
            {
              "internalType": "string",
              "name": "maximumSalary",
              "type": "string"
            }
          ],
          "internalType": "struct JobBoardUpgradeable.JobStruct[]",
          "name": "",
          "type": "tuple[]"
        }
      ],
      "stateMutability": "view",
      "type": "function"
    },
    {
      "inputs": [
        {
          "internalType": "bytes32",
          "name": "role",
          "type": "bytes32"
        }
      ],
      "name": "getRoleAdmin",
      "outputs": [
        {
          "internalType": "bytes32",
          "name": "",
          "type": "bytes32"
        }
      ],
      "stateMutability": "view",
      "type": "function"
    },
    {
      "inputs": [
        {
          "internalType": "bytes32",
          "name": "role",
          "type": "bytes32"
        },
        {
          "internalType": "address",
          "name": "account",
          "type": "address"
        }
      ],
      "name": "grantRole",
      "outputs": [],
      "stateMutability": "nonpayable",
      "type": "function"
    },
    {
      "inputs": [
        {
          "internalType": "bytes32",
          "name": "role",
          "type": "bytes32"
        },
        {
          "internalType": "address",
          "name": "account",
          "type": "address"
        }
      ],
      "name": "hasRole",
      "outputs": [
        {
          "internalType": "bool",
          "name": "",
          "type": "bool"
        }
      ],
      "stateMutability": "view",
      "type": "function"
    },
    {
      "inputs": [
        {
          "internalType": "uint256",
          "name": "_serviceFee",
          "type": "uint256"
        }
      ],
      "name": "initialize",
      "outputs": [],
      "stateMutability": "nonpayable",
      "type": "function"
    },
    {
      "inputs": [
        {
          "internalType": "uint256",
          "name": "jobId",
          "type": "uint256"
        }
      ],
      "name": "isJobExpired",
      "outputs": [
        {
          "internalType": "bool",
          "name": "",
          "type": "bool"
        }
      ],
      "stateMutability": "view",
      "type": "function"
    },
    {
      "inputs": [
        {
          "internalType": "uint256",
          "name": "",
          "type": "uint256"
        }
      ],
      "name": "jobs",
      "outputs": [
        {
          "internalType": "uint256",
          "name": "id",
          "type": "uint256"
        },
        {
          "internalType": "address",
          "name": "employer",
          "type": "address"
        },
        {
          "internalType": "string",
          "name": "orgName",
          "type": "string"
        },
        {
          "internalType": "string",
          "name": "title",
          "type": "string"
        },
        {
          "internalType": "string",
          "name": "description",
          "type": "string"
        },
        {
          "internalType": "string",
          "name": "orgEmail",
          "type": "string"
        },
        {
          "internalType": "string",
          "name": "logoCID",
          "type": "string"
        },
        {
          "internalType": "bool",
          "name": "isOpen",
          "type": "bool"
        },
        {
          "internalType": "bool",
          "name": "deleted",
          "type": "bool"
        },
        {
          "internalType": "uint256",
          "name": "startTime",
          "type": "uint256"
        },
        {
          "internalType": "uint256",
          "name": "endTime",
          "type": "uint256"
        },
        {
          "internalType": "uint256",
          "name": "expirationTime",
          "type": "uint256"
        },
        {
          "internalType": "bool",
          "name": "expired",
          "type": "bool"
        },
        {
          "internalType": "enum JobBoardUpgradeable.JobType",
          "name": "jobType",
          "type": "uint8"
        },
        {
          "internalType": "enum JobBoardUpgradeable.WorkMode",
          "name": "workMode",
          "type": "uint8"
        },
        {
          "internalType": "string",
          "name": "minimumSalary",
          "type": "string"
        },
        {
          "internalType": "string",
          "name": "maximumSalary",
          "type": "string"
        }
      ],
      "stateMutability": "view",
      "type": "function"
    },
    {
      "inputs": [],
      "name": "owner",
      "outputs": [
        {
          "internalType": "address",
          "name": "",
          "type": "address"
        }
      ],
      "stateMutability": "view",
      "type": "function"
    },
    {
      "inputs": [],
      "name": "paymaster",
      "outputs": [
        {
          "internalType": "address",
          "name": "",
          "type": "address"
        }
      ],
      "stateMutability": "view",
      "type": "function"
    },
    {
      "inputs": [],
      "name": "paymasterEnabled",
      "outputs": [
        {
          "internalType": "bool",
          "name": "",
          "type": "bool"
        }
      ],
      "stateMutability": "view",
      "type": "function"
    },
    {
      "inputs": [
        {
          "internalType": "string",
          "name": "orgName",
          "type": "string"
        },
        {
          "internalType": "string",
          "name": "title",
          "type": "string"
        },
        {
          "internalType": "string",
          "name": "description",
          "type": "string"
        },
        {
          "internalType": "string",
          "name": "orgEmail",
          "type": "string"
        },
        {
          "internalType": "string",
          "name": "logoCID",
          "type": "string"
        },
        {
          "internalType": "string[]",
          "name": "fieldName",
          "type": "string[]"
        },
        {
          "internalType": "bool[]",
          "name": "isRequired",
          "type": "bool[]"
        },
        {
          "internalType": "enum JobBoardUpgradeable.JobType",
          "name": "jobType",
          "type": "uint8"
        },
        {
          "internalType": "enum JobBoardUpgradeable.WorkMode",
          "name": "workMode",
          "type": "uint8"
        },
        {
          "internalType": "string",
          "name": "minimumSalary",
          "type": "string"
        },
        {
          "internalType": "string",
          "name": "maximumSalary",
          "type": "string"
        },
        {
          "internalType": "uint256",
          "name": "expirationDays",
          "type": "uint256"
        }
      ],
      "name": "postJob",
      "outputs": [
        {
          "internalType": "uint256",
          "name": "",
          "type": "uint256"
        }
      ],
      "stateMutability": "payable",
      "type": "function"
    },
    {
      "inputs": [],
      "name": "renounceOwnership",
      "outputs": [],
      "stateMutability": "nonpayable",
      "type": "function"
    },
    {
      "inputs": [
        {
          "internalType": "bytes32",
          "name": "role",
          "type": "bytes32"
        },
        {
          "internalType": "address",
          "name": "account",
          "type": "address"
        }
      ],
      "name": "renounceRole",
      "outputs": [],
      "stateMutability": "nonpayable",
      "type": "function"
    },
    {
      "inputs": [
        {
          "internalType": "bytes32",
          "name": "role",
          "type": "bytes32"
        },
        {
          "internalType": "address",
          "name": "account",
          "type": "address"
        }
      ],
      "name": "revokeRole",
      "outputs": [],
      "stateMutability": "nonpayable",
      "type": "function"
    },
    {
      "inputs": [],
      "name": "serviceFee",
      "outputs": [
        {
          "internalType": "uint256",
          "name": "",
          "type": "uint256"
        }
      ],
      "stateMutability": "view",
      "type": "function"
    },
    {
      "inputs": [
        {
          "internalType": "address",
          "name": "_paymaster",
          "type": "address"
        },
        {
          "internalType": "bool",
          "name": "_enabled",
          "type": "bool"
        }
      ],
      "name": "setPaymaster",
      "outputs": [],
      "stateMutability": "nonpayable",
      "type": "function"
    },
    {
      "inputs": [
        {
          "internalType": "address",
          "name": "user",
          "type": "address"
        }
      ],
      "name": "setSponsoredUser",
      "outputs": [],
      "stateMutability": "nonpayable",
      "type": "function"
    },
    {
      "inputs": [
        {
          "internalType": "bytes32",
          "name": "",
          "type": "bytes32"
        }
      ],
      "name": "sponsoredTransactions",
      "outputs": [
        {
          "internalType": "bool",
          "name": "",
          "type": "bool"
        }
      ],
      "stateMutability": "view",
      "type": "function"
    },
    {
      "inputs": [
        {
          "internalType": "address",
          "name": "",
          "type": "address"
        }
      ],
      "name": "sponsoredUserForCaller",
      "outputs": [
        {
          "internalType": "address",
          "name": "",
          "type": "address"
        }
      ],
      "stateMutability": "view",
      "type": "function"
    },
    {
      "inputs": [
        {
          "internalType": "address",
          "name": "",
          "type": "address"
        }
      ],
      "name": "sponsoredUsers",
      "outputs": [
        {
          "internalType": "bool",
          "name": "",
          "type": "bool"
        }
      ],
      "stateMutability": "view",
      "type": "function"
    },
    {
      "inputs": [
        {
          "internalType": "uint256",
          "name": "jobId",
          "type": "uint256"
        },
        {
          "internalType": "string",
          "name": "name",
          "type": "string"
        },
        {
          "internalType": "string",
          "name": "email",
          "type": "string"
        },
        {
          "internalType": "string",
          "name": "phoneNumber",
          "type": "string"
        },
        {
          "internalType": "string",
          "name": "location",
          "type": "string"
        },
        {
          "internalType": "string[]",
          "name": "fieldResponses",
          "type": "string[]"
        },
        {
          "internalType": "string",
          "name": "cvCID",
          "type": "string"
        },
        {
          "internalType": "string",
          "name": "portfolioLink",
          "type": "string"
        },
        {
          "internalType": "string",
          "name": "experience",
          "type": "string"
        },
        {
          "internalType": "string",
          "name": "expectedSalary",
          "type": "string"
        },
        {
          "internalType": "string",
          "name": "github",
          "type": "string"
        }
      ],
      "name": "submitApplication",
      "outputs": [],
      "stateMutability": "payable",
      "type": "function"
    },
    {
      "inputs": [
        {
          "internalType": "bytes4",
          "name": "interfaceId",
          "type": "bytes4"
        }
      ],
      "name": "supportsInterface",
      "outputs": [
        {
          "internalType": "bool",
          "name": "",
          "type": "bool"
        }
      ],
      "stateMutability": "view",
      "type": "function"
    },
    {
      "inputs": [
        {
          "internalType": "address",
          "name": "newOwner",
          "type": "address"
        }
      ],
      "name": "transferOwnership",
      "outputs": [],
      "stateMutability": "nonpayable",
      "type": "function"
    },
    {
      "inputs": [
        {
          "internalType": "uint256",
          "name": "jobId",
          "type": "uint256"
        },
        {
          "internalType": "address",
          "name": "applicant",
          "type": "address"
        },
        {
          "internalType": "enum JobBoardUpgradeable.ApplicationState",
          "name": "newState",
          "type": "uint8"
        }
      ],
      "name": "updateApplicationStatus",
      "outputs": [],
      "stateMutability": "nonpayable",
      "type": "function"
    },
    {
      "inputs": [
        {
          "internalType": "uint256",
          "name": "_newFee",
          "type": "uint256"
        }
      ],
      "name": "updateServiceFee",
      "outputs": [],
      "stateMutability": "nonpayable",
      "type": "function"
    },
    {
      "inputs": [],
      "name": "withdrawFunds",
      "outputs": [],
      "stateMutability": "nonpayable",
      "type": "function"
    }
  ],
  "bytecode": "0x6080806040523460bd576000549060ff8260081c16606b575060ff808216036031575b60405161603d90816100c38239f35b60ff90811916176000557f7f26b83ff96e1f2b6a682f133852f6798a09c465da95921460cefb3847402498602060405160ff8152a1386022565b62461bcd60e51b815260206004820152602760248201527f496e697469616c697a61626c653a20636f6e747261637420697320696e697469604482015266616c697a696e6760c81b6064820152608490fd5b600080fdfe61010080604052600436101561001457600080fd5b60003560e01c90816301ffc9a714614b9b5750806304f801a014614aa6578063094cd5d0146136085780630fb6bd371461340257806315248bb7146131eb5780631573f6881461311357806316e4cbf9146130ea578063180aedf314612f4d5780631e01abca14612ec75780632426bb3814612e9e57806324600fc314612e1a578063248a9ca314612df45780632f2ff15d14612d5557806336568abe14612cc357806351de72d014612beb5780636358bb8c14612b0f578063715018a614612ac4578063747143b91461299157806375b238fc146129685780638abdf5aa1461294a5780638da5cb5b146129215780638e359a3a1461289e57806391d1485414612851578063965a79fb146126845780639b00214c146124c0578063a217fddf146124a4578063aa98d30114612451578063ac6238fc1461242b578063ae4b7c26146123d8578063bc76136c14612313578063bf22c45714612132578063c264f1fe14612100578063c4d4f6a714612058578063c580bef614612019578063cb8778511461149d578063d547741f14611467578063dad788d91461143f578063e8978c4414610549578063f2fde38b146104ba578063fbb6043b14610477578063fc736cde1461041d5763fe4b84df146101ee57600080fd5b34610418576020366003190112610418576004356000549060ff8260081c16159182809361040b575b80156103f4575b156103985760ff19811660011760005582610386575b5080156103535761025560ff60005460081c1661025081615e96565b615e96565b61025e33615e5f565b61028660ff60005460081c1661027381615e96565b61027c81615e96565b6001606555615e96565b60fd5560fe805460ff60a01b19169055336000908152600080516020615fc8833981519152602052604090205460ff1615610303575b6102c533615d52565b6102cb57005b61ff0019600054166000557f7f26b83ff96e1f2b6a682f133852f6798a09c465da95921460cefb3847402498602060405160018152a1005b336000818152600080516020615fc883398151915260205260408120805460ff191660011790558190600080516020615fe883398151915290600080516020615f288339815191529080a46102bc565b60405162461bcd60e51b815260206004820152600b60248201526a496e76616c69642066656560a81b6044820152606490fd5b61ffff19166101011760005538610234565b60405162461bcd60e51b815260206004820152602e60248201527f496e697469616c697a61626c653a20636f6e747261637420697320616c72656160448201526d191e481a5b9a5d1a585b1a5e995960921b6064820152608490fd5b50303b15801561021e5750600160ff82161461021e565b50600160ff821610610217565b600080fd5b3461041857604036600319011261041857610436614f81565b6001600160a01b03166000908152610104602052604090208054602435919082101561041857602091610468916152e4565b90549060031b1c604051908152f35b34610418576020366003190112610418576001600160a01b03610498614f81565b16600052610101602052602060018060a01b0360406000205416604051908152f35b34610418576020366003190112610418576104d3614f81565b6104db615a5d565b6001600160a01b038116156104f5576104f390615e5f565b005b60405162461bcd60e51b815260206004820152602660248201527f4f776e61626c653a206e6577206f776e657220697320746865207a65726f206160448201526564647265737360d01b6064820152608490fd5b610180366003190112610418576004356001600160401b03811161041857610575903690600401614c63565b6024356001600160401b03811161041857610594903690600401614c63565b906044356001600160401b038111610418576105b4903690600401614c63565b906064356001600160401b038111610418576105d4903690600401614c63565b916084356001600160401b038111610418576105f4903690600401614c63565b9360a4356001600160401b03811161041857610614903690600401614cc1565b9160c4356001600160401b0381116104185761063490369060040161527d565b93600560e435101561041857600361010435101561041857610124356001600160401b0381116104185761066c903690600401614c63565b610144356001600160401b0381116104185761068c903690600401614c63565b92610164359361069a615959565b3233148015611419575b8015611406575b6106b490615451565b6106bc6159af565b80156113c3575b8515611389576106d585511515615790565b6106e1875115156157cc565b6106ed83511515615806565b6106f98b511515615846565b15611356576107066159ec565b9260018060a01b0384168060005260ff6020526040600020600160ff19825416179055604051906020825260076020830152663837b9ba2537b160c91b6040830152600080516020615f6883398151915260603393a33360009081526101016020526040902080546001600160a01b03191690555b610785885161587f565b9960005b89518110156107df57806107d8818e8e6107b18f966107aa8160019961532e565b519261532e565b511515604051916107c183614c0a565b825260208201526107d2838361532e565b5261532e565b5001610789565b508b8b600160fb5401988960fb55623b5380420142116110b75762015180810290810462015180036110b7574201928342116110b7576040519661082288614bee565b8a885260018060a01b03891660208901528960408901528b6060890152608088015260a087015260c086015260e08501526001610100850152600061012085015242610140850152623b5380420161016085015261018084015260006101a084015261089460e4356101c08501615378565b6108a5610104356101e08501615384565b6102008301526102208201526000848152610102602090815260409182902083518155908301516001820180546001600160a01b0319166001600160a01b0392909216919091179055908201518051906001600160401b038211610d0e576109106002840154614f97565b601f8111611321575b50602090601f83116001146112b05761093d9291600091836111ff575b50506153b8565b60028201555b60608201518051906001600160401b038211610d0e576109666003840154614f97565b601f811161127b575b50602090601f831160011461120a576109929291600091836111ff5750506153b8565b60038201555b6080820151805160048301916001600160401b038211610d0e576109bc8354614f97565b601f81116111cd575b50602090601f8311600114611166576109e8929160009183610e945750506153b8565b90555b60a0820151805160058301916001600160401b038211610d0e57610a0f8354614f97565b601f8111611134575b50602090601f83116001146110cd57610a3b929160009183610e945750506153b8565b90555b60c082015180516006830191600160401b8211610d0e57825482845580831061105b575b506020019160005260206000206000925b828410610f38575050505060e0820151805160078301916001600160401b038211610d0e57610aa28354614f97565b601f8111610f06575b50602090601f8311600114610e9f57610ace929160009183610e945750506153b8565b90555b60088101610ae6610100840151151582615390565b610120830151151561ff0082549160081b169061ff0019161790556101408201516009820155610160820151600a820155610180820151600b820155600c8101610b376101a0840151151582615390565b6101c08301516005811015610e7e57610b50908261541a565b6101e08301516003811015610e7e57610b68916158dd565b6102008201518051600d8301916001600160401b038211610d0e57610b8d8354614f97565b601f8111610e4c575b50602090601f8311600114610dde57826102209593600e9593610bc193600092610dd35750506153b8565b90555b0191015180519060018060401b038211610d0e57610be28354614f97565b601f8111610d96575b50602090601f8311600114610d2f57610c0e929160009183610d245750506153b8565b90555b6001600160a01b03811660009081526101046020526040902080549190600160401b831015610d0e57602095610cf07f752f79388b35d90d4202940ffb0c752f318a347800decc9e4c322e2cec1b404a93610c7686610cd89560018b990181556152e4565b815460001960039290921b91821b19169088901b179055600080516020615fa8833981519152600090815260c98a5260408082206001600160a01b03841683528b5290205460ff1615610d00575b604051938493604085526040850190614d62565b8381038a8501526001600160a01b0390911696614d62565b0390a36001606555604051908152f35b610d0981615d52565b610cc4565b634e487b7160e01b600052604160045260246000fd5b015190508880610936565b90601f1983169184600052816000209260005b818110610d7e5750908460019594939210610d65575b505050811b019055610c11565b015160001960f88460031b161c19169055878080610d58565b92936020600181928786015181550195019301610d42565b610dc390846000526020600020601f850160051c81019160208610610dc9575b601f0160051c01906153a1565b87610beb565b9091508190610db6565b015190508c80610936565b90601f1983169184600052816000209260005b818110610e3457509260019285926102209896600e989610610e1b575b505050811b019055610bc4565b015160001960f88460031b161c191690558b8080610e0e565b92936020600181928786015181550195019301610df1565b610e7890846000526020600020601f850160051c81019160208610610dc957601f0160051c01906153a1565b89610b96565b634e487b7160e01b600052602160045260246000fd5b015190508a80610936565b90601f1983169184600052816000209260005b818110610eee5750908460019594939210610ed5575b505050811b019055610ad1565b015160001960f88460031b161c19169055898080610ec8565b92936020600181928786015181550195019301610eb2565b610f3290846000526020600020601f850160051c81019160208610610dc957601f0160051c01906153a1565b89610aab565b805180518051906001600160401b038211610d0e57610f578554614f97565b601f8111611029575b50602090601f8311600114610fb6576020600294610f9085839660019996610f9f96600092610fab5750506153b8565b88555b01511515858701615390565b01920193019290610a73565b015190503880610936565b90601f1983169186600052816000209260005b818110611011575094600185819895610f9f9560209895899660029b10610ff8575b505050811b018855610f93565b015160001960f88460031b161c19169055388080610feb565b92936020600181928786015181550195019301610fc9565b61105590866000526020600020601f850160051c81019160208610610dc957601f0160051c01906153a1565b8d610f60565b6001600160ff1b03811681036110b7576001600160ff1b03831683036110b7578360005260206000209060011b8101908360011b015b81811061109e5750610a62565b806110aa6002926153cb565b6000600182015501611091565b634e487b7160e01b600052601160045260246000fd5b90601f1983169184600052816000209260005b81811061111c5750908460019594939210611103575b505050811b019055610a3e565b015160001960f88460031b161c191690558980806110f6565b929360206001819287860151815501950193016110e0565b61116090846000526020600020601f850160051c81019160208610610dc957601f0160051c01906153a1565b89610a18565b90601f1983169184600052816000209260005b8181106111b5575090846001959493921061119c575b505050811b0190556109eb565b015160001960f88460031b161c1916905589808061118f565b92936020600181928786015181550195019301611179565b6111f990846000526020600020601f850160051c81019160208610610dc957601f0160051c01906153a1565b896109c5565b015190508980610936565b91906003840160005280600020906000935b601f1984168510611260576001945083601f19811610611247575b505050811b016003820155610998565b015160001960f88460031b161c19169055888080611237565b8181015183556020948501946001909301929091019061121c565b6112aa90600385016000526020600020601f850160051c81019160208610610dc957601f0160051c01906153a1565b8861096f565b91906002840160005280600020906000935b601f1984168510611306576001945083601f198116106112ed575b505050811b016002820155610943565b015160001960f88460031b161c191690558880806112dd565b818101518355602094850194600190930192909101906112c2565b61135090600285016000526020600020601f850160051c81019160208610610dc957601f0160051c01906153a1565b88610919565b336000908152600080516020615fc8833981519152602052604090205460ff161561138357325b9261077b565b3361137d565b60405162461bcd60e51b815260206004820152601260248201527124b73b30b634b21032bc3834b930ba34b7b760711b6044820152606490fd5b60fd543410156106c35760405162461bcd60e51b8152602060048201526011602482015270125b9cdd59999a58da595b9d08199d5b99607a1b6044820152606490fd5b506106b46114126159af565b90506106ab565b50336000908152600080516020615fc8833981519152602052604090205460ff166106a4565b3461041857602036600319011261041857602061145d6004356158fe565b6040519015158152f35b34610418576040366003190112610418576104f3600435611486614f6b565b906114986114938261561e565b615ab5565b615dd9565b34610418576101a0366003190112610418576004356024356001600160401b038111610418576114d1903690600401614c63565b6044356001600160401b038111610418576114f0903690600401614c63565b916064356001600160401b03811161041857611510903690600401614c63565b906084356001600160401b03811161041857611530903690600401614c63565b60a4356001600160401b0381116104185761154f903690600401614c63565b9060c4356001600160401b0381116104185761156f903690600401614cc1565b9260e4356001600160401b0381116104185761158f90369060040161527d565b946101043580151581036104185761012435906005821015610418576101443592600384101561041857610164356001600160401b038111610418576115d9903690600401614c63565b96610184356001600160401b038111610418576115fa903690600401614c63565b96611603615959565b8660005261010260205260018060a01b036001604060002001541633148015611ff3575b61163090615451565b8660005261010260205261165260ff60086040600020015460081c161561575a565b61165e8c511515615790565b61166a8d5115156157cc565b61167683511515615806565b61168282511515615846565b623b53804201928342116110b75742841115611fbb576116a28b5161587f565b9d60005b8c518110156116d0578f906116c98f8f9383916107b1836107aa8160019961532e565b50016116a6565b50908e9392918e8a60005261010260205260026040600020019080519060018060401b038211610d0e576117048354614f97565b601f8111611f89575b50602090601f8311600114611f2257611730929160009183610fab5750506153b8565b90555b60008a81526101026020526040902081516003909101916001600160401b038211610d0e576117628354614f97565b601f8111611ef0575b50602090601f8311600114611e895761178e929160009183611e7e5750506153b8565b90555b60008981526101026020526040902081516004909101916001600160401b038211610d0e576117c08354614f97565b601f8111611e4c575b50602090601f8311600114611de5576117ec929160009183611dda5750506153b8565b90555b60008881526101026020526040902081516005909101916001600160401b038211610d0e5761181e8354614f97565b601f8111611da8575b50602090601f8311600114611d415761184a929160009183611d365750506153b8565b90555b60008781526101026020526040902081516007909101916001600160401b038211610d0e5761187c8354614f97565b601f8111611d04575b50602090601f8311600114611c9d576118a8929160009183610dd35750506153b8565b90555b85600052610102602052600660406000200190805190600160401b8211610d0e578254828455808310611c41575b506020019160005260206000206000925b828410611b5257505050600086815261010260205260409020600a81019290925550611952939261193b9290916119249190600801615390565b84600052610102602052600c60406000200161541a565b82600052610102602052600c6040600020016158dd565b80600052610102602052600d604060002001835160018060401b038111610d0e5761197d8254614f97565b601f8111611b20575b50602094601f8211600114611abb576119ac929394958291600092611ab05750506153b8565b90555b600052610102602052600e604060002001815160018060401b038111610d0e576119d98254614f97565b601f8111611a7e575b50602092601f8211600114611a1b57611a0692938291600092611a105750506153b8565b90555b6001606555005b015190508480610936565b601f1982169383600052806000209160005b868110611a665750836001959610611a4d575b505050811b019055611a09565b015160001960f88460031b161c19169055838080611a40565b91926020600181928685015181550194019201611a2d565b611aaa90836000526020600020601f840160051c81019160208510610dc957601f0160051c01906153a1565b836119e2565b015190508680610936565b601f1982169583600052806000209160005b888110611b0857508360019596979810611aef575b505050811b0190556119af565b015160001960f88460031b161c19169055858080611ae2565b91926020600181928685015181550194019201611acd565b611b4c90836000526020600020601f840160051c81019160208510610dc957601f0160051c01906153a1565b85611986565b805180518051906001600160401b038211610d0e57611b718554614f97565b601f8111611c0f575b50602090601f8311600114611bb6576020600294610f9085839660019996611baa96600092610fab5750506153b8565b019201930192906118ea565b90601f1983169186600052816000209260005b818110611bf7575094600185819895611baa9560209895899660029b10610ff857505050811b018855610f93565b92936020600181928786015181550195019301611bc9565b611c3b90866000526020600020601f850160051c81019160208610610dc957601f0160051c01906153a1565b8e611b7a565b6001600160ff1b03811681036110b7576001600160ff1b03831683036110b7578360005260206000209060011b8101908360011b015b818110611c8457506118d9565b80611c906002926153cb565b6000600182015501611c77565b90601f1983169184600052816000209260005b818110611cec5750908460019594939210611cd3575b505050811b0190556118ab565b015160001960f88460031b161c191690558b8080611cc6565b92936020600181928786015181550195019301611cb0565b611d3090846000526020600020601f850160051c81019160208610610dc957601f0160051c01906153a1565b8b611885565b015190508d80610936565b90601f1983169184600052816000209260005b818110611d905750908460019594939210611d77575b505050811b01905561184d565b015160001960f88460031b161c191690558c8080611d6a565b92936020600181928786015181550195019301611d54565b611dd490846000526020600020601f850160051c81019160208610610dc957601f0160051c01906153a1565b8c611827565b015190508e80610936565b90601f1983169184600052816000209260005b818110611e345750908460019594939210611e1b575b505050811b0190556117ef565b015160001960f88460031b161c191690558d8080611e0e565b92936020600181928786015181550195019301611df8565b611e7890846000526020600020601f850160051c81019160208610610dc957601f0160051c01906153a1565b8d6117c9565b015190508f80610936565b90601f1983169184600052816000209260005b818110611ed85750908460019594939210611ebf575b505050811b019055611791565b015160001960f88460031b161c191690558e8080611eb2565b92936020600181928786015181550195019301611e9c565b611f1c90846000526020600020601f850160051c81019160208610610dc957601f0160051c01906153a1565b8e61176b565b90601f1983169184600052816000209260005b818110611f715750908460019594939210611f58575b505050811b019055611733565b015160001960f88460031b161c191690558f8080611f4b565b92936020600181928786015181550195019301611f35565b611fb590846000526020600020601f850160051c81019160208610610dc957601f0160051c01906153a1565b8f61170d565b60405162461bcd60e51b815260206004820152601060248201526f24b73b30b634b210323ab930ba34b7b760811b6044820152606490fd5b50336000908152600080516020615fc8833981519152602052604090205460ff16611627565b34610418576020366003190112610418576001600160a01b0361203a614f81565b1660005260ff602052602060ff604060002054166040519015158152f35b3461041857602036600319011261041857612071614f81565b6120796159af565b156120ad573360009081526101016020526040902080546001600160a01b0319166001600160a01b03909216919091179055005b60405162461bcd60e51b815260206004820152602560248201527f4f6e6c79207061796d61737465722063616e207365742073706f6e736f726564604482015264103ab9b2b960d91b6064820152608490fd5b3461041857602036600319011261041857600435600052610100602052602060ff604060002054166040519015158152f35b346104185760203660031901126104185760043561214e61567e565b5061216161215b826158fe565b15615342565b600052610102602052604060002060405161217b81614bee565b8154815260018201546001600160a01b0316602082015261219e60028301614fd1565b60408201526121af60038301614fd1565b60608201526121c060048301614fd1565b60808201526121d160058301614fd1565b60a08201526006820180546121e581614caa565b916121f36040519384614c25565b818352602083019060005260206000206000915b8383106122da576122d6866122bc600e8a8960c085015261222a60078201614fd1565b60e085015260ff6008820154818116151561010087015260081c1615156101208501526009810154610140850152600a810154610160850152600b8101546101808501526122a460ff600c83015481811615156101a0880152612296828260081c166101c08901615378565b60101c166101e08601615384565b6122b0600d8201614fd1565b61020085015201614fd1565b610220820152604051918291602083526020830190615075565b0390f35b600260206001926040516122ed81614c0a565b6122f686614fd1565b815260ff8587015416151583820152815201920192019190612207565b3461041857602036600319011261041857336000908152600080516020615fc883398151915260205260409020546004359060ff1680156123b2575b61235890615451565b8060005261010260205261237a60ff60086040600020015460081c161561575a565b60008181526101026020526040812042600b820155600101546001600160a01b03169190600080516020615f088339815191529080a3005b50336000908152600080516020615f48833981519152602052604090205460ff1661234f565b34610418576020366003190112610418577e3b413cf14a67407425bd0b5c065b2de08876554d8489ad7dd4aa95604d280c6040600435612416615a5d565b60fd54908060fd5582519182526020820152a1005b3461041857600036600319011261041857602060ff60fe5460a01c166040519015158152f35b346104185760403660031901126104185761246a614f6b565b60043560005261010560205260406000209060018060a01b0316600052602052602060ff604060002054166124a26040518092614da1565bf35b3461041857600036600319011261041857602060405160008152f35b34610418576000366003190112610418573360005261010460205260406000206040518082602082945493848152019060005260206000209260005b81811061266b57505061251192500382614c25565b61251b815161570a565b9060005b815181101561265d57612532818361532e565b5160005261010260205260406000206040519061254e82614bee565b8054825260018101546001600160a01b0316602083015261257160028201614fd1565b604083015261258260038201614fd1565b606083015261259360048201614fd1565b60808301526125a460058201614fd1565b60a08301526006810180546125b881614caa565b916125c66040519384614c25565b81835260208301906000526020600020906000905b8382106126245750505050600e83926126029260c060019796015261222a60078201614fd1565b610220820152612612828661532e565b5261261d818561532e565b500161251f565b6002602060019260405161263781614c0a565b61264087614fd1565b815260ff85880154161515838201528152019301910190916125db565b604051806122d6858261521d565b84548352600194850194869450602090930192016124fc565b346104185760003660031901126104185760fb54600060015b8281111561281f57506126af9061570a565b60009160015b818111156126cb57604051806122d6858261521d565b6126d4816158fe565b156126e8575b6126e39061566f565b6126b5565b928360005261010260205260406000206040519061270582614bee565b8054825260018101546001600160a01b0316602083015261272860028201614fd1565b604083015261273960038201614fd1565b606083015261274a60048201614fd1565b608083015261275b60058201614fd1565b60a083015260068101805461276f81614caa565b9161277d6040519384614c25565b81835260208301906000526020600020906000905b8382106127e65750505050916127bd600e6126e395936127de9560c085015261222a60078201614fd1565b6102208201526127cd828761532e565b526127d8818661532e565b5061566f565b9390506126da565b600260206001926040516127f981614c0a565b61280287614fd1565b815260ff8588015416151583820152815201930191019091612792565b612828816158fe565b1561283c575b6128379061566f565b61269d565b906128496128379161566f565b91905061282e565b346104185760403660031901126104185761286a614f6b565b60043560005260c960205260406000209060018060a01b0316600052602052602060ff604060002054166040519015158152f35b3461041857602036600319011261041857336000908152600080516020615fc8833981519152602052604090205460ff1680156128fb575b6128df90615451565b6004356000526101036020526020604060002054604051908152f35b50336000908152600080516020615f48833981519152602052604090205460ff166128d6565b34610418576000366003190112610418576033546040516001600160a01b039091168152602090f35b3461041857600036600319011261041857602060fd54604051908152f35b34610418576000366003190112610418576020604051600080516020615fe88339815191528152f35b3461041857602036600319011261041857336000908152600080516020615fc8833981519152602052604090205460ff168015612a9e575b6129d290615451565b60043560005261010360205260406000208054906129ef82614caa565b916129fd6040519384614c25565b80835260208301809260005260206000206000915b838310612a8057848660405191829160208301906020845251809152604083019060408160051b85010192916000905b828210612a5157505050500390f35b91936001919395506020612a708192603f198a82030186528851614dae565b9601920192018594939192612a42565b60116020600192612a908561548c565b815201920192019190612a12565b50336000908152600080516020615f48833981519152602052604090205460ff166129c9565b3461041857600036600319011261041857612add615a5d565b603380546001600160a01b031981169091556000906001600160a01b0316600080516020615f888339815191528280a3005b34610418576020366003190112610418576004358060005261010260205260018060a01b036001604060002001541633148015612bc5575b612b5090615451565b8060005261010260205260ff60086040600020015460081c16612b8e57600090815261010260205260409020600801805461ff001916610100179055005b60405162461bcd60e51b815260206004820152600f60248201526e105b1c9958591e4819195b195d1959608a1b6044820152606490fd5b50336000908152600080516020615fc8833981519152602052604090205460ff16612b47565b346104185760203660031901126104185760043580151580612cb7575b612c1190615632565b80600052610102602052600b60406000200154421180612c97575b80612c7a575b612c3857005b600081815261010260205260408120600c8101805460ff1916600190811790915501546001600160a01b03169190600080516020615f088339815191529080a3005b508060005261010260205260ff600c604060002001541615612c32565b508060005261010260205260ff60086040600020015460081c1615612c2c565b5060fb54811115612c08565b3461041857604036600319011261041857612cdc614f6b565b336001600160a01b03821603612cf8576104f390600435615dd9565b60405162461bcd60e51b815260206004820152602f60248201527f416363657373436f6e74726f6c3a2063616e206f6e6c792072656e6f756e636560448201526e103937b632b9903337b91039b2b63360891b6064820152608490fd5b3461041857604036600319011261041857600435612d71614f6b565b90612d7e6114938261561e565b8060005260c9602052604060002060018060a01b03831660005260205260ff6040600020541615612dab57005b600081815260c9602090815260408083206001600160a01b0395909516808452949091528120805460ff1916600117905533929190600080516020615f288339815191529080a4005b34610418576020366003190112610418576020612e1260043561561e565b604051908152f35b3461041857600036600319011261041857612e33615a5d565b478015612e64576033546000918291829182916001600160a01b031682f115612e5857005b6040513d6000823e3d90fd5b60405162461bcd60e51b8152602060048201526012602482015271496e73756666696369656e742066756e647360701b6044820152606490fd5b34610418576000366003190112610418576020604051600080516020615fa88339815191528152f35b3461041857602036600319011261041857336000908152600080516020615fc8833981519152602052604090205460ff168015612f27575b612f0890615451565b600435600090815261010260205260409020600801805460ff19169055005b50336000908152600080516020615f48833981519152602052604090205460ff16612eff565b3461041857602036600319011261041857600435600090815261010260205260409020805460018201546001600160a01b031691612f8d60028201614fd1565b90612f9a60038201614fd1565b612fa660048301614fd1565b90612fb360058401614fd1565b91612fc060078501614fd1565b92600885015493600986015490600a87015492600b88015494600c89015496600d8a01612fec90614fd1565b99600e01612ff990614fd1565b9a6040519d8e809e81526020015260408d0161022090526102208d0161301e91614d62565b8c810360608e015261302f91614d62565b8b810360808d015261304091614d62565b8a810360a08c015261305191614d62565b89810360c08b015261306291614d62565b9460ff8116151560e08a015260081c60ff16151561010089015261012088015261014087015261016086015260ff811615156101808601526101a085018160081c60ff16906130b091614d94565b6101c085019060101c60ff16906130c691614d87565b8381036101e08501526130d891614d62565b8281036102008401526122d691614d62565b346104185760003660031901126104185760fe546040516001600160a01b039091168152602090f35b346104185760403660031901126104185761312c614f81565b602435801591821580920361041857613143615a5d565b6001600160a01b0316918215801591906131e3575b50156131aa5760fe80546001600160a81b031916831760a083901b60ff60a01b161790556040519081527f5f5b819a832682a4dd4ab0ce90e2cec76fcc5d6a2bdce427e69b1ab5b8d0aa7690602090a2005b60405162461bcd60e51b815260206004820152601160248201527024b73b30b634b2103830bcb6b0b9ba32b960791b6044820152606490fd5b905083613158565b3461041857606036600319011261041857600435613207614f6b565b60443591600483101561041857806000526101026020526040600020541515806133e2575b156133af57336000908152600080516020615fc8833981519152602052604090205460ff168015613389575b61326490939293615451565b6001600160a01b0390921691600091825b8260005261010360205260406000205481101561337f5782600052610103602052846132a5826040600020615312565b50600101546001600160a01b0316146132c057600101613275565b8293509061332c8160106133256020957f89e7b1b4fee8533190061d8f8762af542452e09f527602fc2272cb6abe5d908e9760005261010587526133128460408c8160002060009182528b5220615439565b8860005261010387526040600020615312565b5001615439565b6133396040518092614da1565ba360015b1561334457005b60405162461bcd60e51b8152602060048201526013602482015272105c1c1b1a58d85b9d081b9bdd08199bdd5b99606a1b6044820152606490fd5b505050905061333d565b50336000908152600080516020615f48833981519152602052604090205460ff16613258565b60405162461bcd60e51b815260206004820152600b60248201526a24b73b30b634b2103537b160a91b6044820152606490fd5b508060005261010260205260ff60086040600020015460081c161561322c565b3461041857604036600319011261041857600435602435600061022060405161342a81614bee565b8281528260208201526060604082015260608082015260606080820152606060a0820152606060c0820152606060e0820152606061010082015260606101208201526060610140820152606061016082015282610180820152826101a082015260606101c082015260606101e0820152826102008201520152600080516020615fe883398151915260005260c9602052604060002060018060a01b03331660005260205260ff6040600020541680156135e2575b6134e790615451565b816000526101026020526040600020541515806135c2575b1561358857816000526101036020526040600020548110156135535761353961353f916122d6936000526101036020526040600020615312565b5061548c565b604051918291602083526020830190614dae565b60405162461bcd60e51b815260206004820152600d60248201526c092dcecc2d8d2c840d2dcc8caf609b1b6044820152606490fd5b60405162461bcd60e51b8152602060048201526012602482015271129bd888191bd95cc81b9bdd08195e1a5cdd60721b6044820152606490fd5b508160005261010260205260ff60086040600020015460081c16156134ff565b50336000908152600080516020615f48833981519152602052604090205460ff166134de565b610160366003190112610418576024356001600160401b03811161041857613634903690600401614c63565b60e0526044356001600160401b03811161041857613656903690600401614c63565b60a0526064356001600160401b03811161041857613678903690600401614c63565b6084356001600160401b03811161041857613697903690600401614c63565b60a4356001600160401b038111610418576136b6903690600401614cc1565b9060c4356001600160401b038111610418576136d6903690600401614c63565b9060e4356001600160401b038111610418576136f6903690600401614c63565b93610104356001600160401b03811161041857613717903690600401614c63565b92610124356001600160401b03811161041857613738903690600401614c63565b95610144356001600160401b03811161041857613759903690600401614c63565b93613762615959565b61377061215b6004356158fe565b60043560005261010260205260ff6008604060002001541615614a785760e0515115614a465760a0515115614a13578251156149e3576004356000526101026020526040600020604051956137c487614bee565b8154875260018201546001600160a01b031660208801526137e760028301614fd1565b60408801526137f860038301614fd1565b606088015261380960048301614fd1565b608088015261381a60058301614fd1565b60a088015260068201805461382e81614caa565b9161383c6040519384614c25565b818352602083019060005260206000206000915b8383106149aa575050505060c088015261386c60078301614fd1565b60e088015260ff600883015481811615156101008a015260081c1615156101208801526009820154610140880152600a820154610160880152600b820154610180880152613907600e600c8401549360ff851615156101a08b01526138ef60ff6101c08c01966138e1828260081c1689615378565b60101c166101e08c01615384565b6138fb600d8201614fd1565b6102008b015201614fd1565b610220880152885160c088015151036149715760005b60c08801518051821015613993576139378260209261532e565b510151613947575b60010161391d565b613951818b61532e565b515161393f5760405162461bcd60e51b81526020600482015260146024820152735265717569726564206669656c6420656d70747960601b6044820152606490fd5b5050898995969798600060c05260c05160c0526139ae6159af565b15614968576139bb6159ec565b60c05260018060a01b0360c051168060005260ff6020526040600020600160ff198254161790556040519060208252601160208301527039bab136b4ba20b8383634b1b0ba34b7b760791b6040830152600080516020615f6883398151915260603393a33360009081526101016020526040902080546001600160a01b03191690555b600435600052610105602052604060002060018060a01b0360c0511660005260205260ff604060002054166004811015610e7e5761493157600160fc540160fc556101e08a0151936003851015610e7e5751956005871015610e7e578a98613b4298613b36976102206102008d01519c01519c604051608052613ac2608051614bee565b6004356080515260018060a01b0360c051166020608051015260e0516040608051015260a0516060608051015260808051015260a0608051015260c0608051015260e06080510152610100608051015261012060805101526101406080510152610160608051015261018060805101615384565b6101a060805101615378565b6101c060805101526101e060805101524261020060805101526000610220608051015260043560005261010360205260406000208054600160401b811015610d0e57613b9391600182018155615312565b61491b576080518051825560208101516001830180546001600160a01b0319166001600160a01b03929092169190911790556040015180519092906001600160401b038111610d0e57613be96002840154614f97565b601f81116148e6575b506020601f8211600114614879578190613c169394956000926147cc5750506153b8565b60028301555b6080516060015180519092906001600160401b038111610d0e57613c436003830154614f97565b601f8111614844575b506020601f82116001146147d7578190613c709394956000926147cc5750506153b8565b60038201555b608080510151805190929060048301906001600160401b038111610d0e57613c9e8254614f97565b601f811161479a575b50602094601f821160011461473557613ccd929394958291600092611ab05750506153b8565b90555b60805160a00151805190929060058201906001600160401b038111610d0e57613cf98254614f97565b601f8111614703575b50602094601f821160011461469e57613d28929394958291600092611ab05750506153b8565b90555b60805160c0015180516006830191600160401b8211610d0e57825482845580831061466f575b50602001916000526020600020916000905b8282106145705760805160e0015180518690889060078301906001600160401b038111610d0e57613d948254614f97565b601f811161453e575b50602094601f82116001146144d957613dc3929394958291600092611ab05750506153b8565b90555b6080516101000151805190929060088201906001600160401b038111610d0e57613df08254614f97565b601f81116144a7575b50602094601f821160011461444257613e1f929394958291600092611ab05750506153b8565b90555b6080516101200151805190929060098301906001600160401b038111610d0e57613e4c8254614f97565b601f8111614410575b50602094601f82116001146143ab57613e7b929394958291600092611ab05750506153b8565b90555b60805161014001518051909290600a8201906001600160401b038111610d0e57613ea88254614f97565b601f8111614379575b50602094601f821160011461431457613ed7929394958291600092611ab05750506153b8565b90555b60805161016001518051909290600b8301906001600160401b038111610d0e57613f048254614f97565b601f81116142e2575b50602094601f821160011461427d57613f33929394958291600092611ab05750506153b8565b90555b608051610180015191600c81016003841015610e7e5760009360ff801983541691161781556101a060805101519060058210156142695790613f779161541a565b6080516101c001518051600d8301916001600160401b0382116141c257613f9e8354614f97565b601f8111614239575b50602090601f83116001146141d657613fc992918791836141245750506153b8565b90555b6080516101e001518051600e8301916001600160401b0382116141c257613ff38354614f97565b601f8111614192575b50602090601f831160011461412f5761401e92918791836141245750506153b8565b90555b608051610200810151600f8301556102200151906004821015614110576101e09291601061404f9201615439565b60043583526101056020908152604080852060c0516001600160a01b031686529091528320805460ff19169055015160038110156140fc5760405190606082526140ac6140a16060840160e051614d62565b916020840190614d87565b81810360408301527fd86c4c5a378fb74722b2dca99901010c59ab06d49da30c9927514b870adfa7bd60018060a01b0360c0511692806140f16004359460a051614d62565b0390a3600160655580f35b634e487b7160e01b82526021600452602482fd5b634e487b7160e01b84526021600452602484fd5b015190508780610936565b8387528187209190601f198416885b81811061417a5750908460019594939210614161575b505050811b019055614021565b015160001960f88460031b161c19169055868080614154565b9293602060018192878601518155019501930161413e565b6141bc9084885260208820601f850160051c81019160208610610dc957601f0160051c01906153a1565b86613ffc565b634e487b7160e01b86526041600452602486fd5b8387528187209190601f198416885b8181106142215750908460019594939210614208575b505050811b019055613fcc565b015160001960f88460031b161c191690558680806141fb565b929360206001819287860151815501950193016141e5565b6142639084885260208820601f850160051c81019160208610610dc957601f0160051c01906153a1565b86613fa7565b634e487b7160e01b85526021600452602485fd5b601f1982169583600052806000209160005b8881106142ca575083600195969798106142b1575b505050811b019055613f36565b015160001960f88460031b161c191690558580806142a4565b9192602060018192868501518155019401920161428f565b61430e90836000526020600020601f840160051c81019160208510610dc957601f0160051c01906153a1565b85613f0d565b601f1982169583600052806000209160005b88811061436157508360019596979810614348575b505050811b019055613eda565b015160001960f88460031b161c1916905585808061433b565b91926020600181928685015181550194019201614326565b6143a590836000526020600020601f840160051c81019160208510610dc957601f0160051c01906153a1565b85613eb1565b601f1982169583600052806000209160005b8881106143f8575083600195969798106143df575b505050811b019055613e7e565b015160001960f88460031b161c191690558580806143d2565b919260206001819286850151815501940192016143bd565b61443c90836000526020600020601f840160051c81019160208510610dc957601f0160051c01906153a1565b85613e55565b601f1982169583600052806000209160005b88811061448f57508360019596979810614476575b505050811b019055613e22565b015160001960f88460031b161c19169055858080614469565b91926020600181928685015181550194019201614454565b6144d390836000526020600020601f840160051c81019160208510610dc957601f0160051c01906153a1565b85613df9565b601f1982169583600052806000209160005b8881106145265750836001959697981061450d575b505050811b019055613dc6565b015160001960f88460031b161c19169055858080614500565b919260206001819286850151815501940192016144eb565b61456a90836000526020600020601f840160051c81019160208510610dc957601f0160051c01906153a1565b85613d9d565b80518051906001600160401b038211610d0e5761458d8654614f97565b601f811161463d575b50602090601f83116001146145d057926145c183600195946020948796600092610dd35750506153b8565b87555b01940191019092613d63565b90601f1983169187600052816000209260005b818110614625575093602093600196938796938388951061460c575b505050811b0187556145c4565b015160001960f88460031b161c191690558b80806145ff565b929360206001819287860151815501950193016145e3565b61466990876000526020600020601f850160051c81019160208610610dc957601f0160051c01906153a1565b88614596565b8360005282602060002091820191015b81811061468c5750613d51565b806146986001926153cb565b0161467f565b601f1982169583600052806000209160005b8881106146eb575083600195969798106146d2575b505050811b019055613d2b565b015160001960f88460031b161c191690558580806146c5565b919260206001819286850151815501940192016146b0565b61472f90836000526020600020601f840160051c81019160208510610dc957601f0160051c01906153a1565b85613d02565b601f1982169583600052806000209160005b88811061478257508360019596979810614769575b505050811b019055613cd0565b015160001960f88460031b161c1916905585808061475c565b91926020600181928685015181550194019201614747565b6147c690836000526020600020601f840160051c81019160208510610dc957601f0160051c01906153a1565b85613ca7565b015190508580610936565b60038301600052806000209060005b601f198416811061482c5750600193949583601f19811610614813575b505050811b016003820155613c76565b015160001960f88460031b161c19169055848080614803565b9091602060018192858a0151815501930191016147e6565b61487390600384016000526020600020601f840160051c81019160208510610dc957601f0160051c01906153a1565b84613c4c565b60028401600052806000209060005b601f19841681106148ce5750600193949583601f198116106148b5575b505050811b016002830155613c1c565b015160001960f88460031b161c191690558480806148a5565b9091602060018192858a015181550193019101614888565b61491590600285016000526020600020601f840160051c81019160208510610dc957601f0160051c01906153a1565b84613bf2565b634e487b7160e01b600052600060045260246000fd5b60405162461bcd60e51b815260206004820152600f60248201526e105b1c9958591e48185c1c1b1a5959608a1b6044820152606490fd5b3360c052613a3e565b60405162461bcd60e51b8152602060048201526011602482015270496e636f6d706c657465206669656c647360781b6044820152606490fd5b600260206001926040516149bd81614c0a565b6149c686614fd1565b815260ff8587015416151583820152815201920192019190613850565b60405162461bcd60e51b815260206004820152600860248201526722b6b83a3c9021ab60c11b6044820152606490fd5b60405162461bcd60e51b815260206004820152600b60248201526a115b5c1d1e48195b585a5b60aa1b6044820152606490fd5b60405162461bcd60e51b815260206004820152600a602482015269456d707479206e616d6560b01b6044820152606490fd5b60405162461bcd60e51b815260206004820152600660248201526510db1bdcd95960d21b6044820152606490fd5b34610418576020366003190112610418576004358060005261010360205260406000205490614aed614ad783614caa565b92614ae56040519485614c25565b808452614caa565b602083019190601f190136833760005b81600052610103602052604060002054811015614b4c5760019082600052610103602052614b2f816040600020615312565b5082808060a01b0391015416614b45828761532e565b5201614afd565b5050906040519182916020830190602084525180915260408301919060005b818110614b79575050500390f35b82516001600160a01b0316845285945060209384019390920191600101614b6b565b34610418576020366003190112610418576004359063ffffffff60e01b821680920361041857602091637965db0b60e01b8114908115614bdd575b5015158152f35b6301ffc9a760e01b14905083614bd6565b61024081019081106001600160401b03821117610d0e57604052565b604081019081106001600160401b03821117610d0e57604052565b601f909101601f19168101906001600160401b03821190821017610d0e57604052565b6001600160401b038111610d0e57601f01601f191660200190565b81601f8201121561041857803590614c7a82614c48565b92614c886040519485614c25565b8284526020838301011161041857816000926020809301838601378301015290565b6001600160401b038111610d0e5760051b60200190565b9080601f83011215610418578135614cd881614caa565b92614ce66040519485614c25565b81845260208085019260051b820101918383116104185760208201905b838210614d1257505050505090565b81356001600160401b03811161041857602091614d3487848094880101614c63565b815201910190614d03565b60005b838110614d525750506000910152565b8181015183820152602001614d42565b90602091614d7b81518092818552858086019101614d3f565b601f01601f1916010190565b906003821015610e7e5752565b906005821015610e7e5752565b906004821015610e7e5752565b908151815260018060a01b036020830151166020820152614e1f614e0d614dfb614de960408601516102406040870152610240860190614d62565b60608601518582036060870152614d62565b60808501518482036080860152614d62565b60a084015183820360a0850152614d62565b60c08301519082810360c0840152815180825260208201916020808360051b8301019401926000915b838310614f3e5750505050509061022080614f24614f10614ed4614ec0614eac614e98614e84614f3b9a60e08d01518b820360e08d0152614d62565b6101008c01518a82036101008c0152614d62565b6101208b01518982036101208b0152614d62565b6101408a01518882036101408a0152614d62565b610160890151878203610160890152614d62565b614ee8610180890151610180880190614d87565b614efc6101a08901516101a0880190614d94565b6101c08801518682036101c0880152614d62565b6101e08701518582036101e0870152614d62565b946102008101516102008501520151910190614da1565b90565b9091929394602080614f5c600193601f198682030187528951614d62565b97019301930191939290614e48565b602435906001600160a01b038216820361041857565b600435906001600160a01b038216820361041857565b90600182811c92168015614fc7575b6020831014614fb157565b634e487b7160e01b600052602260045260246000fd5b91607f1691614fa6565b9060405191826000825492614fe584614f97565b8084529360018116908115615053575060011461500c575b5061500a92500383614c25565b565b90506000929192526020600020906000915b81831061503757505090602061500a9282010138614ffd565b602091935080600191548385890101520191019091849261501e565b90506020925061500a94915060ff191682840152151560051b82010138614ffd565b9190918051835260018060a01b0360208201511660208401526150e86150d66150c46150b260408501516102406040890152610240880190614d62565b60608501518782036060890152614d62565b60808401518682036080880152614d62565b60a083015185820360a0870152614d62565b9260c08201519381810360c0830152845180825260208201916020808360051b8301019701926000915b8383106151da5750505050506102206151c861513e614f3b959660e086015185820360e0870152614d62565b610100850151151561010085015261012085015115156101208501526101408501516101408501526101608501516101608501526101808501516101808501526101a085015115156101a08501526151a06101c08601516101c0860190614d94565b6151b46101e08601516101e0860190614d87565b610200850151848203610200860152614d62565b92015190610220818403910152614d62565b9091929397602080600192601f198582030186528b519082806152068451604085526040850190614d62565b93015115159101529a019301930191939290615112565b602081016020825282518091526040820191602060408360051b8301019401926000915b83831061525057505050505090565b909192939460208061526e600193603f198682030187528951615075565b97019301930191939290615241565b9080601f830112156104185781359061529582614caa565b926152a36040519485614c25565b82845260208085019360051b82010191821161041857602001915b8183106152cb5750505090565b82358015158103610418578152602092830192016152be565b80548210156152fc5760005260206000200190600090565b634e487b7160e01b600052603260045260246000fd5b80548210156152fc576000526011602060002091020190600090565b80518210156152fc5760209160051b010190565b1561534957565b60405162461bcd60e51b8152602060048201526007602482015266115e1c1a5c995960ca1b6044820152606490fd5b6005821015610e7e5752565b6003821015610e7e5752565b9060ff801983541691151516179055565b8181106153ac575050565b600081556001016153a1565b8160011b916000199060031b1c19161790565b6153d58154614f97565b90816153df575050565b81601f600093116001146153f1575055565b8183526020832061540d91601f0160051c8101906001016153a1565b8082528160208120915555565b906005811015610e7e5761ff0082549160081b169061ff001916179055565b906004811015610e7e5760ff80198354169116179055565b1561545857565b60405162461bcd60e51b815260206004820152600c60248201526b155b985d5d1a1bdc9a5e995960a21b6044820152606490fd5b9060405161549981614bee565b8254815260018301546001600160a01b031660208201529182906154bf60028201614fd1565b60408301526154d060038201614fd1565b60608301526154e160048201614fd1565b60808301526154f260058201614fd1565b60a083015260068101805461550681614caa565b916155146040519384614c25565b818352602083019060005260206000206000915b838310615601575050505060ff9160109160c085015261554a60078201614fd1565b60e085015261555b60088201614fd1565b61010085015261556d60098201614fd1565b61012085015261557f600a8201614fd1565b610140850152615591600b8201614fd1565b6101608501526155be83600c8301546155b08282166101808901615384565b60081c166101a08601615378565b6155ca600d8201614fd1565b6101c08501526155dc600e8201614fd1565b6101e0850152600f810154610200850152015416906004821015610e7e576102200152565b60016020819261561085614fd1565b815201920192019190615528565b60005260c960205260016040600020015490565b1561563957565b60405162461bcd60e51b815260206004820152600e60248201526d125b9d985b1a59081a9bd888125160921b6044820152606490fd5b60001981146110b75760010190565b6040519061568b82614bee565b606061022083600081526000602082015282604082015282808201528260808201528260a08201528260c08201528260e08201526000610100820152600061012082015260006101408201526000610160820152600061018082015260006101a082015260006101c082015260006101e0820152826102008201520152565b9061571482614caa565b6157216040519182614c25565b8281528092615732601f1991614caa565b019060005b82811061574357505050565b60209061574e61567e565b82828501015201615737565b1561576157565b60405162461bcd60e51b815260206004820152600760248201526611195b195d195960ca1b6044820152606490fd5b1561579757565b60405162461bcd60e51b815260206004820152600d60248201526c456d707479206f72674e616d6560981b6044820152606490fd5b156157d357565b60405162461bcd60e51b815260206004820152600b60248201526a456d707479207469746c6560a81b6044820152606490fd5b1561580d57565b60405162461bcd60e51b815260206004820152601160248201527022b6b83a3c903232b9b1b934b83a34b7b760791b6044820152606490fd5b1561584d57565b60405162461bcd60e51b815260206004820152600a602482015269456d707479206c6f676f60b01b6044820152606490fd5b9061588982614caa565b6158966040519182614c25565b82815280926158a7601f1991614caa565b019060005b8281106158b857505050565b6020906040516158c781614c0a565b60608152600083820152828285010152016158ac565b906003811015610e7e5762ff000082549160101b169062ff00001916179055565b8015158061594d575b61591090615632565b8060005261010260205260ff60086040600020015460081c16908115615934575090565b9050600052610102602052600b60406000200154421190565b5060fb54811115615907565b60026065541461596a576002606555565b60405162461bcd60e51b815260206004820152601f60248201527f5265656e7472616e637947756172643a207265656e7472616e742063616c6c006044820152606490fd5b60fe5460ff8160a01c1690816159d9575b816159c9575090565b6001600160a01b03163314919050565b6001600160a01b038116151591506159c0565b6159f46159af565b6159fc573390565b33600090815261010160205260409020546001600160a01b03168015615a1f5790565b60405162461bcd60e51b815260206004820152601660248201527514dc1bdb9cdbdc9959081d5cd95c881b9bdd081cd95d60521b6044820152606490fd5b6033546001600160a01b03163303615a7157565b606460405162461bcd60e51b815260206004820152602060248201527f4f776e61626c653a2063616c6c6572206973206e6f7420746865206f776e65726044820152fd5b600081815260c96020908152604080832033845290915290205460ff1615615ada5750565b3390600090615ae9602a614c48565b92615af76040519485614c25565b602a8452615b05602a614c48565b602085019390601f1901368537845115615cfa5760308453845160011015615cfa57607860218601536029905b60018211615d0e575050615c4a57600090615b4d6042614c48565b90615b5b6040519283614c25565b60428252615b696042614c48565b602083019390601f1901368537825115615cfa5760308453825160011015615cfa57607860218401536041905b60018211615c8e575050615c4a57615c46936037615c269383615c15615bec976011965060405198899676020b1b1b2b9b9a1b7b73a3937b61d1030b1b1b7bab73a1604d1b602089015251809287890190614d3f565b8501917001034b99036b4b9b9b4b733903937b6329607d1b858401525180936048840190614d3f565b01010301601f198101835282614c25565b60405162461bcd60e51b8152602060048201529182916024830190614d62565b0390fd5b606460405162461bcd60e51b815260206004820152602060248201527f537472696e67733a20686578206c656e67746820696e73756666696369656e746044820152fd5b9091600f81166010811015615ce6576f181899199a1a9b1b9c1cb0b131b232b360811b901a615cbd8486615ef6565b5360041c918015615cd2576000190190615b96565b634e487b7160e01b82526011600452602482fd5b634e487b7160e01b83526032600452602483fd5b634e487b7160e01b81526032600452602490fd5b9091600f81166010811015615ce6576f181899199a1a9b1b9c1cb0b131b232b360811b901a615d3d8488615ef6565b5360041c918015615cd2576000190190615b32565b6001600160a01b0381166000908152600080516020615f48833981519152602052604090205460ff1615615d835750565b6001600160a01b03166000818152600080516020615f4883398151915260205260408120805460ff19166001179055339190600080516020615fa883398151915290600080516020615f288339815191529080a4565b8060005260c9602052604060002060018060a01b03831660005260205260ff60406000205416615e07575050565b600081815260c9602090815260408083206001600160a01b0395909516808452949091528120805460ff19169055339291907ff6391f5c32d9c69d2a47ea670b442974b53935d1edc7fd64eb21e047a839171b9080a4565b603380546001600160a01b039283166001600160a01b031982168117909255909116600080516020615f88833981519152600080a3565b15615e9d57565b60405162461bcd60e51b815260206004820152602b60248201527f496e697469616c697a61626c653a20636f6e7472616374206973206e6f74206960448201526a6e697469616c697a696e6760a81b6064820152608490fd5b9081518110156152fc57016020019056fe2ff4b096ccebd1944c1681b8f847b6588aa34a90308ec467bb927e10c01921512f8788117e7eff1d82e926ec794901d17c78024a50270940304540a733656f0d3841c884bd1f0b550177c7e46cef24001e3ef660a616587de9f1aae5e13cfd20a1eda142d3bf73d78403740e8eecdf3062f52e10060378e3e2c14b9967fd8ba18be0079c531659141344cd1fd0a4f28419497f9722a3daafe3b4186f6b6457e0fc7c36207174f786648d2e624616a4b40e15fd7f0268b4e36af5057f0c43c83556eafcfe4e056e5ee1febf92b17728968883505f0e8dc799e4f43119d826ca85a49807205ce4d355092ef5a8a18f56e8913cf4a201fbe287825b095693c21775a264697066735822122026a06ef1af8da870755cf6166bc142efba7bfe210f6cd592a7e89c3807e26fad64736f6c634300081c0033",
  "linkReferences": {},
  "deployedLinkReferences": {}
}