{
  "_format": "hh-sol-artifact-1",
  "contractName": "JobBoard",
  "sourceName": "contracts/JobBoard.sol",
  "abi": [
    {
      "inputs": [
        {
          "internalType": "uint256",
          "name": "_serviceFee",
          "type": "uint256"
        }
      ],
      "stateMutability": "nonpayable",
      "type": "constructor"
    },
    {
      "anonymous": false,
      "inputs": [
        {
          "indexed": true,
          "internalType": "uint256",
          "name": "jobId",
          "type": "uint256"
        },
        {
          "indexed": true,
          "internalType": "address",
          "name": "applicant",
          "type": "address"
        },
        {
          "indexed": false,
          "internalType": "enum JobBoard.ApplicationState",
          "name": "newState",
          "type": "uint8"
        }
      ],
      "name": "ApplicationStateChanged",
      "type": "event"
    },
    {
      "anonymous": false,
      "inputs": [
        {
          "indexed": true,
          "internalType": "uint256",
          "name": "jobId",
          "type": "uint256"
        },
        {
          "indexed": true,
          "internalType": "address",
          "name": "application",
          "type": "address"
        },
        {
          "indexed": false,
          "internalType": "string",
          "name": "name",
          "type": "string"
        },
        {
          "indexed": false,
          "internalType": "enum JobBoard.WorkMode",
          "name": "workMode",
          "type": "uint8"
        },
        {
          "indexed": false,
          "internalType": "string",
          "name": "email",
          "type": "string"
        }
      ],
      "name": "ApplicationSubmitted",
      "type": "event"
    },
    {
      "anonymous": false,
      "inputs": [
        {
          "indexed": true,
          "internalType": "uint256",
          "name": "jobId",
          "type": "uint256"
        },
        {
          "indexed": true,
          "internalType": "address",
          "name": "employer",
          "type": "address"
        }
      ],
      "name": "JobExpired",
      "type": "event"
    },
    {
      "anonymous": false,
      "inputs": [
        {
          "indexed": true,
          "internalType": "uint256",
          "name": "jobId",
          "type": "uint256"
        },
        {
          "indexed": true,
          "internalType": "address",
          "name": "employer",
          "type": "address"
        },
        {
          "indexed": false,
          "internalType": "string",
          "name": "title",
          "type": "string"
        },
        {
          "indexed": false,
          "internalType": "string",
          "name": "orgName",
          "type": "string"
        }
      ],
      "name": "JobPosted",
      "type": "event"
    },
    {
      "anonymous": false,
      "inputs": [
        {
          "indexed": true,
          "internalType": "address",
          "name": "previousOwner",
          "type": "address"
        },
        {
          "indexed": true,
          "internalType": "address",
          "name": "newOwner",
          "type": "address"
        }
      ],
      "name": "OwnershipTransferred",
      "type": "event"
    },
    {
      "anonymous": false,
      "inputs": [
        {
          "indexed": true,
          "internalType": "bytes32",
          "name": "role",
          "type": "bytes32"
        },
        {
          "indexed": true,
          "internalType": "bytes32",
          "name": "previousAdminRole",
          "type": "bytes32"
        },
        {
          "indexed": true,
          "internalType": "bytes32",
          "name": "newAdminRole",
          "type": "bytes32"
        }
      ],
      "name": "RoleAdminChanged",
      "type": "event"
    },
    {
      "anonymous": false,
      "inputs": [
        {
          "indexed": true,
          "internalType": "bytes32",
          "name": "role",
          "type": "bytes32"
        },
        {
          "indexed": true,
          "internalType": "address",
          "name": "account",
          "type": "address"
        },
        {
          "indexed": true,
          "internalType": "address",
          "name": "sender",
          "type": "address"
        }
      ],
      "name": "RoleGranted",
      "type": "event"
    },
    {
      "anonymous": false,
      "inputs": [
        {
          "indexed": true,
          "internalType": "bytes32",
          "name": "role",
          "type": "bytes32"
        },
        {
          "indexed": true,
          "internalType": "address",
          "name": "account",
          "type": "address"
        },
        {
          "indexed": true,
          "internalType": "address",
          "name": "sender",
          "type": "address"
        }
      ],
      "name": "RoleRevoked",
      "type": "event"
    },
    {
      "anonymous": false,
      "inputs": [
        {
          "indexed": false,
          "internalType": "uint256",
          "name": "oldFee",
          "type": "uint256"
        },
        {
          "indexed": false,
          "internalType": "uint256",
          "name": "newFee",
          "type": "uint256"
        }
      ],
      "name": "ServiceFeeUpdated",
      "type": "event"
    },
    {
      "inputs": [],
      "name": "ADMIN_ROLE",
      "outputs": [
        {
          "internalType": "bytes32",
          "name": "",
          "type": "bytes32"
        }
      ],
      "stateMutability": "view",
      "type": "function"
    },
    {
      "inputs": [],
      "name": "DEFAULT_ADMIN_ROLE",
      "outputs": [
        {
          "internalType": "bytes32",
          "name": "",
          "type": "bytes32"
        }
      ],
      "stateMutability": "view",
      "type": "function"
    },
    {
      "inputs": [],
      "name": "EMPLOYER_ROLE",
      "outputs": [
        {
          "internalType": "bytes32",
          "name": "",
          "type": "bytes32"
        }
      ],
      "stateMutability": "view",
      "type": "function"
    },
    {
      "inputs": [],
      "name": "JOB_MANAGER_ROLE",
      "outputs": [
        {
          "internalType": "bytes32",
          "name": "",
          "type": "bytes32"
        }
      ],
      "stateMutability": "view",
      "type": "function"
    },
    {
      "inputs": [
        {
          "internalType": "uint256",
          "name": "",
          "type": "uint256"
        },
        {
          "internalType": "address",
          "name": "",
          "type": "address"
        }
      ],
      "name": "applicationStates",
      "outputs": [
        {
          "internalType": "enum JobBoard.ApplicationState",
          "name": "",
          "type": "uint8"
        }
      ],
      "stateMutability": "view",
      "type": "function"
    },
    {
      "inputs": [
        {
          "internalType": "uint256",
          "name": "jobId",
          "type": "uint256"
        },
        {
          "internalType": "string",
          "name": "name",
          "type": "string"
        },
        {
          "internalType": "string",
          "name": "email",
          "type": "string"
        },
        {
          "internalType": "string",
          "name": "phoneNumber",
          "type": "string"
        },
        {
          "internalType": "string",
          "name": "location",
          "type": "string"
        },
        {
          "internalType": "string",
          "name": "cvCID",
          "type": "string"
        },
        {
          "internalType": "string[]",
          "name": "fieldResponses",
          "type": "string[]"
        }
      ],
      "name": "applyForJob",
      "outputs": [],
      "stateMutability": "nonpayable",
      "type": "function"
    },
    {
      "inputs": [
        {
          "internalType": "uint256",
          "name": "jobId",
          "type": "uint256"
        }
      ],
      "name": "checkJobExpiration",
      "outputs": [],
      "stateMutability": "nonpayable",
      "type": "function"
    },
    {
      "inputs": [
        {
          "internalType": "bytes32",
          "name": "role",
          "type": "bytes32"
        },
        {
          "internalType": "address",
          "name": "account",
          "type": "address"
        }
      ],
      "name": "checkRole",
      "outputs": [
        {
          "internalType": "bool",
          "name": "",
          "type": "bool"
        }
      ],
      "stateMutability": "view",
      "type": "function"
    },
    {
      "inputs": [
        {
          "internalType": "uint256",
          "name": "jobId",
          "type": "uint256"
        }
      ],
      "name": "closeJob",
      "outputs": [],
      "stateMutability": "nonpayable",
      "type": "function"
    },
    {
      "inputs": [
        {
          "internalType": "uint256",
          "name": "id",
          "type": "uint256"
        }
      ],
      "name": "deleteJob",
      "outputs": [],
      "stateMutability": "nonpayable",
      "type": "function"
    },
    {
      "inputs": [
        {
          "internalType": "uint256",
          "name": "id",
          "type": "uint256"
        },
        {
          "internalType": "string",
          "name": "orgName",
          "type": "string"
        },
        {
          "internalType": "string",
          "name": "title",
          "type": "string"
        },
        {
          "internalType": "string",
          "name": "description",
          "type": "string"
        },
        {
          "internalType": "string",
          "name": "orgEmail",
          "type": "string"
        },
        {
          "internalType": "string",
          "name": "logoCID",
          "type": "string"
        },
        {
          "internalType": "string[]",
          "name": "fieldName",
          "type": "string[]"
        },
        {
          "internalType": "bool[]",
          "name": "isRequired",
          "type": "bool[]"
        },
        {
          "internalType": "bool",
          "name": "isOpen",
          "type": "bool"
        },
        {
          "internalType": "enum JobBoard.JobType",
          "name": "jobType",
          "type": "uint8"
        },
        {
          "internalType": "enum JobBoard.WorkMode",
          "name": "workMode",
          "type": "uint8"
        },
        {
          "internalType": "string",
          "name": "minimumSalary",
          "type": "string"
        },
        {
          "internalType": "string",
          "name": "maximumSalary",
          "type": "string"
        }
      ],
      "name": "editJob",
      "outputs": [],
      "stateMutability": "nonpayable",
      "type": "function"
    },
    {
      "inputs": [
        {
          "internalType": "address",
          "name": "",
          "type": "address"
        },
        {
          "internalType": "uint256",
          "name": "",
          "type": "uint256"
        }
      ],
      "name": "employerJobs",
      "outputs": [
        {
          "internalType": "uint256",
          "name": "",
          "type": "uint256"
        }
      ],
      "stateMutability": "view",
      "type": "function"
    },
    {
      "inputs": [
        {
          "internalType": "uint256",
          "name": "jobId",
          "type": "uint256"
        }
      ],
      "name": "expireJob",
      "outputs": [],
      "stateMutability": "nonpayable",
      "type": "function"
    },
    {
      "inputs": [],
      "name": "getAllJobs",
      "outputs": [
        {
          "components": [
            {
              "internalType": "uint256",
              "name": "id",
              "type": "uint256"
            },
            {
              "internalType": "address",
              "name": "employer",
              "type": "address"
            },
            {
              "internalType": "string",
              "name": "orgName",
              "type": "string"
            },
            {
              "internalType": "string",
              "name": "title",
              "type": "string"
            },
            {
              "internalType": "string",
              "name": "description",
              "type": "string"
            },
            {
              "internalType": "string",
              "name": "orgEmail",
              "type": "string"
            },
            {
              "components": [
                {
                  "internalType": "string",
                  "name": "fieldName",
                  "type": "string"
                },
                {
                  "internalType": "bool",
                  "name": "isRequired",
                  "type": "bool"
                }
              ],
              "internalType": "struct JobBoard.CustomField[]",
              "name": "customField",
              "type": "tuple[]"
            },
            {
              "internalType": "string",
              "name": "logoCID",
              "type": "string"
            },
            {
              "internalType": "bool",
              "name": "isOpen",
              "type": "bool"
            },
            {
              "internalType": "bool",
              "name": "deleted",
              "type": "bool"
            },
            {
              "internalType": "uint256",
              "name": "startTime",
              "type": "uint256"
            },
            {
              "internalType": "uint256",
              "name": "endTime",
              "type": "uint256"
            },
            {
              "internalType": "uint256",
              "name": "expirationTime",
              "type": "uint256"
            },
            {
              "internalType": "bool",
              "name": "expired",
              "type": "bool"
            },
            {
              "internalType": "enum JobBoard.JobType",
              "name": "jobType",
              "type": "uint8"
            },
            {
              "internalType": "enum JobBoard.WorkMode",
              "name": "workMode",
              "type": "uint8"
            },
            {
              "internalType": "string",
              "name": "minimumSalary",
              "type": "string"
            },
            {
              "internalType": "string",
              "name": "maximumSalary",
              "type": "string"
            }
          ],
          "internalType": "struct JobBoard.JobStruct[]",
          "name": "",
          "type": "tuple[]"
        }
      ],
      "stateMutability": "view",
      "type": "function"
    },
    {
      "inputs": [
        {
          "internalType": "uint256",
          "name": "jobId",
          "type": "uint256"
        }
      ],
      "name": "getJob",
      "outputs": [
        {
          "components": [
            {
              "internalType": "uint256",
              "name": "id",
              "type": "uint256"
            },
            {
              "internalType": "address",
              "name": "employer",
              "type": "address"
            },
            {
              "internalType": "string",
              "name": "orgName",
              "type": "string"
            },
            {
              "internalType": "string",
              "name": "title",
              "type": "string"
            },
            {
              "internalType": "string",
              "name": "description",
              "type": "string"
            },
            {
              "internalType": "string",
              "name": "orgEmail",
              "type": "string"
            },
            {
              "components": [
                {
                  "internalType": "string",
                  "name": "fieldName",
                  "type": "string"
                },
                {
                  "internalType": "bool",
                  "name": "isRequired",
                  "type": "bool"
                }
              ],
              "internalType": "struct JobBoard.CustomField[]",
              "name": "customField",
              "type": "tuple[]"
            },
            {
              "internalType": "string",
              "name": "logoCID",
              "type": "string"
            },
            {
              "internalType": "bool",
              "name": "isOpen",
              "type": "bool"
            },
            {
              "internalType": "bool",
              "name": "deleted",
              "type": "bool"
            },
            {
              "internalType": "uint256",
              "name": "startTime",
              "type": "uint256"
            },
            {
              "internalType": "uint256",
              "name": "endTime",
              "type": "uint256"
            },
            {
              "internalType": "uint256",
              "name": "expirationTime",
              "type": "uint256"
            },
            {
              "internalType": "bool",
              "name": "expired",
              "type": "bool"
            },
            {
              "internalType": "enum JobBoard.JobType",
              "name": "jobType",
              "type": "uint8"
            },
            {
              "internalType": "enum JobBoard.WorkMode",
              "name": "workMode",
              "type": "uint8"
            },
            {
              "internalType": "string",
              "name": "minimumSalary",
              "type": "string"
            },
            {
              "internalType": "string",
              "name": "maximumSalary",
              "type": "string"
            }
          ],
          "internalType": "struct JobBoard.JobStruct",
          "name": "",
          "type": "tuple"
        }
      ],
      "stateMutability": "view",
      "type": "function"
    },
    {
      "inputs": [
        {
          "internalType": "uint256",
          "name": "jobId",
          "type": "uint256"
        },
        {
          "internalType": "uint256",
          "name": "applicantIndex",
          "type": "uint256"
        }
      ],
      "name": "getJobApplicantDetails",
      "outputs": [
        {
          "components": [
            {
              "internalType": "uint256",
              "name": "jobId",
              "type": "uint256"
            },
            {
              "internalType": "address",
              "name": "applicant",
              "type": "address"
            },
            {
              "internalType": "string",
              "name": "name",
              "type": "string"
            },
            {
              "internalType": "string",
              "name": "email",
              "type": "string"
            },
            {
              "internalType": "string",
              "name": "phoneNumber",
              "type": "string"
            },
            {
              "internalType": "string",
              "name": "location",
              "type": "string"
            },
            {
              "internalType": "string[]",
              "name": "fieldResponse",
              "type": "string[]"
            },
            {
              "internalType": "string",
              "name": "cvCID",
              "type": "string"
            },
            {
              "internalType": "enum JobBoard.WorkMode",
              "name": "workMode",
              "type": "uint8"
            },
            {
              "internalType": "enum JobBoard.JobType",
              "name": "jobType",
              "type": "uint8"
            },
            {
              "internalType": "string",
              "name": "minimumSalary",
              "type": "string"
            },
            {
              "internalType": "string",
              "name": "maximumSalary",
              "type": "string"
            },
            {
              "internalType": "uint256",
              "name": "applicationTimestamp",
              "type": "uint256"
            },
            {
              "internalType": "enum JobBoard.ApplicationState",
              "name": "currentState",
              "type": "uint8"
            }
          ],
          "internalType": "struct JobBoard.ApplicationStruct",
          "name": "",
          "type": "tuple"
        }
      ],
      "stateMutability": "view",
      "type": "function"
    },
    {
      "inputs": [
        {
          "internalType": "uint256",
          "name": "jobId",
          "type": "uint256"
        }
      ],
      "name": "getJobApplicants",
      "outputs": [
        {
          "internalType": "address[]",
          "name": "",
          "type": "address[]"
        }
      ],
      "stateMutability": "view",
      "type": "function"
    },
    {
      "inputs": [
        {
          "internalType": "uint256",
          "name": "jobId",
          "type": "uint256"
        }
      ],
      "name": "getJobApplicationCount",
      "outputs": [
        {
          "internalType": "uint256",
          "name": "",
          "type": "uint256"
        }
      ],
      "stateMutability": "view",
      "type": "function"
    },
    {
      "inputs": [
        {
          "internalType": "uint256",
          "name": "jobId",
          "type": "uint256"
        }
      ],
      "name": "getJobApplications",
      "outputs": [
        {
          "components": [
            {
              "internalType": "uint256",
              "name": "jobId",
              "type": "uint256"
            },
            {
              "internalType": "address",
              "name": "applicant",
              "type": "address"
            },
            {
              "internalType": "string",
              "name": "name",
              "type": "string"
            },
            {
              "internalType": "string",
              "name": "email",
              "type": "string"
            },
            {
              "internalType": "string",
              "name": "phoneNumber",
              "type": "string"
            },
            {
              "internalType": "string",
              "name": "location",
              "type": "string"
            },
            {
              "internalType": "string[]",
              "name": "fieldResponse",
              "type": "string[]"
            },
            {
              "internalType": "string",
              "name": "cvCID",
              "type": "string"
            },
            {
              "internalType": "enum JobBoard.WorkMode",
              "name": "workMode",
              "type": "uint8"
            },
            {
              "internalType": "enum JobBoard.JobType",
              "name": "jobType",
              "type": "uint8"
            },
            {
              "internalType": "string",
              "name": "minimumSalary",
              "type": "string"
            },
            {
              "internalType": "string",
              "name": "maximumSalary",
              "type": "string"
            },
            {
              "internalType": "uint256",
              "name": "applicationTimestamp",
              "type": "uint256"
            },
            {
              "internalType": "enum JobBoard.ApplicationState",
              "name": "currentState",
              "type": "uint8"
            }
          ],
          "internalType": "struct JobBoard.ApplicationStruct[]",
          "name": "",
          "type": "tuple[]"
        }
      ],
      "stateMutability": "view",
      "type": "function"
    },
    {
      "inputs": [],
      "name": "getMyJobs",
      "outputs": [
        {
          "components": [
            {
              "internalType": "uint256",
              "name": "id",
              "type": "uint256"
            },
            {
              "internalType": "address",
              "name": "employer",
              "type": "address"
            },
            {
              "internalType": "string",
              "name": "orgName",
              "type": "string"
            },
            {
              "internalType": "string",
              "name": "title",
              "type": "string"
            },
            {
              "internalType": "string",
              "name": "description",
              "type": "string"
            },
            {
              "internalType": "string",
              "name": "orgEmail",
              "type": "string"
            },
            {
              "components": [
                {
                  "internalType": "string",
                  "name": "fieldName",
                  "type": "string"
                },
                {
                  "internalType": "bool",
                  "name": "isRequired",
                  "type": "bool"
                }
              ],
              "internalType": "struct JobBoard.CustomField[]",
              "name": "customField",
              "type": "tuple[]"
            },
            {
              "internalType": "string",
              "name": "logoCID",
              "type": "string"
            },
            {
              "internalType": "bool",
              "name": "isOpen",
              "type": "bool"
            },
            {
              "internalType": "bool",
              "name": "deleted",
              "type": "bool"
            },
            {
              "internalType": "uint256",
              "name": "startTime",
              "type": "uint256"
            },
            {
              "internalType": "uint256",
              "name": "endTime",
              "type": "uint256"
            },
            {
              "internalType": "uint256",
              "name": "expirationTime",
              "type": "uint256"
            },
            {
              "internalType": "bool",
              "name": "expired",
              "type": "bool"
            },
            {
              "internalType": "enum JobBoard.JobType",
              "name": "jobType",
              "type": "uint8"
            },
            {
              "internalType": "enum JobBoard.WorkMode",
              "name": "workMode",
              "type": "uint8"
            },
            {
              "internalType": "string",
              "name": "minimumSalary",
              "type": "string"
            },
            {
              "internalType": "string",
              "name": "maximumSalary",
              "type": "string"
            }
          ],
          "internalType": "struct JobBoard.JobStruct[]",
          "name": "",
          "type": "tuple[]"
        }
      ],
      "stateMutability": "view",
      "type": "function"
    },
    {
      "inputs": [
        {
          "internalType": "bytes32",
          "name": "role",
          "type": "bytes32"
        }
      ],
      "name": "getRoleAdmin",
      "outputs": [
        {
          "internalType": "bytes32",
          "name": "",
          "type": "bytes32"
        }
      ],
      "stateMutability": "view",
      "type": "function"
    },
    {
      "inputs": [
        {
          "internalType": "address",
          "name": "account",
          "type": "address"
        }
      ],
      "name": "grantJobManagerRole",
      "outputs": [],
      "stateMutability": "nonpayable",
      "type": "function"
    },
    {
      "inputs": [
        {
          "internalType": "bytes32",
          "name": "role",
          "type": "bytes32"
        },
        {
          "internalType": "address",
          "name": "account",
          "type": "address"
        }
      ],
      "name": "grantRole",
      "outputs": [],
      "stateMutability": "nonpayable",
      "type": "function"
    },
    {
      "inputs": [
        {
          "internalType": "bytes32",
          "name": "role",
          "type": "bytes32"
        },
        {
          "internalType": "address",
          "name": "account",
          "type": "address"
        }
      ],
      "name": "hasRole",
      "outputs": [
        {
          "internalType": "bool",
          "name": "",
          "type": "bool"
        }
      ],
      "stateMutability": "view",
      "type": "function"
    },
    {
      "inputs": [
        {
          "internalType": "uint256",
          "name": "jobId",
          "type": "uint256"
        }
      ],
      "name": "isJobExpired",
      "outputs": [
        {
          "internalType": "bool",
          "name": "",
          "type": "bool"
        }
      ],
      "stateMutability": "view",
      "type": "function"
    },
    {
      "inputs": [
        {
          "internalType": "uint256",
          "name": "",
          "type": "uint256"
        }
      ],
      "name": "jobs",
      "outputs": [
        {
          "internalType": "uint256",
          "name": "id",
          "type": "uint256"
        },
        {
          "internalType": "address",
          "name": "employer",
          "type": "address"
        },
        {
          "internalType": "string",
          "name": "orgName",
          "type": "string"
        },
        {
          "internalType": "string",
          "name": "title",
          "type": "string"
        },
        {
          "internalType": "string",
          "name": "description",
          "type": "string"
        },
        {
          "internalType": "string",
          "name": "orgEmail",
          "type": "string"
        },
        {
          "internalType": "string",
          "name": "logoCID",
          "type": "string"
        },
        {
          "internalType": "bool",
          "name": "isOpen",
          "type": "bool"
        },
        {
          "internalType": "bool",
          "name": "deleted",
          "type": "bool"
        },
        {
          "internalType": "uint256",
          "name": "startTime",
          "type": "uint256"
        },
        {
          "internalType": "uint256",
          "name": "endTime",
          "type": "uint256"
        },
        {
          "internalType": "uint256",
          "name": "expirationTime",
          "type": "uint256"
        },
        {
          "internalType": "bool",
          "name": "expired",
          "type": "bool"
        },
        {
          "internalType": "enum JobBoard.JobType",
          "name": "jobType",
          "type": "uint8"
        },
        {
          "internalType": "enum JobBoard.WorkMode",
          "name": "workMode",
          "type": "uint8"
        },
        {
          "internalType": "string",
          "name": "minimumSalary",
          "type": "string"
        },
        {
          "internalType": "string",
          "name": "maximumSalary",
          "type": "string"
        }
      ],
      "stateMutability": "view",
      "type": "function"
    },
    {
      "inputs": [],
      "name": "owner",
      "outputs": [
        {
          "internalType": "address",
          "name": "",
          "type": "address"
        }
      ],
      "stateMutability": "view",
      "type": "function"
    },
    {
      "inputs": [
        {
          "internalType": "string",
          "name": "orgName",
          "type": "string"
        },
        {
          "internalType": "string",
          "name": "title",
          "type": "string"
        },
        {
          "internalType": "string",
          "name": "description",
          "type": "string"
        },
        {
          "internalType": "string",
          "name": "orgEmail",
          "type": "string"
        },
        {
          "internalType": "string",
          "name": "logoCID",
          "type": "string"
        },
        {
          "internalType": "string[]",
          "name": "fieldName",
          "type": "string[]"
        },
        {
          "internalType": "bool[]",
          "name": "isRequired",
          "type": "bool[]"
        },
        {
          "internalType": "enum JobBoard.JobType",
          "name": "jobType",
          "type": "uint8"
        },
        {
          "internalType": "enum JobBoard.WorkMode",
          "name": "workMode",
          "type": "uint8"
        },
        {
          "internalType": "string",
          "name": "minimumSalary",
          "type": "string"
        },
        {
          "internalType": "string",
          "name": "maximumSalary",
          "type": "string"
        },
        {
          "internalType": "uint256",
          "name": "expirationDays",
          "type": "uint256"
        }
      ],
      "name": "postJob",
      "outputs": [
        {
          "internalType": "uint256",
          "name": "",
          "type": "uint256"
        }
      ],
      "stateMutability": "payable",
      "type": "function"
    },
    {
      "inputs": [],
      "name": "renounceOwnership",
      "outputs": [],
      "stateMutability": "nonpayable",
      "type": "function"
    },
    {
      "inputs": [
        {
          "internalType": "bytes32",
          "name": "role",
          "type": "bytes32"
        },
        {
          "internalType": "address",
          "name": "account",
          "type": "address"
        }
      ],
      "name": "renounceRole",
      "outputs": [],
      "stateMutability": "nonpayable",
      "type": "function"
    },
    {
      "inputs": [
        {
          "internalType": "address",
          "name": "account",
          "type": "address"
        }
      ],
      "name": "revokeJobManagerRole",
      "outputs": [],
      "stateMutability": "nonpayable",
      "type": "function"
    },
    {
      "inputs": [
        {
          "internalType": "bytes32",
          "name": "role",
          "type": "bytes32"
        },
        {
          "internalType": "address",
          "name": "account",
          "type": "address"
        }
      ],
      "name": "revokeRole",
      "outputs": [],
      "stateMutability": "nonpayable",
      "type": "function"
    },
    {
      "inputs": [],
      "name": "serviceFee",
      "outputs": [
        {
          "internalType": "uint256",
          "name": "",
          "type": "uint256"
        }
      ],
      "stateMutability": "view",
      "type": "function"
    },
    {
      "inputs": [
        {
          "internalType": "bytes4",
          "name": "interfaceId",
          "type": "bytes4"
        }
      ],
      "name": "supportsInterface",
      "outputs": [
        {
          "internalType": "bool",
          "name": "",
          "type": "bool"
        }
      ],
      "stateMutability": "view",
      "type": "function"
    },
    {
      "inputs": [
        {
          "internalType": "address",
          "name": "newOwner",
          "type": "address"
        }
      ],
      "name": "transferOwnership",
      "outputs": [],
      "stateMutability": "nonpayable",
      "type": "function"
    },
    {
      "inputs": [
        {
          "internalType": "uint256",
          "name": "jobId",
          "type": "uint256"
        },
        {
          "internalType": "address",
          "name": "applicant",
          "type": "address"
        },
        {
          "internalType": "enum JobBoard.ApplicationState",
          "name": "newState",
          "type": "uint8"
        }
      ],
      "name": "updateApplicationStatus",
      "outputs": [],
      "stateMutability": "nonpayable",
      "type": "function"
    },
    {
      "inputs": [
        {
          "internalType": "uint256",
          "name": "_newFee",
          "type": "uint256"
        }
      ],
      "name": "updateServiceFee",
      "outputs": [],
      "stateMutability": "nonpayable",
      "type": "function"
    },
    {
      "inputs": [],
      "name": "withdrawFunds",
      "outputs": [],
      "stateMutability": "nonpayable",
      "type": "function"
    }
  ],
  "bytecode": "0x60803461028957601f615e2b38819003918201601f19168301916001600160401b0383118484101761028e57808492602094604052833981010312610289575160008054336001600160a01b03198216811783556040519290916001600160a01b0316907f8be0079c531659141344cd1fd0a4f28419497f9722a3daafe3b4186f6b6457e09080a360018055811561023c5750600555336000908152600080516020615e0b833981519152602052604090205460ff16156101da575b336000908152600080516020615deb833981519152602052604090205460ff1615610178575b336000908152600080516020615dcb833981519152602052604090205460ff1615610116575b604051615b0690816102a58239f35b336000818152600080516020615dcb83398151915260205260408120805460ff1916600117905581907ffc7c36207174f786648d2e624616a4b40e15fd7f0268b4e36af5057f0c43c83590600080516020615dab8339815191529080a4610107565b336000818152600080516020615deb83398151915260205260408120805460ff1916600117905581907f9314fad2def8e56f9df1fa7f30dc3dafd695603f8f7676a295739a12b879d2f690600080516020615dab8339815191529080a46100e1565b336000818152600080516020615e0b83398151915260205260408120805460ff1916600117905581907fa49807205ce4d355092ef5a8a18f56e8913cf4a201fbe287825b095693c2177590600080516020615dab8339815191529080a46100bb565b62461bcd60e51b815260206004820152602260248201527f5365727669636520666565206d7573742062652067726561746572207468616e604482015261020360f41b6064820152608490fd5b600080fd5b634e487b7160e01b600052604160045260246000fdfe608080604052600436101561001357600080fd5b60003560e01c90816301ffc9a7146148875750806304f801a0146147955780630fb6bd371461452457806312d9a6ad1461373257806315248bb71461428a578063180aedf3146140ee5780631e01abca14613ffb5780632426bb3814613fd257806324600fc314613f53578063248a9ca314613f1e5780632f2ff15d14613e5e57806336568abe14613dcc57806351de72d014613ce65780636358bb8c14613b8c578063715018a614613b33578063747143b9146139d457806375b238fc1461399957806380d82d55146139705780638933b67a146138755780638abdf5aa146138575780638da5cb5b1461382e5780638e359a3a1461377f57806391d1485414613732578063965a79fb146135665780639a59b8801461346f5780639b00214c146132ad578063a217fddf14613291578063aa98d3011461323f578063ae4b7c26146131ec578063bc76136c14613073578063bf22c45714612e99578063cb8778511461221e578063d547741f146121d7578063d5515094146111ee578063dad788d9146111c6578063e8978c44146102e6578063f2fde38b1461021f5763fc736cde146101c157600080fd5b3461021a57604036600319011261021a576101da614ac0565b6001600160a01b031660009081526008602052604090208054602435919082101561021a5760209161020b91614f8e565b90549060031b1c604051908152f35b600080fd5b3461021a57602036600319011261021a57610238614ac0565b6102406155b8565b6001600160a01b0316801561029257600080546001600160a01b03198116831782556001600160a01b0316907f8be0079c531659141344cd1fd0a4f28419497f9722a3daafe3b4186f6b6457e09080a3005b60405162461bcd60e51b815260206004820152602660248201527f4f776e61626c653a206e6577206f776e657220697320746865207a65726f206160448201526564647265737360d01b6064820152608490fd5b61018036600319011261021a576004356001600160401b03811161021a57610312903690600401614e4b565b6024356001600160401b03811161021a57610331903690600401614e4b565b906044356001600160401b03811161021a57610351903690600401614e4b565b6064356001600160401b03811161021a57610370903690600401614e4b565b916084356001600160401b03811161021a57610390903690600401614e4b565b9360a4356001600160401b03811161021a576103b0903690600401614ea9565b9160c4356001600160401b03811161021a576103d0903690600401614f27565b9360e435600581101561021a5761010435600381101561021a57610124356001600160401b03811161021a5761040a903690600401614e4b565b90610144356001600160401b03811161021a5761042b903690600401614e4b565b9261016435996104396157dd565b600554341061118d578a156111395761045487511515615332565b61046088511515615388565b61046c865115156153cc565b6104788c511515615418565b610482895161545b565b9a60005b8a518110156104dc57806104d5818f8f8f836104a76001986104ae93614fd8565b5192614fd8565b511515604051916104be83614b48565b825260208201526104cf8383614fd8565b52614fd8565b5001610486565b508b9899508c600160035401998a600355623b5380420192834211610e9a576201518081029081046201518003610e9a57420193844211610e9a57604051996105248b614b2c565b8c8b523360208c01528b60408c01528d60608c015260808b015260a08a015260c089015260e0880152610100870160019052610120870160009052426101408801526101608701526101808601526101a08501600090526101c085019061058a91614ff8565b610598906101e08501614fec565b61020083015261022082015260008381526006602090815260409182902083518155908301516001820180546001600160a01b0319166001600160a01b0392909216919091179055908201518051906001600160401b038211610ad7576106026002840154614ad6565b601f8111611104575b50602090601f83116001146110935761063d929160009183610fe2575b50508160011b916000199060031b1c19161790565b60028201555b60608201518051906001600160401b038211610ad7576106666003840154614ad6565b601f811161105e575b50602090601f8311600114610fed576106a0929160009183610fe25750508160011b916000199060031b1c19161790565b60038201555b6004810160808301518051906001600160401b038211610ad7576106ca8354614ad6565b601f8111610fb0575b50602090601f8311600114610f4957610704929160009183610c5d5750508160011b916000199060031b1c19161790565b90555b6005810160a08301518051906001600160401b038211610ad75761072b8354614ad6565b601f8111610f17575b50602090601f8311600114610eb057610765929160009183610c5d5750508160011b916000199060031b1c19161790565b90555b6006810160c0830151805190600160401b8211610ad7578254828455808310610e3e575b506020019160005260206000206000925b828410610d0157505050506007810160e08301518051906001600160401b038211610ad7576107cc8354614ad6565b601f8111610ccf575b50602090601f8311600114610c6857610806929160009183610c5d5750508160011b916000199060031b1c19161790565b90555b6008810161082a6101008401511515829060ff801983541691151516179055565b610120830151151561ff0082549160081b169061ff0019161790556101408201516009820155610160820151600a820155610180820151600b820155600c81016108876101a08401511515829060ff801983541691151516179055565b6101c08301516005811015610c47576108a0908261551f565b6101e08301516003811015610c47576108b89161553e565b600d81016102008301518051906001600160401b038211610ad7576108dd8354614ad6565b601f8111610c15575b50602090601f8311600114610ba757826102209593600e959361091f93600092610b9c5750508160011b916000199060031b1c19161790565b90555b019101518051906001600160401b038211610ad7576109418354614ad6565b601f8111610b5f575b50602090601f8311600114610af85761097b929160009183610aed5750508160011b916000199060031b1c19161790565b90555b336000526008602052604060002092835493600160401b851015610ad757610a3084926109d4877f752f79388b35d90d4202940ffb0c752f318a347800decc9e4c322e2cec1b404a94600160209a018155614f8e565b815460001960039290921b91821b19169086901b179055600080516020615a718339815191526000908152600288526040808220338352895290205460ff1615610a4d575b610a3e6040519283926040845260408401906148fd565b8281038984015233966148fd565b0390a360018055604051908152f35b600080516020615a718339815191526000908152600288526040808220338352895290205460ff16610a1957600080516020615a71833981519152600081815260028952604080822033808452908b52908220805460ff191660011790559182917f2f8788117e7eff1d82e926ec794901d17c78024a50270940304540a733656f0d9080a4610a19565b634e487b7160e01b600052604160045260246000fd5b015190508780610628565b90601f1983169184600052816000209260005b818110610b475750908460019594939210610b2e575b505050811b01905561097e565b015160001960f88460031b161c19169055868080610b21565b92936020600181928786015181550195019301610b0b565b610b8c90846000526020600020601f850160051c81019160208610610b92575b601f0160051c01906154b9565b8661094a565b9091508190610b7f565b015190508b80610628565b90601f1983169184600052816000209260005b818110610bfd57509260019285926102209896600e989610610be4575b505050811b019055610922565b015160001960f88460031b161c191690558a8080610bd7565b92936020600181928786015181550195019301610bba565b610c4190846000526020600020601f850160051c81019160208610610b9257601f0160051c01906154b9565b886108e6565b634e487b7160e01b600052602160045260246000fd5b015190508980610628565b90601f1983169184600052816000209260005b818110610cb75750908460019594939210610c9e575b505050811b019055610809565b015160001960f88460031b161c19169055888080610c91565b92936020600181928786015181550195019301610c7b565b610cfb90846000526020600020601f850160051c81019160208610610b9257601f0160051c01906154b9565b886107d5565b805180518051906001600160401b038211610ad757610d208554614ad6565b601f8111610e0c575b50602090601f8311600114610d99576020600294610d6785839660019996610d8296600092610d8e5750508160011b916000199060031b1c19161790565b88555b015115158587019060ff801983541691151516179055565b0192019301929061079d565b015190503880610628565b90601f1983169186600052816000209260005b818110610df4575094600185819895610d829560209895899660029b10610ddb575b505050811b018855610d6a565b015160001960f88460031b161c19169055388080610dce565b92936020600181928786015181550195019301610dac565b610e3890866000526020600020601f850160051c81019160208610610b9257601f0160051c01906154b9565b8c610d29565b6001600160ff1b0381168103610e9a576001600160ff1b0383168303610e9a578360005260206000209060011b8101908360011b015b818110610e81575061078c565b80610e8d6002926154d0565b6000600182015501610e74565b634e487b7160e01b600052601160045260246000fd5b90601f1983169184600052816000209260005b818110610eff5750908460019594939210610ee6575b505050811b019055610768565b015160001960f88460031b161c19169055888080610ed9565b92936020600181928786015181550195019301610ec3565b610f4390846000526020600020601f850160051c81019160208610610b9257601f0160051c01906154b9565b88610734565b90601f1983169184600052816000209260005b818110610f985750908460019594939210610f7f575b505050811b019055610707565b015160001960f88460031b161c19169055888080610f72565b92936020600181928786015181550195019301610f5c565b610fdc90846000526020600020601f850160051c81019160208610610b9257601f0160051c01906154b9565b886106d3565b015190508880610628565b91906003840160005280600020906000935b601f1984168510611043576001945083601f1981161061102a575b505050811b0160038201556106a6565b015160001960f88460031b161c1916905587808061101a565b81810151835560209485019460019093019290910190610fff565b61108d90600385016000526020600020601f850160051c81019160208610610b9257601f0160051c01906154b9565b8761066f565b91906002840160005280600020906000935b601f19841685106110e9576001945083601f198116106110d0575b505050811b016002820155610643565b015160001960f88460031b161c191690558780806110c0565b818101518355602094850194600190930192909101906110a5565b61113390600285016000526020600020601f850160051c81019160208610610b9257601f0160051c01906154b9565b8761060b565b60405162461bcd60e51b815260206004820152602660248201527f45787069726174696f6e2064617973206d75737420626520677265617465722060448201526507468616e20360d41b6064820152608490fd5b60405162461bcd60e51b8152602060048201526011602482015270125b9cdd59999a58da595b9d08199d5b99607a1b6044820152606490fd5b3461021a57602036600319011261021a5760206111e460043561555f565b6040519015158152f35b3461021a5760e036600319011261021a576024356001600160401b03811161021a5761121e903690600401614e4b565b6044356001600160401b03811161021a5761123d903690600401614e4b565b6064356001600160401b03811161021a5761125c903690600401614e4b565b906084356001600160401b03811161021a5761127c903690600401614e4b565b9260a4356001600160401b03811161021a5761129c903690600401614e4b565b9160c4356001600160401b03811161021a576112bc903690600401614ea9565b936112c56157dd565b6112d96112d360043561555f565b156152e6565b600435600052600660205260ff60086040600020015416156121825782511561214657815115612109578351156120d357600435600052600660205260406000206040519161132783614b2c565b8154835260018201546001600160a01b0316602084015261134a60028301614b84565b604084015261135b60038301614b84565b606084015261136c60048301614b84565b608084015261137d60058301614b84565b60a08401526006820197885461139281614e92565b996113a06040519b8c614b63565b818b5260208b019060005260206000206000915b83831061209a575050505060c084019889526113d260078401614b84565b60e085015260ff6008840154818116151561010087015260081c1615156101208501526009830154610140850152600a830154610160850152600b830154610180850152600c8301549660ff881615156101a086015261145060ff6101c0870199611442828260081c168c614ff8565b60101c166101e08701614fec565b611470600e611461600d8701614b84565b95610200880196875201614b84565b93610220860194855289518b51510361204b5760005b8b5180518210156115025761149d82602092614fd8565b5101516114ad575b600101611486565b6114b7818c614fd8565b51516114a55760405162461bcd60e51b815260206004820152601e60248201527f5265717569726564206669656c642063616e6e6f7420626520656d70747900006044820152606490fd5b50508997986004356000526009602052604060002060018060a01b03331660005260205260ff604060002054166004811015610c4757611ffa576001600454016004556101e0870151906003821015610c475751926005841015610c47578a996115ba956115b0945198519760806040519e8f9061157f82614b10565b600435825233602083015260408201528d6060820152015260a08d015260c08c015260e08b01526101008a01614fec565b6101208801614ff8565b6101408601918252610160860190815261018086014281526101a087019160008352600435600052600760205260406000208054600160401b811015610ad75761160991600182018155614fbc565b949094611fe4578851855560208901516001860180546001600160a01b0319166001600160a01b03929092169190911790556040890151805160028701916001600160401b038211610ad75761165f8354614ad6565b601f8111611fb2575b50602090601f8311600114611f4b57611699929160009183611ba05750508160011b916000199060031b1c19161790565b90555b6003850160608a01518051906001600160401b038211610ad7576116c08354614ad6565b601f8111611f19575b50602090601f8311600114611eb2576116fa929160009183611ba05750508160011b916000199060031b1c19161790565b90555b6004850160808a01518051906001600160401b038211610ad7576117218354614ad6565b601f8111611e80575b50602090601f8311600114611e195761175b929160009183611ba05750508160011b916000199060031b1c19161790565b90555b6005850160a08a01518051906001600160401b038211610ad7576117828354614ad6565b601f8111611de7575b50602090601f8311600114611d80576117bc929160009183611ba05750508160011b916000199060031b1c19161790565b90555b6006850160c08a0151805190600160401b8211610ad7578254828455808310611d51575b50602001916000526020600020916000905b828210611c4457505050506007850160e08a01518051906001600160401b038211610ad7576118248354614ad6565b601f8111611c12575b50602090601f8311600114611bab5761185e929160009183611ba05750508160011b916000199060031b1c19161790565b90555b600885016101008a01519960038b1015610c47576101209060009b60ff801985541691161783550151906005821015611b8c579061189e9161551f565b51805160098601916001600160401b038211611b78576118be8354614ad6565b601f8111611b48575b50602090601f8311600114611ae5576118f792918c9183611ada5750508160011b916000199060031b1c19161790565b90555b518051600a8501916001600160401b038211611ac65761191a8354614ad6565b601f8111611a96575b50602090601f8311600114611a335761195392918b9183610b9c5750508160011b916000199060031b1c19161790565b90555b51600b83015551906004821015611a1f576101e09291600c611978920161514e565b60043585526009602090815260408087203388529091528520805460ff191690550151916003831015611a0b577fd86c4c5a378fb74722b2dca99901010c59ab06d49da30c9927514b870adfa7bd906119ea6119df604051926060845260608401906148fd565b946020830190614922565b808403604082015280611a013395600435956148fd565b0390a36001805580f35b634e487b7160e01b84526021600452602484fd5b634e487b7160e01b86526021600452602486fd5b838b52818b209190601f1984168c5b818110611a7e5750908460019594939210611a65575b505050811b019055611956565b015160001960f88460031b161c191690558a8080611a58565b92936020600181928786015181550195019301611a42565b611ac090848c5260208c20601f850160051c81019160208610610b9257601f0160051c01906154b9565b8a611923565b634e487b7160e01b8a52604160045260248afd5b015190508c80610628565b838c52818c209190601f1984168d5b818110611b305750908460019594939210611b17575b505050811b0190556118fa565b015160001960f88460031b161c191690558b8080611b0a565b92936020600181928786015181550195019301611af4565b611b7290848d5260208d20601f850160051c81019160208610610b9257601f0160051c01906154b9565b8b6118c7565b634e487b7160e01b8b52604160045260248bfd5b634e487b7160e01b8b52602160045260248bfd5b015190508d80610628565b90601f1983169184600052816000209260005b818110611bfa5750908460019594939210611be1575b505050811b019055611861565b015160001960f88460031b161c191690558c8080611bd4565b92936020600181928786015181550195019301611bbe565b611c3e90846000526020600020601f850160051c81019160208610610b9257601f0160051c01906154b9565b8c61182d565b80518051906001600160401b038211610ad757611c618654614ad6565b601f8111611d1f575b50602090601f8311600114611cb25792611ca383600195946020948796600092610d8e5750508160011b916000199060031b1c19161790565b87555b019401910190926117f5565b90601f1983169187600052816000209260005b818110611d075750936020936001969387969383889510611cee575b505050811b018755611ca6565b015160001960f88460031b161c19169055388080611ce1565b92936020600181928786015181550195019301611cc5565b611d4b90876000526020600020601f850160051c81019160208610610b9257601f0160051c01906154b9565b8f611c6a565b8360005282602060002091820191015b818110611d6e57506117e3565b80611d7a6001926154d0565b01611d61565b90601f1983169184600052816000209260005b818110611dcf5750908460019594939210611db6575b505050811b0190556117bf565b015160001960f88460031b161c191690558c8080611da9565b92936020600181928786015181550195019301611d93565b611e1390846000526020600020601f850160051c81019160208610610b9257601f0160051c01906154b9565b8c61178b565b90601f1983169184600052816000209260005b818110611e685750908460019594939210611e4f575b505050811b01905561175e565b015160001960f88460031b161c191690558c8080611e42565b92936020600181928786015181550195019301611e2c565b611eac90846000526020600020601f850160051c81019160208610610b9257601f0160051c01906154b9565b8c61172a565b90601f1983169184600052816000209260005b818110611f015750908460019594939210611ee8575b505050811b0190556116fd565b015160001960f88460031b161c191690558c8080611edb565b92936020600181928786015181550195019301611ec5565b611f4590846000526020600020601f850160051c81019160208610610b9257601f0160051c01906154b9565b8c6116c9565b90601f1983169184600052816000209260005b818110611f9a5750908460019594939210611f81575b505050811b01905561169c565b015160001960f88460031b161c191690558c8080611f74565b92936020600181928786015181550195019301611f5e565b611fde90846000526020600020601f850160051c81019160208610610b9257601f0160051c01906154b9565b8c611668565b634e487b7160e01b600052600060045260246000fd5b60405162461bcd60e51b8152602060048201526024808201527f596f75206861766520616c7265616479206170706c69656420746f2074686973604482015263103537b160e11b6064820152608490fd5b60405162461bcd60e51b815260206004820152602160248201527f496e636f6d706c65746520637573746f6d206669656c6420726573706f6e73656044820152607360f81b6064820152608490fd5b600260206001926040516120ad81614b48565b6120b686614b84565b815260ff85870154161515838201528152019201920191906113b4565b60405162461bcd60e51b815260206004820152600e60248201526d10d5881a5cc81c995c5d5a5c995960921b6044820152606490fd5b60405162461bcd60e51b8152602060048201526015602482015274456d61696c2063616e6e6f7420626520656d70747960581b6044820152606490fd5b60405162461bcd60e51b81526020600482015260146024820152734e616d652063616e6e6f7420626520656d70747960601b6044820152606490fd5b60405162461bcd60e51b815260206004820152602760248201527f4a6f62206973206e6f206c6f6e67657220616363657074696e67206170706c69604482015266636174696f6e7360c81b6064820152608490fd5b3461021a57604036600319011261021a5761221c6004356121f6614aaa565b9061221761221282600052600260205260016040600020015490565b615717565b615757565b005b3461021a576101a036600319011261021a576004356024356001600160401b03811161021a57612252903690600401614e4b565b6044356001600160401b03811161021a57612271903690600401614e4b565b916064356001600160401b03811161021a57612291903690600401614e4b565b906084356001600160401b03811161021a576122b1903690600401614e4b565b60a4356001600160401b03811161021a576122d0903690600401614e4b565b9060c4356001600160401b03811161021a576122f0903690600401614ea9565b9260e4356001600160401b03811161021a57612310903690600401614f27565b9461010435801515810361021a576101243590600582101561021a576101443592600384101561021a57610164356001600160401b03811161021a5761235a903690600401614e4b565b96610184356001600160401b03811161021a5761237b903690600401614e4b565b966123846157dd565b86600052600660205260ff60086040600020015460081c16612e5d57336000908152600080516020615a91833981519152602052604090205460ff168015612e37575b8015612e11575b15612dcc576123df8c511515615332565b6123eb8d511515615388565b6123f7835115156153cc565b61240382511515615418565b623b5380420192834211610e9a5742841115612d90576124238b5161545b565b9d60005b8c51811015612451578f9061244a8f8f9383916104ae836104a781600199614fd8565b5001612427565b50908e9392918e8a60005260066020526002604060002001908051906001600160401b038211610ad7576124858354614ad6565b601f8111612d5e575b50602090601f8311600114612cf7576124bf929160009183610d8e5750508160011b916000199060031b1c19161790565b90555b8960005260066020526003604060002001908051906001600160401b038211610ad7576124ef8354614ad6565b601f8111612cc5575b50602090601f8311600114612c5e57612529929160009183612c535750508160011b916000199060031b1c19161790565b90555b8860005260066020526004604060002001908051906001600160401b038211610ad7576125598354614ad6565b601f8111612c21575b50602090601f8311600114612bba57612593929160009183612baf5750508160011b916000199060031b1c19161790565b90555b8760005260066020526005604060002001908051906001600160401b038211610ad7576125c38354614ad6565b601f8111612b7d575b50602090601f8311600114612b16576125fd929160009183611ba05750508160011b916000199060031b1c19161790565b90555b8660005260066020526007604060002001908051906001600160401b038211610ad75761262d8354614ad6565b601f8111612ae4575b50602090601f8311600114612a7d57612667929160009183611ada5750508160011b916000199060031b1c19161790565b90555b856000526006602052600660406000200190805190600160401b8211610ad7578254828455808310612a21575b506020019160005260206000206000925b828410612924575050506000868152600660205260409020600a8101929092555060088101805492151560ff1660ff199093169290921790915561270992916126f391600c0161551f565b826000526006602052600c60406000200161553e565b806000526006602052600d60406000200183516001600160401b038111610ad7576127348254614ad6565b601f81116128f2575b50602094601f821160011461288d576127719293949582916000926128825750508160011b916000199060031b1c19161790565b90555b6000526006602052600e60406000200181516001600160401b038111610ad75761279e8254614ad6565b601f8111612850575b50602092601f82116001146127ed576127d9929382916000926127e25750508160011b916000199060031b1c19161790565b90555b60018055005b015190508480610628565b601f1982169383600052806000209160005b868110612838575083600195961061281f575b505050811b0190556127dc565b015160001960f88460031b161c19169055838080612812565b919260206001819286850151815501940192016127ff565b61287c90836000526020600020601f840160051c81019160208510610b9257601f0160051c01906154b9565b836127a7565b015190508680610628565b601f1982169583600052806000209160005b8881106128da575083600195969798106128c1575b505050811b019055612774565b015160001960f88460031b161c191690558580806128b4565b9192602060018192868501518155019401920161289f565b61291e90836000526020600020601f840160051c81019160208510610b9257601f0160051c01906154b9565b8561273d565b805180518051906001600160401b038211610ad7576129438554614ad6565b601f81116129ef575b50602090601f8311600114612996576020600294610d678583966001999661298a96600092610d8e5750508160011b916000199060031b1c19161790565b019201930192906126a8565b90601f1983169186600052816000209260005b8181106129d757509460018581989561298a9560209895899660029b10610ddb57505050811b018855610d6a565b929360206001819287860151815501950193016129a9565b612a1b90866000526020600020601f850160051c81019160208610610b9257601f0160051c01906154b9565b8e61294c565b6001600160ff1b0381168103610e9a576001600160ff1b0383168303610e9a578360005260206000209060011b8101908360011b015b818110612a645750612697565b80612a706002926154d0565b6000600182015501612a57565b90601f1983169184600052816000209260005b818110612acc5750908460019594939210612ab3575b505050811b01905561266a565b015160001960f88460031b161c191690558b8080612aa6565b92936020600181928786015181550195019301612a90565b612b1090846000526020600020601f850160051c81019160208610610b9257601f0160051c01906154b9565b8b612636565b90601f1983169184600052816000209260005b818110612b655750908460019594939210612b4c575b505050811b019055612600565b015160001960f88460031b161c191690558c8080612b3f565b92936020600181928786015181550195019301612b29565b612ba990846000526020600020601f850160051c81019160208610610b9257601f0160051c01906154b9565b8c6125cc565b015190508e80610628565b90601f1983169184600052816000209260005b818110612c095750908460019594939210612bf0575b505050811b019055612596565b015160001960f88460031b161c191690558d8080612be3565b92936020600181928786015181550195019301612bcd565b612c4d90846000526020600020601f850160051c81019160208610610b9257601f0160051c01906154b9565b8d612562565b015190508f80610628565b90601f1983169184600052816000209260005b818110612cad5750908460019594939210612c94575b505050811b01905561252c565b015160001960f88460031b161c191690558e8080612c87565b92936020600181928786015181550195019301612c71565b612cf190846000526020600020601f850160051c81019160208610610b9257601f0160051c01906154b9565b8e6124f8565b90601f1983169184600052816000209260005b818110612d465750908460019594939210612d2d575b505050811b0190556124c2565b015160001960f88460031b161c191690558f8080612d20565b92936020600181928786015181550195019301612d0a565b612d8a90846000526020600020601f850160051c81019160208610610b9257601f0160051c01906154b9565b8f61248e565b60405162461bcd60e51b815260206004820152601460248201527324b73b30b634b2103537b110323ab930ba34b7b760611b6044820152606490fd5b60405162461bcd60e51b815260206004820152601a60248201527f4e6f7420617574686f72697a656420746f2065646974206a6f620000000000006044820152606490fd5b50336000908152600080516020615a51833981519152602052604090205460ff166123ce565b50336000908152600080516020615a31833981519152602052604090205460ff166123c7565b60405162461bcd60e51b8152602060048201526014602482015273129bd8881a185cc81899595b8819195b195d195960621b6044820152606490fd5b3461021a57602036600319011261021a57600435612eb561520a565b50612ec26112d38261555f565b60005260066020526040600020604051612edb81614b2c565b8154815260018201546001600160a01b03166020820152612efe60028301614b84565b6040820152612f0f60038301614b84565b6060820152612f2060048301614b84565b6080820152612f3160058301614b84565b60a0820152600682018054612f4581614e92565b91612f536040519384614b63565b818352602083019060005260206000206000915b83831061303a576130368661301c600e8a8960c0850152612f8a60078201614b84565b60e085015260ff6008820154818116151561010087015260081c1615156101208501526009810154610140850152600a810154610160850152600b81015461018085015261300460ff600c83015481811615156101a0880152612ff6828260081c166101c08901614ff8565b60101c166101e08601614fec565b613010600d8201614b84565b61020085015201614b84565b610220820152604051918291602083526020830190614c28565b0390f35b6002602060019260405161304d81614b48565b61305686614b84565b815260ff8587015416151583820152815201920192019190612f67565b3461021a57602036600319011261021a57336000908152600080516020615a9183398151915260205260409020546004359060ff1680156131c6575b80156131a0575b1561315b5780600052600660205260ff60086040600020015460081c1661312057600081815260066020526040812042600b820155600101546001600160a01b031691907f2ff4b096ccebd1944c1681b8f847b6588aa34a90308ec467bb927e10c01921519080a3005b60405162461bcd60e51b8152602060048201526013602482015272129bd888185b1c9958591e4819195b195d1959606a1b6044820152606490fd5b60405162461bcd60e51b815260206004820152601c60248201527f4e6f7420617574686f72697a656420746f20657870697265206a6f62000000006044820152606490fd5b50336000908152600080516020615a51833981519152602052604090205460ff166130b6565b50336000908152600080516020615a31833981519152602052604090205460ff166130af565b3461021a57602036600319011261021a577e3b413cf14a67407425bd0b5c065b2de08876554d8489ad7dd4aa95604d280c604060043561322a6155b8565b600554908060055582519182526020820152a1005b3461021a57604036600319011261021a57613258614aaa565b600435600052600960205260406000209060018060a01b0316600052602052602060ff6040600020541661328f604051809261493c565bf35b3461021a57600036600319011261021a57602060405160008152f35b3461021a57600036600319011261021a5733600052600860205260406000206040518082602082945493848152019060005260206000209260005b8181106134565750506132fd92500382614b63565b6133078151615296565b9060005b81518110156134485761331e8183614fd8565b51600052600660205260406000206040519061333982614b2c565b8054825260018101546001600160a01b0316602083015261335c60028201614b84565b604083015261336d60038201614b84565b606083015261337e60048201614b84565b608083015261338f60058201614b84565b60a08301526006810180546133a381614e92565b916133b16040519384614b63565b81835260208301906000526020600020906000905b83821061340f5750505050600e83926133ed9260c0600197960152612f8a60078201614b84565b6102208201526133fd8286614fd8565b526134088185614fd8565b500161330b565b6002602060019260405161342281614b48565b61342b87614b84565b815260ff85880154161515838201528152019301910190916133c6565b604051806130368582614dd0565b84548352600194850194869450602090930192016132e8565b3461021a57602036600319011261021a57613488614ac0565b613490615610565b600080516020615ab183398151915260005260026020527f129f9ad0cf022b5b18b3a1e1e296fec1f580fd4bb39676ed5925b3184d055888546134d290615717565b6001600160a01b0381166000908152600080516020615a51833981519152602052604090205460ff1661350157005b6001600160a01b03166000818152600080516020615a5183398151915260205260408120805460ff19169055339190600080516020615ab1833981519152907ff6391f5c32d9c69d2a47ea670b442974b53935d1edc7fd64eb21e047a839171b9080a4005b3461021a57600036600319011261021a57600354600060015b82811115613700575061359190615296565b60009160015b818111156135ad57604051806130368582614dd0565b6135b68161555f565b156135ca575b6135c5906151fb565b613597565b928360005260066020526040600020604051906135e682614b2c565b8054825260018101546001600160a01b0316602083015261360960028201614b84565b604083015261361a60038201614b84565b606083015261362b60048201614b84565b608083015261363c60058201614b84565b60a083015260068101805461365081614e92565b9161365e6040519384614b63565b81835260208301906000526020600020906000905b8382106136c757505050509161369e600e6135c595936136bf9560c0850152612f8a60078201614b84565b6102208201526136ae8287614fd8565b526136b98186614fd8565b506151fb565b9390506135bc565b600260206001926040516136da81614b48565b6136e387614b84565b815260ff8588015416151583820152815201930191019091613673565b6137098161555f565b1561371d575b613718906151fb565b61357f565b9061372a613718916151fb565b91905061370f565b3461021a57604036600319011261021a5761374b614aaa565b600435600052600260205260406000209060018060a01b0316600052602052602060ff604060002054166040519015158152f35b3461021a57602036600319011261021a57336000908152600080516020615a91833981519152602052604090205460ff168015613808575b80156137e2575b6137c7906151a3565b60043560005260076020526020604060002054604051908152f35b50336000908152600080516020615a51833981519152602052604090205460ff166137be565b50336000908152600080516020615a31833981519152602052604090205460ff166137b7565b3461021a57600036600319011261021a576000546040516001600160a01b039091168152602090f35b3461021a57600036600319011261021a576020600554604051908152f35b3461021a57602036600319011261021a5761388e614ac0565b613896615610565b600080516020615ab183398151915260005260026020527f129f9ad0cf022b5b18b3a1e1e296fec1f580fd4bb39676ed5925b3184d055888546138d890615717565b6001600160a01b0381166000908152600080516020615a51833981519152602052604090205460ff161561390857005b6001600160a01b03166000818152600080516020615a5183398151915260205260408120805460ff19166001179055339190600080516020615ab1833981519152907f2f8788117e7eff1d82e926ec794901d17c78024a50270940304540a733656f0d9080a4005b3461021a57600036600319011261021a576020604051600080516020615ab18339815191528152f35b3461021a57600036600319011261021a5760206040517fa49807205ce4d355092ef5a8a18f56e8913cf4a201fbe287825b095693c217758152f35b3461021a57602036600319011261021a57336000908152600080516020615a91833981519152602052604090205460ff168015613b0d575b8015613ae7575b613a1c906151a3565b60043560005260076020526040600020805490613a3882614e92565b91613a466040519384614b63565b80835260208301809260005260206000206000915b838310613ac957848660405191829160208301906020845251809152604083019060408160051b85010192916000905b828210613a9a57505050500390f35b91936001919395506020613ab98192603f198a82030186528851614949565b9601920192018594939192613a8b565b600d6020600192613ad985615004565b815201920192019190613a5b565b50336000908152600080516020615a51833981519152602052604090205460ff16613a13565b50336000908152600080516020615a31833981519152602052604090205460ff16613a0c565b3461021a57600036600319011261021a57613b4c6155b8565b600080546001600160a01b0319811682556001600160a01b03167f8be0079c531659141344cd1fd0a4f28419497f9722a3daafe3b4186f6b6457e08280a3005b3461021a57602036600319011261021a57336000908152600080516020615a9183398151915260205260409020546004359060ff168015613cc0575b8015613c9a575b15613c555780600052600660205260ff60086040600020015460081c16613c10576000908152600660205260409020600801805461ff001916610100179055005b60405162461bcd60e51b815260206004820152601c60248201527f4a6f622068617320616c7265616479206265656e2064656c65746564000000006044820152606490fd5b60405162461bcd60e51b815260206004820152601c60248201527f4e6f7420617574686f72697a656420746f2064656c657465206a6f62000000006044820152606490fd5b50336000908152600080516020615a51833981519152602052604090205460ff16613bcf565b50336000908152600080516020615a31833981519152602052604090205460ff16613bc8565b3461021a57602036600319011261021a5760043580151580613dc0575b613d0c90615166565b806000526006602052600b60406000200154421180613da1575b80613d85575b613d3257005b6000818152600660205260408120600c8101805460ff1916600190811790915501546001600160a01b031691907f2ff4b096ccebd1944c1681b8f847b6588aa34a90308ec467bb927e10c01921519080a3005b5080600052600660205260ff600c604060002001541615613d2c565b5080600052600660205260ff60086040600020015460081c1615613d26565b50600354811115613d03565b3461021a57604036600319011261021a57613de5614aaa565b336001600160a01b03821603613e015761221c90600435615757565b60405162461bcd60e51b815260206004820152602f60248201527f416363657373436f6e74726f6c3a2063616e206f6e6c792072656e6f756e636560448201526e103937b632b9903337b91039b2b63360891b6064820152608490fd5b3461021a57604036600319011261021a57600435613e7a614aaa565b90613e9661221282600052600260205260016040600020015490565b806000526002602052604060002060018060a01b03831660005260205260ff6040600020541615613ec357005b60008181526002602090815260408083206001600160a01b0395909516808452949091528120805460ff19166001179055339291907f2f8788117e7eff1d82e926ec794901d17c78024a50270940304540a733656f0d9080a4005b3461021a57602036600319011261021a576020613f4b600435600052600260205260016040600020015490565b604051908152f35b3461021a57600036600319011261021a57613f6c6155b8565b478015613f985760008080809360018060a01b0382541682f115613f8c57005b6040513d6000823e3d90fd5b60405162461bcd60e51b8152602060048201526012602482015271496e73756666696369656e742066756e647360701b6044820152606490fd5b3461021a57600036600319011261021a576020604051600080516020615a718339815191528152f35b3461021a57602036600319011261021a57336000908152600080516020615a91833981519152602052604090205460ff1680156140c8575b80156140a2575b1561405d576004356000908152600660205260409020600801805460ff19169055005b60405162461bcd60e51b815260206004820152601b60248201527f4e6f7420617574686f72697a656420746f20636c6f7365206a6f6200000000006044820152606490fd5b50336000908152600080516020615a51833981519152602052604090205460ff1661403a565b50336000908152600080516020615a31833981519152602052604090205460ff16614033565b3461021a57602036600319011261021a576004356000908152600660205260409020805460018201546001600160a01b03169161412d60028201614b84565b9061413a60038201614b84565b61414660048301614b84565b9061415360058401614b84565b9161416060078501614b84565b92600885015493600986015490600a87015492600b88015494600c89015496600d8a0161418c90614b84565b99600e0161419990614b84565b9a6040519d8e809e81526020015260408d0161022090526102208d016141be916148fd565b8c810360608e01526141cf916148fd565b8b810360808d01526141e0916148fd565b8a810360a08c01526141f1916148fd565b89810360c08b0152614202916148fd565b9460ff8116151560e08a015260081c60ff16151561010089015261012088015261014087015261016086015260ff811615156101808601526101a085018160081c60ff16906142509161492f565b6101c085019060101c60ff169061426691614922565b8381036101e0850152614278916148fd565b828103610200840152613036916148fd565b3461021a57606036600319011261021a576004356142a6614aaa565b60443591600483101561021a57806000526006602052604060002054151580614505575b156144d257336000908152600080516020615a91833981519152602052604090205460ff1680156144ac575b8015614486575b1561442d576001600160a01b039091169060009083825b8260005260076020526040600020548110156144235782600052600760205284614342826040600020614fbc565b50600101546001600160a01b03161461435d57600101614314565b829350906143c781600c6143c06020957f89e7b1b4fee8533190061d8f8762af542452e09f527602fc2272cb6abe5d908e97600052600987526143ae8460408c8160002060009182528b522061514e565b88600052600787526040600020614fbc565b500161514e565b6143d4604051809261493c565ba360015b156143df57005b606460405162461bcd60e51b815260206004820152602060248201527f4170706c6963616e74206e6f7420666f756e6420666f722074686973206a6f626044820152fd5b50505090506143d8565b60405162461bcd60e51b815260206004820152602b60248201527f4e6f7420617574686f72697a656420746f20757064617465206170706c69636160448201526a74696f6e2073746174757360a81b6064820152608490fd5b50336000908152600080516020615a51833981519152602052604090205460ff166142fd565b50336000908152600080516020615a31833981519152602052604090205460ff166142f6565b60405162461bcd60e51b815260206004820152600b60248201526a24b73b30b634b2103537b160a91b6044820152606490fd5b5080600052600660205260ff60086040600020015460081c16156142ca565b3461021a57604036600319011261021a5760043560243560006101a060405161454c81614b10565b8281528260208201526060604082015260608082015260606080820152606060a0820152606060c0820152606060e08201528261010082015282610120820152606061014082015260606101608201528261018082015201527fa49807205ce4d355092ef5a8a18f56e8913cf4a201fbe287825b095693c217756000526002602052604060002060018060a01b03331660005260205260ff60406000205416801561476f575b8015614749575b15614705578160005260066020526040600020541515806146e6575b156146ac578160005260076020526040600020548110156146675761464d614653916130369360005260076020526040600020614fbc565b50615004565b604051918291602083526020830190614949565b60405162461bcd60e51b815260206004820152601760248201527f496e76616c6964206170706c6963616e7420696e6465780000000000000000006044820152606490fd5b60405162461bcd60e51b8152602060048201526012602482015271129bd888191bd95cc81b9bdd08195e1a5cdd60721b6044820152606490fd5b5081600052600660205260ff60086040600020015460081c1615614615565b606460405162461bcd60e51b815260206004820152602060248201527f4e6f7420617574686f72697a656420746f2076696577206170706c6963616e746044820152fd5b50336000908152600080516020615a51833981519152602052604090205460ff166145f9565b50336000908152600080516020615a31833981519152602052604090205460ff166145f2565b3461021a57602036600319011261021a57600435806000526007602052604060002054906147db6147c583614e92565b926147d36040519485614b63565b808452614e92565b602083019190601f190136833760005b8160005260076020526040600020548110156148385760019082600052600760205261481b816040600020614fbc565b5082808060a01b03910154166148318287614fd8565b52016147eb565b5050906040519182916020830190602084525180915260408301919060005b818110614865575050500390f35b82516001600160a01b0316845285945060209384019390920191600101614857565b3461021a57602036600319011261021a576004359063ffffffff60e01b821680920361021a57602091637965db0b60e01b81149081156148c9575b5015158152f35b6301ffc9a760e01b149050836148c2565b60005b8381106148ed5750506000910152565b81810151838201526020016148dd565b90602091614916815180928185528580860191016148da565b601f01601f1916010190565b906003821015610c475752565b906005821015610c475752565b906004821015610c475752565b908151815260018060a01b0360208301511660208201526149ba6149a861499661498460408601516101c060408701526101c08601906148fd565b606086015185820360608701526148fd565b608085015184820360808601526148fd565b60a084015183820360a08501526148fd565b60c08301519082810360c0840152815180825260208201916020808360051b8301019401926000915b838310614a7d575050505050906101a080614a63614a4f614a13614a7a9660e089015187820360e08901526148fd565b614a27610100890151610100880190614922565b614a3b61012089015161012088019061492f565b6101408801518682036101408801526148fd565b6101608701518582036101608701526148fd565b94610180810151610180850152015191019061493c565b90565b9091929394602080614a9b600193601f1986820301875289516148fd565b970193019301919392906149e3565b602435906001600160a01b038216820361021a57565b600435906001600160a01b038216820361021a57565b90600182811c92168015614b06575b6020831014614af057565b634e487b7160e01b600052602260045260246000fd5b91607f1691614ae5565b6101c081019081106001600160401b03821117610ad757604052565b61024081019081106001600160401b03821117610ad757604052565b604081019081106001600160401b03821117610ad757604052565b90601f801991011681019081106001600160401b03821117610ad757604052565b9060405191826000825492614b9884614ad6565b8084529360018116908115614c065750600114614bbf575b50614bbd92500383614b63565b565b90506000929192526020600020906000915b818310614bea575050906020614bbd9282010138614bb0565b6020919350806001915483858901015201910190918492614bd1565b905060209250614bbd94915060ff191682840152151560051b82010138614bb0565b9190918051835260018060a01b036020820151166020840152614c9b614c89614c77614c65604085015161024060408901526102408801906148fd565b606085015187820360608901526148fd565b608084015186820360808801526148fd565b60a083015185820360a08701526148fd565b9260c08201519381810360c0830152845180825260208201916020808360051b8301019701926000915b838310614d8d575050505050610220614d7b614cf1614a7a959660e086015185820360e08701526148fd565b610100850151151561010085015261012085015115156101208501526101408501516101408501526101608501516101608501526101808501516101808501526101a085015115156101a0850152614d536101c08601516101c086019061492f565b614d676101e08601516101e0860190614922565b6102008501518482036102008601526148fd565b920151906102208184039101526148fd565b9091929397602080600192601f198582030186528b51908280614db984516040855260408501906148fd565b93015115159101529a019301930191939290614cc5565b602081016020825282518091526040820191602060408360051b8301019401926000915b838310614e0357505050505090565b9091929394602080614e21600193603f198682030187528951614c28565b97019301930191939290614df4565b6001600160401b038111610ad757601f01601f191660200190565b81601f8201121561021a57803590614e6282614e30565b92614e706040519485614b63565b8284526020838301011161021a57816000926020809301838601378301015290565b6001600160401b038111610ad75760051b60200190565b9080601f8301121561021a578135614ec081614e92565b92614ece6040519485614b63565b81845260208085019260051b8201019183831161021a5760208201905b838210614efa57505050505090565b81356001600160401b03811161021a57602091614f1c87848094880101614e4b565b815201910190614eeb565b9080601f8301121561021a57813590614f3f82614e92565b92614f4d6040519485614b63565b82845260208085019360051b82010191821161021a57602001915b818310614f755750505090565b8235801515810361021a57815260209283019201614f68565b8054821015614fa65760005260206000200190600090565b634e487b7160e01b600052603260045260246000fd5b8054821015614fa657600052600d602060002091020190600090565b8051821015614fa65760209160051b010190565b6003821015610c475752565b6005821015610c475752565b9060405161501181614b10565b8254815260018301546001600160a01b0316602082015291829061503760028201614b84565b604083015261504860038201614b84565b606083015261505960048201614b84565b608083015261506a60058201614b84565b60a083015260068101805461507e81614e92565b9161508c6040519384614b63565b818352602083019060005260206000206000915b838310615131575050505060ff91600c9160c08501526150c260078201614b84565b60e08501526150ee8360088301546150e08282166101008901614fec565b60081c166101208601614ff8565b6150fa60098201614b84565b61014085015261510c600a8201614b84565b610160850152600b810154610180850152015416906004821015610c47576101a00152565b60016020819261514085614b84565b8152019201920191906150a0565b906004811015610c475760ff80198354169116179055565b1561516d57565b60405162461bcd60e51b815260206004820152600e60248201526d125b9d985b1a59081a9bd888125160921b6044820152606490fd5b156151aa57565b60405162461bcd60e51b815260206004820152602360248201527f4e6f7420617574686f72697a656420746f2076696577206170706c69636174696044820152626f6e7360e81b6064820152608490fd5b6000198114610e9a5760010190565b6040519061521782614b2c565b606061022083600081526000602082015282604082015282808201528260808201528260a08201528260c08201528260e08201526000610100820152600061012082015260006101408201526000610160820152600061018082015260006101a082015260006101c082015260006101e0820152826102008201520152565b906152a082614e92565b6152ad6040519182614b63565b82815280926152be601f1991614e92565b019060005b8281106152cf57505050565b6020906152da61520a565b828285010152016152c3565b156152ed57565b60405162461bcd60e51b815260206004820152601f60248201527f4a6f62206861732065787069726564206f72206265656e2064656c65746564006044820152606490fd5b1561533957565b60405162461bcd60e51b815260206004820152602160248201527f4f7267616e69736174696f6e206e616d652063616e6e6f7420626520656d70746044820152607960f81b6064820152608490fd5b1561538f57565b60405162461bcd60e51b81526020600482015260156024820152745469746c652063616e6e6f7420626520656d70747960581b6044820152606490fd5b156153d357565b60405162461bcd60e51b815260206004820152601b60248201527f4465736372697074696f6e2063616e6e6f7420626520656d70747900000000006044820152606490fd5b1561541f57565b60405162461bcd60e51b81526020600482015260146024820152734c6f676f2063616e6e6f7420626520656d70747960601b6044820152606490fd5b9061546582614e92565b6154726040519182614b63565b8281528092615483601f1991614e92565b019060005b82811061549457505050565b6020906040516154a381614b48565b6060815260008382015282828501015201615488565b8181106154c4575050565b600081556001016154b9565b6154da8154614ad6565b90816154e4575050565b81601f600093116001146154f6575055565b8183526020832061551291601f0160051c8101906001016154b9565b8082528160208120915555565b906005811015610c475761ff0082549160081b169061ff001916179055565b906003811015610c475762ff000082549160101b169062ff00001916179055565b801515806155ac575b61557190615166565b80600052600660205260ff60086040600020015460081c16908115615594575090565b90506000526006602052600b60406000200154421190565b50600354811115615568565b6000546001600160a01b031633036155cc57565b606460405162461bcd60e51b815260206004820152602060248201527f4f776e61626c653a2063616c6c6572206973206e6f7420746865206f776e65726044820152fd5b336000908152600080516020615a91833981519152602052604090205460ff161561563757565b61571361564333615844565b6156f360116156717fa49807205ce4d355092ef5a8a18f56e8913cf4a201fbe287825b095693c21775615984565b9260376040519485927f416363657373436f6e74726f6c3a206163636f756e742000000000000000000060208501526156b381518092602086880191016148da565b83017001034b99036b4b9b9b4b733903937b6329607d1b838201526156e28251809360206048850191016148da565b01010301601f198101835282614b63565b60405162461bcd60e51b81526020600482015291829160248301906148fd565b0390fd5b600081815260026020908152604080832033845290915290205460ff161561573c5750565b615713906156f3601161567161575133615844565b93615984565b806000526002602052604060002060018060a01b03831660005260205260ff60406000205416615785575050565b60008181526002602090815260408083206001600160a01b0395909516808452949091528120805460ff19169055339291907ff6391f5c32d9c69d2a47ea670b442974b53935d1edc7fd64eb21e047a839171b9080a4565b6002600154146157ee576002600155565b60405162461bcd60e51b815260206004820152601f60248201527f5265656e7472616e637947756172643a207265656e7472616e742063616c6c006044820152606490fd5b908151811015614fa6570160200190565b600090615851602a614e30565b9161585f6040519384614b63565b602a835261586d602a614e30565b6020840190601f1901368237835115615970576030905382516001101561595c576078602184015350602960005b600182116158f05750506158ac5790565b606460405162461bcd60e51b815260206004820152602060248201527f537472696e67733a20686578206c656e67746820696e73756666696369656e746044820152fd5b9091600f81166010811015615948576f181899199a1a9b1b9c1cb0b131b232b360811b901a61591f8486615833565b5360041c91801561593457600019019061589b565b634e487b7160e01b82526011600452602482fd5b634e487b7160e01b83526032600452602483fd5b634e487b7160e01b81526032600452602490fd5b634e487b7160e01b82526032600452602482fd5b6000906159916042614e30565b9161599f6040519384614b63565b604283526159ad6042614e30565b6020840190601f1901368237835115615970576030905382516001101561595c576078602184015350604160005b600182116159ec5750506158ac5790565b9091600f81166010811015615948576f181899199a1a9b1b9c1cb0b131b232b360811b901a615a1b8486615833565b5360041c9180156159345760001901906159db56fe75680d50d7857bb14d6a9031f16ed433b862b51a721c2962823a9891c75391f6129f9ad0cf022b5b18b3a1e1e296fec1f580fd4bb39676ed5925b3184d055887fc7c36207174f786648d2e624616a4b40e15fd7f0268b4e36af5057f0c43c835e5ebfa64fca8d502a8e50c1edffd2c31ef4dad5b396e65d9f397fb028f74abc59314fad2def8e56f9df1fa7f30dc3dafd695603f8f7676a295739a12b879d2f6a2646970667358221220d15beab73b815f2cf54cfe78b5836aeb1e6d3b5c0ee6a625c5564f743f08750b64736f6c634300081c00332f8788117e7eff1d82e926ec794901d17c78024a50270940304540a733656f0d75680d50d7857bb14d6a9031f16ed433b862b51a721c2962823a9891c75391f6129f9ad0cf022b5b18b3a1e1e296fec1f580fd4bb39676ed5925b3184d055887e5ebfa64fca8d502a8e50c1edffd2c31ef4dad5b396e65d9f397fb028f74abc5",
  "linkReferences": {},
  "deployedLinkReferences": {}
}